:020000040000FA
:0400000007EF00F016
:10000800518209ED00F021EF05F00600F3CF1FF053
:10001800F4CF20F0F6CF21F0F7CF22F0F8CF23F07D
:10002800F5CF24F0F2A41BEF00F01DEF00F07EEFF7
:1000380001F0F29443504410D8B425EF00F027EFB4
:1000480000F07EEF01F041504210D8B42EEF00F0DE
:1000580030EF00F02DEF01F0000E426E000E416E01
:10006800454A462A4750455C4650800A1B6E485010
:10007800800A1B58D8A043EF00F045EF00F0C8EF06
:1000880000F0000E466E000E456E060E4502F3CFD8
:100098001BF0F4CF1CF04602F3501C261B504924D9
:1000A8001D6E1C504A201E6E1DC0F6FF1EC0F7FFB5
:1000B8000800F5CFCBFFCB380F0BBE6E060E4502FE
:1000C800F3CF1BF0F4CF1CF04602F3501C261B5054
:1000D80049241D6E1C504A201E6E020E1D26000E5D
:1000E8001E221DC0F6FF1EC0F7FF0900F5CF25F040
:1000F8000A00F5CF26F0200E116E000E126E000ECB
:10010800136E000E146E25C001F026C002F0000E1A
:1001180002BEFF0E036E046E400E056E420E066EA2
:100128000F0E076E000E086EECEC04F001C00DF027
:1001380002C00EF003C00FF004C010F0A4EC03F0EE
:100148000DC02BF00EC02CF00FC02DF010C02EF0FB
:100158002BC00DF02CC00EF02DC00FF02EC010F0EB
:10016800E80E116E030E126E000E136E000E146E62
:10017800A4EC03F00D500008D66E0E50D8A0E82A63
:100188000008D76E7EEF01F0060E4502F3CF1BF094
:10019800F4CF1CF04602F3501C261B5049241D6E58
:1001A8001C504A201E6E1DC0F6FF1EC0F7FF080037
:1001B800F5CFCBFFCB380F0BBE6E060E4502F3CF43
:1001C8001BF0F4CF1CF04602F3501C261B504924A8
:1001D8001D6E1C504A201E6E020E1D26000E1E2289
:1001E8001DC0F6FF1EC0F7FF0900F5CF27F00A0073
:1001F800F5CF28F0200E116E000E126E000E136E51
:10020800000E146E27C001F028C002F0000E02BED6
:10021800FF0E036E046E400E056E420E066E0F0E44
:10022800076E000E086EECEC04F001C00DF002C081
:100238000EF003C00FF004C010F0A4EC03F00DC0E2
:100248002BF00EC02CF00FC02DF010C02EF0ACEF2C
:1002580000F0000E426E010E416EBE6A060E4502A7
:10026800F3CF1BF0F4CF1CF04602F3501C261B50B2
:1002780049241D6E1C504A201E6E040E1D26000EB9
:100288001E221DC0F6FF1EC0F7FF0900F5CF29F09A
:100298000A00F5CF2AF0200E116E000E126E000E25
:1002A800136E000E146E29C001F02AC002F0000E71
:1002B80002BEFF0E036E046E400E056E420E066E01
:1002C8000F0E076E000E086EECEC04F001C00DF086
:1002D80002C00EF003C00FF004C010F0A4EC03F04D
:1002E8000DC02BF00EC02CF00FC02DF010C02EF05A
:1002F800ACEF00F024C0F5FF23C0F8FF22C0F7FFE1
:1003080021C0F6FF20C0F4FF1FC0F3FF5192110077
:10031800700ED312D5EC05F0C4EC05F09CEC05F09A
:1003280026EC06F0000E0001946F000E936F6B0E22
:10033800306E7F0E316E81EC05F0E5EC05F04AEC8D
:1003480005F00001956F770E9519D8A4AEEF01F06E
:10035800B0EF01F0C5EF01F014EC06F0D80E306EE6
:100368007F0E316E81EC05F0E5EC05F0D00E000152
:10037800926FC90EE82EFED7922FFCD700D0A3EFBC
:1003880001F0610E9519D8A4CCEF01F0CEEF01F081
:10039800D8EF01F002EC06F0C90E306E7F0E316E18
:1003A80081EC05F0B8EF01F0730E9519D8A4DFEFD2
:1003B80001F0E1EF01F0EBEF01F01DEC06F0AB0E00
:1003C800306E7F0E316E81EC05F0B8EF01F0640EEF
:1003D8009519D8A4F2EF01F0F4EF01F0FEEF01F067
:1003E800F9EC05F09B0E306E7F0E316E81EC05F056
:1003F800B8EF01F0710E9519D8A405EF02F007EFD8
:1004080002F011EF02F00BEC06F0F30E306E7F0EE7
:10041800316E81EC05F0A1EF01F0700E9519D8A4AA
:1004280018EF02F01AEF02F026EF02F0E60E306E37
:100438007F0E316E81EC05F0E5EC05F077EC02F00B
:10044800A3EF01F06C0E9519D8A42DEF02F02FEF51
:1004580002F062EF02F093519411D8A436EF02F043
:1004680038EF02F04DEF02F0BA0E306E7F0E316EAB
:1004780081EC05F0E5EC05F0000E326E0A0E316EE7
:1004880029EC04F0000E0001946F010E936FA3EFA6
:1004980001F08B0E306E7F0E316E81EC05F0E5ECCD
:1004A80005F0000E326E0A0E316E70EC04F0000E8C
:1004B8000001946F000E936FA3EF01F09551D8B42B
:1004C80068EF02F06AEF02F071EF02F09551B2ECBA
:1004D80005F0E5EC05F0A3EF01F00BEC06F0A3EF57
:1004E80001F007EF00F0020E000196199711D8A449
:1004F80080EF02F082EF02F08CEF02F0000E446E03
:10050800000E436E96699769BE6AD59E1DEF03F08B
:10051800964B972B66EC05F0000E446E010E436E69
:10052800000E466E000E456E000E426E000E416EC5
:10053800060E4502F3CF88F0F4CF89F04602F35057
:1005480000018927885149248A6F89514A208B6F75
:100558008AC0F6FF8BC0F7FF0800F5CFCBFFCB387A
:100568000F0BBE6E060E4502F3CF88F0F4CF89F06C
:100578004602F3508927885149248A6F89514A20B5
:100588008B6F020E8A27000E8B238AC0F6FF8BC062
:10059800F7FF0900F5CF90F00A00F5CF91F0200E93
:1005A800846F000E856F000E866F000E876F90C0F7
:1005B8002FF091C030F0000E30BEFF0E316E326E5B
:1005C800400E336E420E346E0F0E356E000E366ED0
:1005D800B7EC04F02FC080F030C081F031C082F059
:1005E80032C083F01EEC03F080C08CF081C08DF027
:1005F80082C08EF083C08FF08CC080F08DC081F0F7
:100608008EC082F08FC083F0E80E0001846F030E65
:10061800856F000E866F000E876F1EEC03F00001D9
:1006280080510008D66E8151D8A0E82A0008D76EFC
:10063800D58E12003C6A000187BF27EF03F025EF33
:1006480003F031EF03F0871F861F851F846D000EAE
:10065800852386238723010E3C6E83BF38EF03F082
:1006680036EF03F042EF03F0831F821F811F806D76
:10067800000E812382238323010E3C1A000E3D6E57
:10068800000E3E6E000E3F6E000E406E84518511C6
:1006980086118711D8B453EF03F055EF03F08BEFB1
:1006A80003F0010E3B6E5FEF03F0D8908437853777
:1006B800863787373B2A87AF64EF03F066EF03F08E
:1006C80059EF03F0D8903D363E363F3640368451D8
:1006D800805D855181598651825987518359D8A0A7
:1006E80078EF03F07AEF03F083EF03F08451805F33
:1006F8008551815B8651825B8751835B3D80D890B1
:1007080087338633853384333B2E66EF03F03C50C2
:10071800D8B491EF03F093EF03F09BEF03F0401E82
:100728003F1E3E1E3D6C000E3E223F2240223DC031
:1007380080F03EC081F03FC082F040C083F01200DC
:10074800166A14BEACEF03F0AAEF03F0B6EF03F09D
:10075800141E131E121E116C000E122213221422D4
:10076800010E166E10BEBDEF03F0BBEF03F0C7EF2E
:1007780003F0101E0F1E0E1E0D6C000E0E220F220F
:100788001022010E161A000E176E000E186E000EBB
:10079800196E000E1A6E1150121013101410D8B4DE
:1007A800D8EF03F0DAEF03F010EF04F0010E156E46
:1007B800E4EF03F0D8901136123613361436152AA2
:1007C80014AEE9EF03F0EBEF03F0DEEF03F0D8909F
:1007D8001736183619361A3611500D5C12500E5845
:1007E80013500F5814501058D8A0FDEF03F0FFEF26
:1007F80003F008EF04F011500D5E12500E5A13501A
:100808000F5A1450105A1780D890143213321232DB
:100818001132152EEBEF03F01650D8B416EF04F092
:1008280018EF04F020EF04F01A1E191E181E176C9A
:10083800000E182219221A2217C00DF018C00EF047
:1008480019C00FF01AC010F0120031C033F032C0D6
:1008580034F00B0ED89033363436E82E2EEF04F0F1
:1008680033C035F034C036F0000E3A6E000E396EE3
:10087800000E386E000E376E60EF04F0F90E392462
:10088800F66E7B0E3A20F76E0800F550EFEC05F097
:10089800060E336E300EE82EFED7332EFCD700D06E
:1008A800010E3924336E000E3A20346E030E3314D1
:1008B800396E3A6A374A382A3550375C3850800AD8
:1008C800336E3650800A3358D8A06DEF04F06FEFBE
:1008D80004F042EF04F0120031C033F032C034F0BB
:1008E8000B0ED89033363436E82E75EF04F033C04B
:1008F80035F034C036F0000E3A6E030E396E000E35
:10090800386E000E376EA7EF04F0F90E3924F66E34
:100918007B0E3A20F76E0800F550EFEC05F0060E56
:10092800336E300EE82EFED7332EFCD700D0030EE0
:100938003924336E000E3A20346E030E3314396EA8
:100948003A6A374A382A3550375C3850800A336E4D
:100958003650800A3358D8A0B4EF04F0B6EF04F04C
:1009680089EF04F01200000E376E000E386E000E8C
:10097800396E000E3A6E2FA0C4EF04F0C6EF04F0F3
:10098800CEEF04F033503726345038223550392210
:1009980036503A22D8903336343635363636D890F3
:1009A8003232313230322F322F5030103110321073
:1009B800D8A4E1EF04F0E3EF04F0BFEF04F037C090
:1009C8002FF038C030F039C031F03AC032F01200A0
:1009D800000E096E000E0A6E000E0B6E000E0C6EF5
:1009E80001A0F9EF04F0FBEF04F003EF05F0055068
:1009F800092606500A2207500B2208500C22D890CC
:100A08000536063607360836D890043203320232E5
:100A180001320150021003100410D8A416EF05F09B
:100A280018EF05F0F4EF04F009C001F00AC002F075
:100A38000BC003F00CC004F01200640EF66E0C0E2E
:100A4800F76E000EF86E0900F5CF96F00900F5CFA5
:100A580097F05E0EF66E0C0EF76E000EF86E00EE56
:100A68004BF010EE06F00900F5CFEEFFE550E1502F
:100A7800FAE100EE41F00A0EEE6AE806FDE1519057
:100A88005192000EF86E00018CEF01F0ABA24FEF0F
:100A980005F051EF05F053EF05F0AB98AB889EAA2F
:100AA80058EF05F05AEF05F064EF05F09EAA5FEFE6
:100AB80005F061EF05F05AEF05F0AE5065EF05F06F
:100AC800000E120000019651020DF3504B0FD96E23
:100AD800DA6ADECF49F0DDCF4AF0D8909635F66E67
:100AE8009735F76EF30EF6267B0EF7220900F5CF41
:100AF80047F00A00F5CF48F012008DEF05F030C03E
:100B0800F6FF31C0F7FF0800F550B2EC05F0304AA7
:100B1800312A30C0F6FF31C0F7FF0800F550000950
:100B2800D8A499EF05F09BEF05F083EF05F01200CC
:100B380094948B94BD50F00B0C09BD6E030ECA1231
:100B4800870ECA16CB6ABE6ACA84050ED56ED76AE6
:100B5800D66AF294F28AF28CF28E12002F6E2FC0AF
:100B6800ADFF9EA8BAEF05F0BCEF05F0B5EF05F0B4
:100B7800ACA2C1EF05F0C3EF05F0BCEF05F0120021
:100B88009290929295909592959495969398939A1F
:100B9800899089928C908C928C948C968A988A9A57
:100BA8001200948C948EAC84330EAF6EAC98AB8EDE
:100BB800AB9CAC9CAC8AAB88F29EF28C9D9A9D98BB
:100BC80012000D0EAD6EACA2ECEF05F0EEEF05F0E5
:100BD800E7EF05F01200306E30C02FF0F00E2F1640
:100BE8008C500F0B2F108C6E1200899089828C907C
:100BF8008C828C948C968A988A9A12008990899211
:100C08008C908C928C948C868A988A8A120089900F
:100C180089928C908C928C948C968A988A9A1200DD
:100C2800899089828C908C828C948C868A988A8A06
:100C38001200898089928C808C928C848C968A8808
:100C48008A9A12009598959A959C959E8C988C9A5C
:0E0C58008C9C8C9E1200A97DD57EFF7BFFFF39
:107B920000C8002C011E0096002C011E0064002C5F
:107BA200011E0032002C011E00EE002C011E00BD41
:107BB200002C011E009E002C011E0076002C011ECE
:107BC20000C8002C011E0096002C011E0064002C2F
:107BD200011E0032002C011E00EE002C011E00BD11
:107BE200002C011E009E002C011E0076002C011E9E
:107BF200003200190047003060C09003002E004B95
:107C020000FA0031004B00FA002E004B00FA00315E
:107C1200004B00FA002E004B00FA003E004B00FA27
:107C22000034004B00FA003B004B00FA0046004BC8
:107C320000FA00BD004B00FA008D004B00FA0076FE
:107C4200004B00FA005E004B00FA0046004B00FABF
:107C5200003E004B00FA00BD004B00FA007E004BD4
:107C620000FA005E004B00FA004A004B00FA003EA8
:107C7200004B00FA003B004B00FA00BD004B00FA3B
:107C8200008D004B00FA005E004B00FA002E004B04
:107C920000FA0031004B00FA002E004B00FA0031CE
:107CA200004B00FA002E004B00FA003E004B00FA97
:107CB2000034004B00FA003B004B00FA0046004B38
:107CC20000FA00BD004B00FA008D004B00FA00766E
:107CD200004B00FA005E004B00FA0046004B00FA2F
:107CE200003E004B00FA00BD004B00FA007E004B44
:107CF20000FA005E004B00FA004A004B00FA003E18
:107D0200004B00FA003B004B00FA00BD004B00FAAA
:107D1200008D004B00FA005E004B00FA002E004B73
:107D220000FA0031004B00FA002E004B00FA00313D
:107D3200004B00FA002E004B00FA003E004B00FA06
:107D42000034004B00FA003B004B00FA0046004BA7
:107D520000FA00BD004B00FA008D004B00FA0076DD
:107D6200004B00FA005E004B00FA0046004B00FA9E
:107D7200003E004B00FA00BD004B00FA007E004BB3
:107D820000FA005E004B00FA003B004B00FA003E96
:107D9200004B00FA0046004B00FA00BD004B00FA0F
:107DA200008D004B00FA008D0014007D007E00144F
:107DB200007D00690014007D007E001400770153ED
:107DC200003200770153003200EE025F004B007D6B
:107DD200008D0014007D007E0014007D00690014F7
:107DE200007D007E00140077015F00320077015FA2
:107DF200003200EE0269004B007D008D0014007D10
:107E0200007E0014007D00690014007D007E0014D5
:107E120000EE0269004B00FA005F00230077016F59
:107E22000032007D007E001400F4018D009600F403
:107E3200015F002300FA00690017027D008D001423
:107E4200007D007E0014007D00690014007D007E2C
:107E5200001400770153003200770153003200EE24
:107E6200025F004B007D008D0014007D007E001437
:107E7200007D00690014007D007E001400F40145BD
:107E8200004100FA006F001400F401690035027D20
:107E9200008D0014007D007E0014007D0069001436
:107EA200007D007E001400EE0269004B00FA005FC4
:107EB20000230077016F0032007D007E001400F481
:107EC200018D009600F4015F002300FA006900357D
:107ED200027D0076002800960069002800C8006331
:107EE200007800A60063001700A60063001700A632
:107EF2000069001700A60085001700A6009E001763
:107F020000A60085006400C80076001700A600766F
:107F1200009900A60076001700A60058001700A6D8
:107F22000063001700A60069001700A6006300782E
:107F320000A60063001700A60063001700A6005801
:107F4200001700A60063001700A60058001700A63D
:107F52000058006400A6004F001700A6004F00174B
:107F620000A600580085009600426C7565746F6F1C
:107F7200746820496E697469616C697A656420610C
:107F82006E64205265616479004C61646465725F5D
:107F92004261636B77617264004D6F746F725F54FC
:107FA20075726E5269676874004D6F746F725F42CA
:107FB20061636B77617264004C61646465725F46F1
:107FC2006F7277617264004D6F746F725F54757275
:107FD2006E4C656674004D6F746F725F466F727798
:107FE200617264006368616E67655F6D7573696372
:0D7FF200004D6F746F725F53746F7000006C
:020000040020DA
:08000000FFFFFFFFFFFFFFFF00
:020000040030CA
:0E000000FF081B1EFF8181FF0FC00FE00F40A5
:00000001FF
