:020000040000FA
:0400000000EF32F0EB
:10060000004144435F76616C75653A2025640D0AAC
:1006100000222A2B2C3A3B3C3D3E3F5B5D7C7F0019
:0B06200068656C6C6F2E74787400002D
:10062C004550D96EDA6ADE6ADD6A46C001F077ECB5
:10063C002BF001C0A0F002C0A1F00001A1BF2BEF74
:10064C0003F029EF03F02EEF03F00B0EC7EF08F0C9
:10065C00A051020DF350F60FD96EDA6ADECFB8F066
:10066C00DDCFB9F0B851B911D8A43FEF03F041EF89
:10067C0003F044EF03F00C0EC7EF08F04550D96EB1
:10068C00DA6AB8C0DEFFB9C0DDFFB8C0D9FFB9C0A7
:10069C00DAFFDF50D8B455EF03F057EF03F07EEFDD
:1006AC0003F020EE01F0B851D926B951DA22DF500F
:1006BC00EEEC32F00001AC6FACB167EF03F069EF18
:1006CC0003F07EEF03F04750D8B46FEF03F071EFF7
:1006DC0003F07BEF03F0ACA576EF03F078EF03F0BB
:1006EC007BEF03F00A0EC7EF08F0000EC7EF08F01F
:1006FC00B8C0D9FFB9C0DAFFDF6A20EE01F0B851FB
:10070C00D926B951DA22A0C0DFFF20EE01F0B85192
:10071C00D926B951DA22DF5070EC21F00001AC6F10
:10072C00ACA19BEF03F09DEF03F0A0EF03F0030EE1
:10073C00C7EF08F04750D8B4A6EF03F0A8EF03F0CA
:10074C00B1EF03F0ACA5ADEF03F0AFEF03F0B1EFF9
:10075C0003F078EF03F0000EB16F000EB26F000ED5
:10076C00B36F000EB46FB8C03BF0B9C03CF0000ED4
:10077C003D6E000E3E6E000E3F6E000E406EE9ECBC
:10078C002AF00001B76FB705D8B4CFEF03F0D1EF63
:10079C0003F0D3EF03F08EEF04F0000EB66F000EF3
:1007AC00B56FB65109E1040EB55DD8A0E0EF03F0CA
:1007BC00E2EF03F0E4EF03F035EF04F0B5C048F0DE
:1007CC00B6C049F0483A493AF00E491648500F0B5A
:1007DC004912F00E48164850B8254A6E4950B921B6
:1007EC004B6EEC0E4A249A6F010E4B209B6F20EE41
:1007FC0004F09A51D9269B51DA22DF50D8A409EF84
:10080C0004F00BEF04F015EF04F0000E906F000EE7
:10081C00916F000E926F000E936F23EF04F020EE99
:10082C0008F09A51D9269B51DA22DECF90F0DECF18
:10083C0091F0DECF92F0DECF93F0B551040DF35072
:10084C00800FD96EDA6A90C0DEFF91C0DEFF92C0D5
:10085C00DEFF93C0DEFFB54BB62BD7EF03F0000ED7
:10086C00B66F000EB56FB551B611D8B440EF04F0A9
:10087C0042EF04F045EF04F0B507D8A0B607B55128
:10088C00040DF350800FD96EDA6ADECFB1F0DECFF3
:10089C00B2F0DECFB3F0DECFB4F0B151B211B31180
:1008AC00B411D8A45CEF04F05EEF04F064EF04F034
:1008BC00000E956F020E946F77EF04F0B8C03BF00A
:1008CC00B9C03CF0B1C03DF0B2C03EF0B3C03FF097
:1008DC00B4C040F0E9EC2AF0486E48500001946F27
:1008EC00956B94C0B7F0B751D8B47FEF04F081EF9B
:1008FC0004F08EEF04F0B54BB62BB65109E1040EA3
:10090C00B55DD8A08CEF04F08EEF04F045EF04F049
:10091C00030EB719D8A495EF04F097EF04F09AEFF3
:10092C0004F0010EC7EF08F0B751D8B4A0EF04F0F3
:10093C00A2EF04F0A5EF04F00D0EC7EF08F020EEC7
:10094C0039F0B851D926B951DA22DE5009E1020E3C
:10095C00DE18D8B4B4EF04F0B6EF04F0B8EF04F03E
:10096C00A2EF04F020EE44F0B851D926B951DA22A6
:10097C00DECF48F0DDCF49F048C0ADF049C0AEF055
:10098C00AF6BB06BAD51AE11AF11B011D8A4D1EFAC
:10099C0004F0D3EF04F0E1EF04F020EE52F0B85184
:1009AC00D926B951DA22DECFADF0DECFAEF0DECFF4
:1009BC00AFF0DECFB0F020EE16F0B851D926B95119
:1009CC00DA22ADC0DEFFAEC0DEFFAFC0DEFFB0C0CE
:1009DC00DEFF20EE3EF0B851D926B951DA2210EEE6
:1009EC0003F0B851E126B951E222DFCFE7FF20EE48
:1009FC0003F0B851D926B951DA22DE04D8B409EF84
:100A0C0005F00BEF05F01CEF05F020EE03F0B851EC
:100A1C00D926B951DA22020EDE18D8B418EF05F037
:100A2C001AEF05F01CEF05F0A2EF04F0ADC001F0D9
:100A3C00AEC002F0AFC003F0B0C004F020EE03F083
:100A4C00B851D926B951DA22DF50486E4850056E9C
:100A5C00066A076A086A1DEC31F001C0ADF002C0ED
:100A6C00AEF003C0AFF004C0B0F0000120EE3BF0DC
:100A7C00B851D926B951DA2210EE02F0B851E1265C
:100A8C00B951E222DFCFE7FF20EE02F0B851D926B0
:100A9C00B951DA22DF50D8B456EF05F058EF05F013
:100AAC00A2EF04F020EE02F0B851D926B951DA22A7
:100ABC00DF50486EFF0E4824496E4A6AFF0E4A22E8
:100ACC0020EE02F0B851D926B951DA22DF504B6E24
:100ADC004B504916000E4A1649504A10D8B479EFBB
:100AEC0005F07BEF05F07DEF05F0A2EF04F020EEB2
:100AFC003FF0B851D926B951DA2210EE08F0B851AE
:100B0C00E126B951E222DECFE6FFDDCFE5FF20EE94
:100B1C0008F0B851D926B951DA22DECF48F0DDCF32
:100B2C0049F00F0E4816000E491648504910D8B41B
:100B3C00A2EF05F0A4EF05F0A6EF05F0A2EF04F08C
:100B4C0020EE41F0B851D926B951DA22DECF48F067
:100B5C00DDCF49F048C0A4F049C0A5F0A66BA76B47
:100B6C00A451A511A611A711D8A4BFEF05F0C1EF90
:100B7C0005F0CFEF05F020EE4EF0B851D926B95163
:100B8C00DA22DECFA4F0DECFA5F0DECFA6F0DECFEA
:100B9C00A7F020EE3CF0B851D926B951DA22DECFBD
:100BAC00A2F0DDCFA3F0A251A311D8A4E0EF05F081
:100BBC00E2EF05F0E4EF05F0A2EF04F020EE08F010
:100BCC00B851D926B951DA22DECF48F0DDCF49F041
:100BDC00040E4A6ED890493248324A2EF0EF05F096
:100BEC00A25148244B6EA35149204C6E4D6AD8B08B
:100BFC004D2A4E6AAD514B249C6FAE514C209D6FCB
:100C0C00AF514D209E6FB0514E209F6F9C51A45DF3
:100C1C009D51A5599E51A6599F51A759D8B019EF6E
:100C2C0006F01BEF06F01DEF06F0A2EF04F09C514E
:100C3C00A45D016E9D51A559026E9E51A659036E7D
:100C4C009F51A759046E20EE02F0B851D926B95124
:100C5C00DA22DF50486E4850056E066A076A086A49
:100C6C006BEC2FF001C0A8F002C0A9F003C0AAF0F1
:100C7C0004C0ABF00001A851A911AA11AB11D8A462
:100C8C004AEF06F04CEF06F04EEF06F0A2EF04F040
:100C9C00010EB76FAB51AA110BE1F60EA85D0F0E4A
:100CAC00A959D8A05CEF06F05EEF06F060EF06F0F5
:100CBC00020EB76FAB51AA110BE1F60EA85DFF0E39
:100CCC00A959D8A06CEF06F06EEF06F070EF06F0A5
:100CDC00030EB76F020EA825486E000EA921496EAF
:100CEC00000EAA214A6E000EAB214B6E20EE12F0C4
:100CFC00B851D926B951DA2248C0DEFF49C0DEFF0F
:100D0C004AC0DEFF4BC0DEFF20EE1AF0B851D926E8
:100D1C00B951DA22B1C0DEFFB2C0DEFFB3C0DEFFD4
:100D2C00B4C0DEFFA251B125486EA351B221496E69
:100D3C00000EB3214A6E000EB4214B6E20EE1EF055
:100D4C00B851D926B951DA2248C0DEFF49C0DEFFBE
:100D5C004AC0DEFF4BC0DEFF9C51B125486E9D5151
:100D6C00B221496E9E51B3214A6E9F51B4214B6EF4
:100D7C0020EE26F0B851D926B951DA2248C0DEFF50
:100D8C0049C0DEFF4AC0DEFF4BC0DEFF030EB719C1
:100D9C00D8A4D3EF06F0D5EF06F01BEF07F020EE4A
:100DAC0008F0B851D926B951DA22DE50DE10D8B489
:100DBC00E2EF06F0E4EF06F0E6EF06F0A2EF04F047
:100DCC0020EE5AF0B851D926B951DA2210EE22F0A1
:100DDC00B851E126B951E222DECFE6FFDECFE6FFC5
:100DEC00DECFE6FFDECFE6FF20EE12F0B851D926BB
:100DFC00B951DA22DECF48F0DECF49F0DECF4AF02F
:100E0C00DECF4BF0020ED890483649364A364B3678
:100E1C00E82E09EF07F048C096F049C097F04AC099
:100E2C0098F04BC099F0BAEF07F020EE08F0B851EB
:100E3C00D926B951DA22DE50DE10D8A428EF07F0FB
:100E4C002AEF07F02CEF07F0A2EF04F020EE1EF0D3
:100E5C00B851D926B951DA22DECF48F0DECF49F0AD
:100E6C00DECF4AF0DECF4BF0AD5148244C6EAE5184
:100E7C0049204D6EAF514A204E6EB0514B204F6EF3
:100E8C0020EE22F0B851D926B951DA224CC0DEFF3F
:100E9C004DC0DEFF4EC0DEFF4FC0DEFF020EB719A5
:100EAC00D8B45BEF07F05DEF07F0A3EF07F020EE8F
:100EBC0012F0B851D926B951DA22DECF48F0DECF84
:100ECC0049F0DECF4AF0DECF4BF0010E48144C6EE9
:100EDC00000E49144D6E000E4A144E6E000E4B144B
:100EEC004F6E20EE12F0B851D926B951DA22DECF6E
:100EFC0001F0DECF02F0DECF03F0DECF04F0030E04
:100F0C00056E000E066E000E076E000E086E1DECD0
:100F1C0031F0D89004320332023201324C500124A9
:100F2C000001966F4D500220976F4E500320986F22
:100F3C004F500420996FBAEF07F020EE12F0B85121
:100F4C00D926B951DA22DECF48F0DECF49F0DECF18
:100F5C004AF0DECF4BF0D8904834966F4934976FF7
:100F6C004A34986F4B34996FFF0E9625486E010EDC
:100F7C009721496E000E98214A6E000E99214B6EF6
:100F8C000A0ECEEF07F0D8904B324A324932483233
:100F9C00E82EC9EF07F020EE16F0B851D926B9515A
:100FAC00DA224850DE5C4950DE584A50DE584B502D
:100FBC00DE58D8B0E4EF07F0E6EF07F0E8EF07F003
:100FCC00A2EF04F020EE0EF0B851D926B951DA2276
:100FDC00FF0EDE6EFF0EDE6EFF0EDE6EFF0EDD6EA2
:100FEC00DD52DD5210EE0AF0B851E126B951E22281
:100FFC00DECFE6FFDECFE6FFDECFE6FFDECFE6FF9D
:10100C0020EE05F0B851D926B951DA22800EDF6EE8
:10101C00030EB719D8A415EF08F017EF08F0B2EFCC
:10102C0008F020EE5EF0B851D926B951DA22DE0470
:10103C00DE10D8A424EF08F026EF08F0B2EF08F089
:10104C00B8C030F0B9C031F0010EB125326E000ECF
:10105C00B221336E000EB321346E000EB421356E06
:10106C00F5EC2DF00009D8A43EEF08F040EF08F0A5
:10107C00B2EF08F0000120EE05F0B851D926B951B5
:10108C00DA22DF6A22EE2CF0B851D926B951DA22D5
:10109C00550EDE1807E1AA0EDE18D8A458EF08F09A
:1010AC005AEF08F0B2EF08F020EE2EF0B851D92626
:1010BC00B951DA22520EDE180DE1520EDE180AE199
:1010CC00610EDE1807E1410EDE18D8A470EF08F0AF
:1010DC0072EF08F0B2EF08F022EE12F0B851D926F8
:1010EC00B951DA22720EDE180DE1720EDE180AE129
:1010FC00410EDE1807E1610EDE18D8A488EF08F067
:10110C008AEF08F0B2EF08F022EE16F0B851D926AB
:10111C00B951DA2210EE0EF0B851E126B951E222A3
:10112C00DECFE6FFDECFE6FFDECFE6FFDECFE6FF6B
:10113C0022EE1AF0B851D926B951DA2210EE0AF083
:10114C00B851E126B951E222DECFE6FFDECFE6FF51
:10115C00DECFE6FFDECFE6FFB8C0D9FFB9C0DAFFBD
:10116C00B7C0DFFF0001F44BF52B20EE06F0B851B1
:10117C00D926B951DA22F4C0DEFFF5C0DDFF7BEFD2
:10118C0003F012006FC08DF070C08EF073C0D9FFE9
:10119C0074C0DAFFDE6ADD6A6DC002F06EC003F067
:1011AC006AEC2CF000018C6F8C51D8B4E0EF08F095
:1011BC00E2EF08F0E4EF08F00BEF0DF020EE05F095
:1011CC006D50D9266E50DA22DF50D8B4F0EF08F00B
:1011DC00F2EF08F0F4EF08F00BEF0DF020EE04F056
:1011EC006D50D9266E50DA22DFB2FFEF08F001EF16
:1011FC0009F003EF09F00BEF0DF020EE06F06D5047
:10120C00D9266E50DA2210EE06F06D50E1266E50A3
:10121C00E222E6CF84F0E6CF85F0E6CF86F0E6CF8B
:10122C0087F071508425886F72508521896F000E6C
:10123C0086218A6F000E87218B6FDE50885DDE5011
:10124C008959DE508A59DE508B59D8B030EF09F0ED
:10125C0032EF09F0CBEF0CF0000E726E000E716ED7
:10126C00CBEF0CF020EE06F06D50D9266E50DA2242
:10127C00FF0EDE14806F010EDE14816F000EDE1483
:10128C00826F000EDE14836F8051811182118311E5
:10129C00D8A453EF09F055EF09F020EF0CF020EE35
:1012AC0006F06D50D9266E50DA22DECF80F0DECFFC
:1012BC0081F0DECF82F0DECF83F00A0E6BEF09F007
:1012CC00D8908333823381338033E82E66EF09F074
:1012DC006DC0D9FF6EC0DAFF10EE02F0DE50E126D1
:1012EC00DD50E222E750846F840580158F6F8F519B
:1012FC00D8A483EF09F085EF09F053EF0AF020EE44
:10130C0006F06D50D9266E50DA22DE50DE10DE105B
:10131C00DE10D8A494EF09F096EF09F0CBEF09F0AA
:10132C0020EE0EF06D50D9266E50DA22DECF96F0FC
:10133C00DECF97F0DECF98F0DECF99F09651971173
:10134C0098119911D8A4ADEF09F0AFEF09F0EBEFBC
:10135C0009F06DC0D9FF6EC0DAFFDECF56F0DDCFDD
:10136C0057F0000E586E000E596E000E5A6E000E9D
:10137C005B6E3DEC1CF056C096F057C097F058C011
:10138C0098F059C099F0EBEF09F06DC0D9FF6EC021
:10139C00DAFFDECF56F0DDCF57F020EE12F06D50B5
:1013AC00D9266E50DA22DECF58F0DECF59F0DECFE0
:1013BC005AF0DECF5BF03DEC1CF056C096F057C0F7
:1013CC0097F058C098F059C099F0000196519711B8
:1013DC0098119911D8A4F5EF09F0F7EF09F0F9EF8E
:1013EC0009F0D4EF0CF09605971198119911D8A427
:1013FC0002EF0AF004EF0AF00EEF0AF020EE05F00F
:10140C006D50D9266E50DA22020EDF6E0BEF0DF006
:10141C0096290AE1972908E1982906E19929D8A487
:10142C001AEF0AF01CEF0AF026EF0AF020EE05F096
:10143C006D50D9266E50DA22010EDF6E0BEF0DF0D7
:10144C0020EE12F06D50D9266E50DA2296C0DEFFD7
:10145C0097C0DEFF98C0DEFF99C0DEFF20EE0EF0D5
:10146C006D50D9266E50DA22DE50DE10DE10DE1002
:10147C00D8A443EF0AF045EF0AF053EF0AF020EE40
:10148C000EF06D50D9266E50DA2296C0DEFF97C052
:10149C00DEFF98C0DEFF99C0DEFF20EE16F06D5027
:1014AC00D9266E50DA226DC0E1FF6EC0E2FF00EE6D
:1014BC002AF0E650E926E550EA22DE50EE180DE15E
:1014CC00DE50EE180AE1DE50EE1807E1DE50EE18A1
:1014DC00D8A473EF0AF075EF0AF091EF0AF06DC023
:1014EC00D9FF6EC0DAFFDECF1BF0DDCF1CF016EC9F
:1014FC0027F00009D8B485EF0AF087EF0AF091EFD6
:10150C000AF020EE05F06D50D9266E50DA22010E4D
:10151C00DF6E0BEF0DF06DC0D9FF6EC0DAFFDECFC2
:10152C000DF0DDCF0EF020EE12F06D50D9266E507E
:10153C00DA22DECF0FF0DECF10F0DECF11F0DECFEF
:10154C0012F031EC2DF00DC092F00EC093F00FC0E4
:10155C0094F010C095F000019251931194119511D3
:10156C00D8A4BBEF0AF0BDEF0AF0C7EF0AF020EEEB
:10157C0005F06D50D9266E50DA22020EDF6E0BEF9D
:10158C000DF08F519227000E93239423952371C055
:10159C0080F072C081F0090E826FD8908133803355
:1015AC00822FD3EF0AF080C090F081C091F090515F
:1015BC009111D8B4E4EF0AF0E6EF0AF0C9EF0BF0A2
:1015CC008F519025806F000E9121816F6DC0D9FFD6
:1015DC006EC0DAFF10EE02F0DE50E126DD50E222A2
:1015EC00E750826F836B8051825D81518359D8B0F3
:1015FC0002EF0BF004EF0BF016EF0BF06DC0D9FF00
:10160C006EC0DAFF10EE02F0DE50E126DD50E22271
:10161C00E750806F8F51805D906F916BD8A09107D0
:10162C008DC011F08EC012F092C013F093C014F064
:10163C0094C015F095C016F090C017F091C018F03A
:10164C006DC0D9FF6EC0DAFF10EE01F0DE50E1265E
:10165C00DD50E222E750A7EC24F00009D8B439EFB2
:10166C000BF03BEF0BF045EF0BF020EE05F06D505F
:10167C00D9266E50DA22010EDF6E0BEF0DF0000151
:10168C009051806F9151816F826B836B6DC0D9FFCC
:10169C006EC0DAFF10EE2AF0DE50E126DD50E222B9
:1016AC00E6CF84F0E6CF85F0E6CF86F0E6CF87F084
:1016BC009251845D886F93518559896F94518659E5
:1016CC008A6F955187598B6F8051885D81518959EB
:1016DC0082518A5983518B59D8B077EF0BF079EF3F
:1016EC000BF0B7EF0BF06DC0D9FF6EC0DAFFDECF99
:1016FC0080F0DDCF81F02E0E8025016E000E812151
:10170C00026E6DC0D9FF6EC0DAFF10EE2AF0DE500B
:10171C00E126DD50E222E6CF82F0E5CF83F0925154
:10172C00825F9351835B090ED89082378337E82E02
:10173C009AEF0BF082518D25036E83518E21046E2E
:10174C00020E066E000E056E0BEC30F06DC0D9FF6C
:10175C006EC0DAFF10EE04F0DE50E126DD50E2221E
:10176C00E76A90C080F091C081F0090ED89000011A
:10177C0080378137E82EBCEF0BF080C09AF081C027
:10178C009BF0ADEF0CF020EE0AF06D50D9266E50A8
:10179C00DA2210EE06F06D50E1266E50E222DE5099
:1017AC00E65CDE50E658DE50E658DE50E658D8A02F
:1017BC00E2EF0BF0E4EF0BF012EF0CF06DC0D9FF81
:1017CC006EC0DAFFDECF1BF0DDCF1CF016EC27F07D
:1017DC000009D8B4F4EF0BF0F6EF0BF000EF0CF0BF
:1017EC0020EE05F06D50D9266E50DA22010EDF6E18
:1017FC000BEF0DF06DC0D9FF6EC0DAFF10EE2AF0C2
:10180C00DE50E126DD50E22292C0E6FF93C0E6FFF7
:10181C0094C0E6FF95C0E6FF20EE16F06D50D92679
:10182C006E50DA2292C0DEFF93C0DEFF94C0DEFF62
:10183C0095C0DEFF20EE06F06D50D9266E50DA22F0
:10184C00DECF80F0DDCF81F0FF0E00018015826FBE
:10185C00010E8115836F825100089A6F8351D8A0B5
:10186C00E82A02089B6F9A51715C9B517258D8B050
:10187C0042EF0CF044EF0CF048EF0CF071C09AF012
:10188C0072C09BF06DC0D9FF6EC0DAFFDECF30F0B6
:10189C00DDCF31F020EE16F06D50D9266E50DA22E5
:1018AC00DECF32F0DECF33F0DECF34F0DECF35F0EA
:1018BC00F5EC2DF00009D8B466EF0CF068EF0CF0E5
:1018CC0072EF0CF020EE05F06D50D9266E50DA2236
:1018DC00010EDF6E0BEF0DF020EE06F06D50D926E9
:1018EC006E50DA22DECF80F0DDCF81F0FF0E0001EA
:1018FC008015826F010E8115836F6DC0D9FF6EC08C
:10190C00DAFFDECF84F0DDCF85F082518425866F3F
:10191C0083518521876F2E0E8625016E000E87213F
:10192C00026E8DC003F08EC004F09AC005F09BC00F
:10193C0006F00BEC30F06DC0D9FF6EC0DAFF10EE84
:10194C0004F0DE50E126DD50E222010EE76E0001CC
:10195C009A518D279B518E2320EE06F06D50D9267F
:10196C006E50DA229A51DE269B51DE22000EDE22C8
:10197C00DE2273C0D9FF74C0DAFF9A51DE269B5168
:10198C00DD229A51715E9B51725A71507210D8A41B
:10199C00D2EF0CF0D4EF0CF038EF09F020EE06F09B
:1019AC006D50D9266E50DA2210EE0AF06D50E126F9
:1019BC006E50E222DE50E65CDE50E658DE50E65811
:1019CC00DE50E658D8B0EDEF0CF0EFEF0CF003EF73
:1019DC000DF020EE06F06D50D9266E50DA2210EE86
:1019EC000AF06D50E1266E50E222DECFE6FFDECF2C
:1019FC00E6FFDECFE6FFDECFE6FF20EE04F06D5013
:101A0C00D9266E50DA22000EDB8A12006DC002F06D
:101A1C006EC003F06AEC2CF00001906F9051D8B4BA
:101A2C001AEF0DF01CEF0DF01EEF0DF09EEF10F005
:101A3C0020EE05F06D50D9266E50DA22DF50D8B466
:101A4C002AEF0DF02CEF0DF02EEF0DF09EEF10F0B5
:101A5C0020EE0AF06D50D9266E50DA226F50DE5C03
:101A6C007050DE587150DE587250DE58D8B041EFCD
:101A7C000DF043EF0DF05EEF0DF020EE04F06D5025
:101A8C00D9266E50DA22DFB24EEF0DF050EF0DF08A
:101A9C005EEF0DF020EE0AF06D50D9266E50DA2272
:101AAC00DECF6FF0DECF70F0DECF71F0DECF72F0F4
:101ABC0020EE06F06D50D9266E50DA22DECF91F072
:101ACC00DECF92F0DECF93F0DECF94F0000E956F68
:101ADC00000E966F000E976F000E986F20EE06F0BA
:101AEC006D50D9266E50DA2295C0DEFF96C0DEFF0F
:101AFC0097C0DEFF98C0DEFF6F507010711072102F
:101B0C00D8B48BEF0DF08DEF0DF024EF10F06DC00D
:101B1C00D9FF6EC0DAFF10EE02F0DE50E126DD5088
:101B2C00E222E750806F80C081F0826B836B846B04
:101B3C00090ED8908137823783378437E82E9FEF90
:101B4C000DF081C099F082C09AF083C09BF084C0E4
:101B5C009CF09151921193119411D8B4B8EF0DF0EF
:101B6C00BAEF0DF057EF0EF0FF0E6F24016EFF0E63
:101B7C007020026EFF0E7120036EFF0E7220046E39
:101B8C0099C005F09AC006F09BC007F09CC008F005
:101B9C006BEC2FF001C080F002C081F003C082F02A
:101BAC0004C083F0FF0E00019125016EFF0E9221FF
:101BBC00026EFF0E9321036EFF0E9421046E99C0EA
:101BCC0005F09AC006F09BC007F09CC008F06BECC7
:101BDC002FF001500001805D025081590350825951
:101BEC0004508359D8A0FDEF0DF0FFEF0DF057EF27
:101BFC000EF0FF0E9925806FFF0E9A21816FFF0E5C
:101C0C009B21826FFF0E9C21836F801D846F811D31
:101C1C00856F821D866F831D876FFF0E9125886FE0
:101C2C00FF0E9221896FFF0E93218A6FFF0E942174
:101C3C008B6F845188158C6F855189158D6F8651EA
:101C4C008A158E6F87518B158F6F20EE06F06D50B5
:101C5C00D9266E50DA228CC0DEFF8DC0DEFF8EC01E
:101C6C00DEFF8FC0DEFF20EE06F06D50D9266E50E1
:101C7C00DA22DE506F5EDE50705ADE50715ADD5043
:101C8C00725A20EE12F06D50D9266E50DA22DECF49
:101C9C009DF0DECF9EF0DECF9FF0DECFA0F0D4EF34
:101CAC000EF020EE0EF06D50D9266E50DA22DECFFB
:101CBC009DF0DECF9EF0DECF9FF0DECFA0F09D51E9
:101CCC009E119F11A011D8A46EEF0EF070EF0EF0C4
:101CDC00C6EF0EF06DC0D9FF6EC0DAFFDECF56F046
:101CEC00DDCF57F0000E586E000E596E000E5A6E76
:101CFC00000E5B6E3DEC1CF056C09DF057C09EF084
:101D0C0058C09FF059C0A0F000019D059E119F1175
:101D1C00A011D8A494EF0EF096EF0EF0A0EF0EF0F9
:101D2C0020EE05F06D50D9266E50DA22020EDF6ED1
:101D3C009EEF10F09D290AE19E2908E19F2906E1FA
:101D4C00A029D8A4ACEF0EF0AEEF0EF0B8EF0EF069
:101D5C0020EE05F06D50D9266E50DA22010EDF6EA2
:101D6C009EEF10F020EE0EF06D50D9266E50DA2258
:101D7C009DC0DEFF9EC0DEFF9FC0DEFFA0C0DEFF69
:101D8C0020EE12F06D50D9266E50DA229DC0DEFF87
:101D9C009EC0DEFF9FC0DEFFA0C0DEFF9D519E11E6
:101DAC009F11A011D8B4DDEF0EF0DFEF0EF024EF91
:101DBC0010F0A5EF0FF020EE04F06D50D9266E5008
:101DCC00DA22DFA2ECEF0EF0EEEF0EF01EEF0FF0CA
:101DDC006DC0D9FF6EC0DAFFDECF56F0DDCF57F005
:101DEC009DC058F09EC059F09FC05AF0A0C05BF047
:101DFC003DEC1CF056C09DF057C09EF058C09FF0B3
:101E0C0059C0A0F000019D519E119F11A011D8A4A2
:101E1C0012EF0FF014EF0FF038EF0FF099C06FF0D6
:101E2C009AC070F09BC071F09CC072F0B4EF0FF0D0
:101E3C006DC0D9FF6EC0DAFFDECF3BF0DDCF3CF0DA
:101E4C009DC03DF09EC03EF09FC03FF0A0C040F052
:101E5C004EEC1AF03BC09DF03CC09EF03DC09FF094
:101E6C003EC0A0F000019D290AE19E2908E19F29AE
:101E7C0006E1A029D8A445EF0FF047EF0FF051EF82
:101E8C000FF020EE05F06D50D9266E50DA22010EBF
:101E9C00DF6E9EEF10F0A0519F119E1109E1020E12
:101EAC009D5DD8A05CEF0FF05EEF0FF077EF0FF0B9
:101EBC006DC0D9FF6EC0DAFF10EE12F0DE50E126D5
:101ECC00DD50E222E6509D5DE6509E59E6509F594A
:101EDC00E650A059D8A075EF0FF077EF0FF081EF17
:101EEC000FF020EE05F06D50D9266E50DA22020E5E
:101EFC00DF6E9EEF10F020EE12F06D50D9266E5072
:101F0C00DA229DC0DEFF9EC0DEFF9FC0DEFFA0C0B8
:101F1C00DEFF20EE06F06D50D9266E50DA22995174
:101F2C00DE269A51DE229B51DE229C51DE229951F3
:101F3C006F5E9A51705A9B51715A9C51725A6F50E4
:101F4C00995D70509A5971509B5972509C59D8A0F8
:101F5C00B2EF0FF0B4EF0FF0E1EF0EF020EE06F061
:101F6C006D50D9266E50DA226F50DE267050DE226C
:101F7C007150DE227250DE22FF0E6F14806F010E44
:101F8C007014816F000E7114826F000E7214836FC7
:101F9C008051811182118311D8B4D7EF0FF0D9EF92
:101FAC000FF024EF10F06DC0D9FF6EC0DAFFDECF5A
:101FBC000DF0DDCF0EF09DC00FF09EC010F09FC055
:101FCC0011F0A0C012F031EC2DF00DC095F00EC048
:101FDC0096F00FC097F010C098F000019551961133
:101FEC0097119811D8A4FDEF0FF0FFEF0FF009EF48
:101FFC0010F020EE05F06D50D9266E50DA22020E4C
:10200C00DF6E9EEF10F06FC080F070C081F071C079
:10201C0082F072C083F00A0E19EF10F0D89083335F
:10202C00823381338033E82E14EF10F080519527E2
:10203C0081519623825197238351982320EE06F0E9
:10204C006D50D9266E50DA22FF0EDE14806F010E11
:10205C00DE14816F000EDE14826F000EDE14836FAF
:10206C008051811182118311D8B43FEF10F041EFF0
:10207C0010F067EF10F020EE16F06D50D9266E5070
:10208C00DA229551DE180FE19651DE180CE19751CA
:10209C00DE1809E19851DE18D8B457EF10F059EF5B
:1020AC0010F067EF10F020EE16F06D50D9266E5040
:1020BC00DA2295C0DEFF96C0DEFF97C0DEFF98C027
:1020CC00DEFF20EE06F06D50D9266E50DA2210EEAF
:1020DC000AF06D50E1266E50E222DE50E65CDE50D6
:1020EC00E658DE50E658DE50E658D8B080EF10F0D7
:1020FC0082EF10F09EEF10F020EE06F06D50D92616
:10210C006E50DA2210EE0AF06D50E1266E50E2228B
:10211C00DECFE6FFDECFE6FFDECFE6FFDECFE6FF6B
:10212C0020EE04F06D50D9266E50DA22000EDB8AB8
:10213C001200306E12C037F013C038F03050D8B4E3
:10214C00AAEF10F0ACEF10F0AFEF10F0040E97EF19
:10215C0013F0010E356E0001FAA1B7EF10F0B9EFD4
:10216C0010F071EF13F0030E97EF13F0C7EC32F091
:10217C000009D8B4C4EF10F0C6EF10F094EF13F0D0
:10218C00356A94EF13F0000E0B6E000E0C6E000E01
:10219C000D6E000E0E6E090EAFEC31F00009D8A4D6
:1021AC00DAEF10F0DCEF10F094EF13F0200E026E6B
:1021BC00036A000E056E100E046EBDEC2FF00009C4
:1021CC00D8B4EBEF10F0EDEF10F094EF13F02044D7
:1021DC00E846030BE806D8A4F6EF10F0F8EF10F081
:1021EC0042EF11F027C014F03F0E141614C015F076
:1021FC00166A176A186A16C018F015C017F0166A16
:10220C00156A28501A6E2950196E195015241B6E18
:10221C001A5016201C6E000E17201D6E000E182072
:10222C001E6E010E1B24316E000E1C20326E000E31
:10223C001D20336E000E1E20346E31C014F032C0DF
:10224C0015F033C016F034C017F00A0ED8901436BF
:10225C00153616361736E82E2CEF11F012C0D9FFB2
:10226C0013C0DAFF14C0DEFF15C0DEFF16C0DEFFA0
:10227C0017C0DEFFC6EF10F0146A2AAE01D0142A84
:10228C00010E141625C015F00F0E15162950030B50
:10229C00020DF35015241424020F366E2650030B36
:1022AC00146E156A0A0ED89014361536E82E59EFAE
:1022BC0011F02750166E176AD89016361736D8902C
:1022CC001636173628C018F0060E196ED89018322C
:1022DC00192E6CEF11F0185016241A6E000E1720E0
:1022EC001B6E14501A241C6E15501B201D6E010EF3
:1022FC001C26000E1D221CC031F01DC032F0336AAA
:10230C00346A36C014F0F70E142631C015F032C002
:10231C0016F033C017F034C018F0142A9BEF11F0EC
:10232C00D8901536163617361836142E96EF11F03F
:10233C0012C0D9FF13C0DAFF15C0DEFF16C0DEFFD6
:10234C0017C0DEFF18C0DEFFC6EF10F0F9A5B1EF25
:10235C0011F0B3EF11F00DEF12F0000E0B6E000E3A
:10236C000C6E000E0D6E000E0E6E8D0EAFEC31F07D
:10237C000009D8A4C4EF11F0C6EF11F094EF13F0DC
:10238C00FF0EFDEC32F0200E026E036A000E056E9D
:10239C00100E046EBDEC2FF00009D8B4D8EF11F07C
:1023AC00DAEF11F094EF13F0300E366EE2EF11F01D
:1023BC00FF0EFDEC32F036063650D8A4E8EF11F0E3
:1023CC00EAEF11F0DEEF11F02AC014F0143A0F0E00
:1023DC001416100E156E166A176A186A142AFCEF7A
:1023EC0011F0D8901536163617361836142EF7EF1E
:1023FC0011F012C0D9FF13C0DAFF15C0DEFF16C0F2
:10240C00DEFF17C0DEFF18C0DEFFC6EF10F0000EB7
:10241C000B6E000E0C6E000E0D6E000E0E6E090E85
:10242C00AFEC31F00009D8A41EEF12F020EF12F03F
:10243C0094EF13F0200E026E036A000E056E100E60
:10244C00046EBDEC2FF00009D8B42FEF12F031EF71
:10245C0012F094EF13F00001F9A337EF12F039EFFB
:10246C0012F076EF12F02DC014F0060E156ED89007
:10247C001432152E3DEF12F0FF0E14262A503F0B8E
:10248C00166E176AD89016361736186A2BAE01D00E
:10249C00182A010E181618501626000E1722010EB7
:1024AC001626000E1722142A5FEF12F0D89016365B
:1024BC001736142E5CEF12F01650196E17501A6E58
:1024CC001B6A1C6A12C0D9FF13C0DAFF19C0DEFFE9
:1024DC001AC0DEFF1BC0DEFF1CC0DEFFC6EF10F013
:1024EC002B50030B146E156AD89014361536D890F1
:1024FC0014361536D890143615362BC016F0050E3A
:10250C00176ED8901632172E87EF12F0070E16168C
:10251C0016501426000E1522010E1426000E15223C
:10252C002A40E8423F0B1F0B186E196A010E182641
:10253C00000E192214501802F3CF1AF0F4CF1BF02E
:10254C001902F3501B2615501802F3501B261A5073
:10255C001C6E1B501D6E1E6A1F6A12C0D9FF13C061
:10256C00DAFF1CC0DEFF1DC0DEFF1EC0DEFF1FC079
:10257C00DEFFC6EF10F037C0D9FF38C0DAFFF9C064
:10258C00DFFFC6EF10F0000E0B6E000E0C6E000E8F
:10259C000D6E000E0E6E090EAFEC31F00009D8A4D2
:1025AC00DAEF12F0DCEF12F094EF13F037C002F018
:1025BC0038C003F0000E056E100E046EBDEC2FF04B
:1025CC000009D8B4ECEF12F0EEEF12F094EF13F028
:1025DC00C6EF10F0000E0B6E000E0C6E000E0D6EA2
:1025EC00000E0E6E0A0EAFEC31F00009D8A401EF0C
:1025FC0013F003EF13F094EF13F037C002F038C070
:10260C0003F0000E056E100E046EBDEC2FF00009E9
:10261C00D8B413EF13F015EF13F094EF13F0C6EFDB
:10262C0010F0000E0B6E000E0C6E000E0D6E000EF8
:10263C000E6E3A0EAFEC31F00009D8A428EF13F06F
:10264C002AEF13F094EF13F0040E366E39EF13F0FB
:10265C00FF0EFDEC32F037C0D9FF38C0DAFFDF6E69
:10266C00374A382A36063650D8A43FEF13F041EFDC
:10267C0013F02EEF13F0C6EF10F0000E0B6E000EE1
:10268C000C6E000E0D6E000E0E6E8D0EAFEC31F05A
:10269C000009D8A454EF13F056EF13F094EF13F095
:1026AC00FF0EFDEC32F037C002F038C003F0000E24
:1026BC00056E400E046EBDEC2FF00009D8B469EF26
:1026CC0013F06BEF13F094EF13F0C6EF10F0040E51
:1026DC00356E94EF13F01150000AD8B4BCEF10F023
:1026EC00010AD8B4C9EF10F0020AD8B4ACEF11F05B
:1026FC00090AD8B4C1EF12F0010AD8B4C9EF12F02C
:10270C00070AD8B4F0EF12F0010AD8B417EF13F09F
:10271C00030AD8B443EF13F06DEF13F02DEC33F044
:10272C003550120040503F103E1009E1020E3D5C46
:10273C00D8A0A3EF13F0A5EF13F0BAEF13F020EE2F
:10274C0012F03B50D9263C50DA22DE503D5CDE5074
:10275C003E58DE503F58DE504058D8A0B8EF13F02A
:10276C00BAEF13F0CBEF15F0020E536EDEEF15F04F
:10277C003DC051F03EC052F0D8905230466E5130B0
:10278C00456E45505126465052223BC030F03CC05D
:10279C0031F020EE1EF03B50D9263C50DA22DECF31
:1027AC0045F0DECF46F0DECF47F0DECF48F051C02B
:1027BC0049F052C04AF0090E4B6ED8904A32493259
:1027CC004B2EE3EF13F049504524326E4A5046200D
:1027DC00336E000E4720346E000E4820356EF5EC3B
:1027EC002DF0536E5350D8B4FEEF13F000EF14F0ED
:1027FC0002EF14F0DEEF15F0FF0E5114456E010ED2
:10280C005214466E45503B24476E46503C20486E51
:10281C002E0E4724546E000E4820556E514A522AF3
:10282C003DB01BEF14F01DEF14F022EF14F041C07B
:10283C004DF04E6A3CEF14F04150456E466A453AF5
:10284C00463AF00E461645500F0B4612F00E451642
:10285C0054C0D9FF55C0DAFFDF500F0B476E486AE2
:10286C00455047104D6E465048104E6E54C0D9FF1F
:10287C0055C0DAFF4DC0DFFF20EE04F03B50D926E7
:10288C003C50DA22010EDF6E3BC030F03CC031F020
:10289C0020EE1EF03B50D9263C50DA22DECF45F01C
:1028AC00DECF46F0DECF47F0DECF48F051C049F026
:1028BC0052C04AF0090E4B6ED8904A3249324B2E18
:1028CC0062EF14F049504524326E4A504620336E64
:1028DC00000E4720346E000E4820356EF5EC2DF0BE
:1028EC00536E5350D8B47DEF14F07FEF14F081EF9A
:1028FC0014F0DEEF15F0FF0E5114456E010E52145C
:10290C00466E45503B24476E46503C20486E2E0E7A
:10291C004724546E000E4820556E3DB098EF14F0CD
:10292C009AEF14F0B8EF14F041C045F042C046F0F5
:10293C0043C047F044C048F046C045F047C046F09D
:10294C0048C047F0486A0F0E451654C0D9FF55C011
:10295C00DAFFDF50F00B4510496E49504F6E506A4C
:10296C00CEEF14F041C045F042C046F043C047F0F2
:10297C0044C048F0050EC8EF14F0D89048324732E6
:10298C0046324532E82EC3EF14F045504F6E506A74
:10299C0054C0D9FF55C0DAFF4FC0DFFF20EE04F062
:1029AC003B50D9263C50DA22010EDF6EDEEF15F0DB
:1029BC003BC030F03CC031F020EE1EF03B50D9262D
:1029CC003C50DA22DECF45F0DECF46F0DECF47F0CA
:1029DC00DECF48F03DC049F03EC04AF03FC04BF05E
:1029EC0040C04CF04AC049F04BC04AF04CC04BF0D0
:1029FC004C6A45504924326E46504A20336E47503B
:102A0C004B20346E48504C20356EF5EC2DF0536E47
:102A1C005350D8B414EF15F016EF15F018EF15F05D
:102A2C00DEEF15F03DC045F03EC046F0D89045367F
:102A3C004636FF0E4514476E010E4614486E47503D
:102A4C003B24496E48503C204A6E2E0E4924546E4D
:102A5C00000E4A20556E54C0D9FF55C0DAFF41C054
:102A6C00DEFF42C0DDFF20EE04F03B50D9263C5087
:102A7C00DA22010EDF6EDEEF15F03BC030F03CC009
:102A8C0031F020EE1EF03B50D9263C50DA22DECF3E
:102A9C0045F0DECF46F0DECF47F0DECF48F03DC04C
:102AAC0049F03EC04AF03FC04BF040C04CF0080E1D
:102ABC0065EF15F0D8904C324B324A324932E82E41
:102ACC0060EF15F045504924326E46504A20336E63
:102ADC0047504B20346E48504C20356EF5EC2DF0A1
:102AEC00536E5350D8B47DEF15F07FEF15F081EF96
:102AFC0015F0DEEF15F03DC045F03EC046F0D89025
:102B0C0045364636D89045364636FF0E4514476E48
:102B1C00010E4614486E47503B24496E48503C20E9
:102B2C004A6E2E0E4924546E000E4A20556E54C027
:102B3C00D9FF55C0DAFF000EDE14456E000EDE1410
:102B4C00466E000EDE14476EF00EDE14486E4550D5
:102B5C00411246504212475043124850441254C03E
:102B6C00D9FF55C0DAFF41C0DEFF42C0DEFF43C0D3
:102B7C00DEFF44C0DEFF20EE04F03B50D9263C5073
:102B8C00DA22010EDF6EDEEF15F03BC0D9FF3CC040
:102B9C00DAFFDF50010AD8B4BEEF13F0030AD8B441
:102BAC00DEEF14F0010AD8B443EF15F0BAEF13F0CE
:102BBC00535012006D50D96EDA6A040ED926DECF4E
:102BCC0070F0DDCF71F0010E70247A6E000E712062
:102BDC007B6E7A507B10D8B4F6EF15F0F8EF15F049
:102BEC0008EF16F06D50D96EDA6A0E0ED926DE504B
:102BFC00DE10DE10DE10D8A406EF16F008EF16F08B
:102C0C000BEF16F0040E24EF18F00F0E7A14706E02
:102C1C00000E7B14716E70507110D8A418EF16F062
:102C2C001AEF16F0F3EF17F06D50D96EDA6A0E0E3C
:102C3C00D926DE2A000EDE22DE22DE226D50D96E6F
:102C4C00DA6A0A0ED926DE50DE10DE10DE10D8A4A9
:102C5C0032EF16F034EF16F04AEF16F06D50D96ED5
:102C6C00DA6A10EE08F0DE50E126DD50E222E65082
:102C7C007A5CE6507B58D8A046EF16F048EF16F079
:102C8C00F3EF17F008EF16F07AC070F07BC071F01C
:102C9C00040E726ED89071327032722E50EF16F0A4
:102CAC006D50D96EDA6A10EE02F0DE50E126DD507E
:102CBC00E222E750736EFF0E7324746E756AFF0E7A
:102CCC00752270507414766E71507514776E765040
:102CDC007710D8A474EF16F076EF16F0F3EF17F028
:102CEC006D50D96EDA6ADECF3BF0DDCF3CF06D5023
:102CFC00D96EDA6A0A0ED926DECF3DF0DECF3EF071
:102D0C00DECF3FF0DECF40F04EEC1AF03BC07CF053
:102D1C003CC07DF03DC07EF03EC07FF07F507E1009
:102D2C007D1007E1020E7C5CD8B09FEF16F0A1EF8E
:102D3C0016F0A4EF16F0020E24EF18F07C280AE12E
:102D4C007D2808E17E2806E17F28D8A4B0EF16F094
:102D5C00B2EF16F0B5EF16F0010E24EF18F06D502F
:102D6C00D96EDA6A10EE12F0DE50E126DD50E22266
:102D7C00E6507C5CE6507D58E6507E58E6507F5815
:102D8C00D8A0CBEF16F0CDEF16F0C8EF17F06E50C1
:102D9C006F10D8A4D4EF16F0D6EF16F0D8EF16F0CB
:102DAC0008EF16F06D50D96EDA6ADECF56F0DDCF33
:102DBC0057F06D50D96EDA6A0A0ED926DECF58F06C
:102DCC00DECF59F0DECF5AF0DECF5BF03DEC1CF0DD
:102DDC0056C07CF057C07DF058C07EF059C07FF0D3
:102DEC007C507D107E107F10D8A4FFEF16F001EF01
:102DFC0017F004EF17F0070E24EF18F07C047D1089
:102E0C007E107F10D8A40DEF17F00FEF17F011EF15
:102E1C0017F0A1EF16F07C280AE17D2808E17E2846
:102E2C0006E17F28D8A41DEF17F01FEF17F021EF54
:102E3C0017F0B2EF16F06D50D96EDA6ADECF1BF0D8
:102E4C00DDCF1CF016EC27F00009D8B430EF17F0EA
:102E5C0032EF17F034EF17F0B2EF16F06D50D96E69
:102E6C00DA6ADECF70F0DDCF71F02E0E7024016EB9
:102E7C00000E7120026E000E046E000E036E020E28
:102E8C00066E000E056E61EC32F06D50D96EDA6A8A
:102E9C00DECF0DF0DDCF0EF07CC00FF07DC010F05A
:102EAC007EC011F07FC012F031EC2DF06D50D96E58
:102EBC00DA6A10EE2AF0DE50E126DD50E2220DC077
:102ECC00E6FF0EC0E6FF0FC0E6FF10C0E6FF000EE7
:102EDC00796E000E786EA1EF17F06D50D96EDA6A2C
:102EEC0010EE04F0DE50E126DD50E222010EE76E1A
:102EFC006D50D96EDA6ADECF1BF0DDCF1CF016EC0C
:102F0C0027F00009D8B48DEF17F08FEF17F091EF81
:102F1C0017F0B2EF16F06D50D96EDA6A10EE2AF097
:102F2C00DE50E126DD50E222E62A000EE622E62201
:102F3C00E622784A792A6D50D96EDA6A10EE02F0E0
:102F4C00DE50E126DD50E222E750706E716A70505F
:102F5C00785C71507958D8A0B6EF17F0B8EF17F02D
:102F6C0073EF17F06D50D96EDA6A10EE2AF0DE505E
:102F7C00E126DD50E2227850E65E7950E65A000EEA
:102F8C00E65AE65A6D50D96EDA6A0A0ED9267CC01A
:102F9C00DEFF7DC0DEFF7EC0DEFF7FC0DEFF6D503A
:102FAC00D96EDA6ADECF0DF0DDCF0EF07CC00FF0FB
:102FBC007DC010F07EC011F07FC012F031EC2DF00E
:102FCC006D50D96EDA6A0E0ED9260DC0DEFF0EC01A
:102FDC00DEFF0FC0DEFF10C0DEFF6D50D96EDA6A67
:102FEC00040ED9267AC0DEFF7BC0DDFF0F0E7A14EB
:102FFC00706E000E7B14716E050ED89070367136A3
:10300C00E82E03EF18F06D50D96EDA6ADECF72F04D
:10301C00DDCF73F070507224746E71507320756E26
:10302C002E0E7426000E75226D50D96EDA6A120EB1
:10303C00D92674C0DEFF75C0DDFF000E1200000142
:10304C00BA51BB11D8A42DEF18F02FEF18F032EFB6
:10305C0018F0090E4DEF1AF0BAC0D9FFBBC0DAFF59
:10306C00DE6ADD6AF6C0D9F0F7C0DAF01F0EBD17C4
:10307C00D90E456EBC0E466EBD51FE0B476E16EC5E
:10308C0003F00001D66FD651D8A44FEF18F051EFD2
:10309C0018F04CEF1AF0C20EED6FD90E856FBCC054
:1030AC0086F04EEC26F00001D66FEBC0D7F0ECC0EA
:1030BC00D8F0D651D8A465EF18F067EF18F072EF7E
:1030CC0018F0D751D811D8A46EEF18F070EF18F093
:1030DC0072EF18F0060ED66FBDC0BEF01C0EBE17F8
:1030EC00D8B47BEF18F07DEF18F07BEF19F0D651C8
:1030FC00D8B483EF18F085EF18F09BEF18F0040E9E
:10310C00D619D8A48CEF18F08EEF18F094EF18F0B5
:10311C00D90E896FFCEC2BF00001D66FBD87EBC08C
:10312C00D7F0ECC0D8F0B9EF18F020EE0BF0D75177
:10313C00D926D851DA22DF50BE6F110EBE17D8B483
:10314C00AAEF18F0ACEF18F0B0EF18F0070ED66F2E
:10315C00B9EF18F0BDA5B5EF18F0B7EF18F0B9EF4F
:10316C0018F0080ED66FD651D8A4BFEF18F0C1EFE7
:10317C0018F0AAEF19F0BDA7C6EF18F0C8EF18F0B9
:10318C00AAEF19F020EE0EF0D751D926D851DA2239
:10319C00000EDE6E000EDE6E210EDE6E460EDD6E55
:1031AC0020EE16F0D751D926D851DA22000EDE6E59
:1031BC00000EDE6E210EDE6E460EDD6E20EE0BF086
:1031CC00D751D926D851DA22DF6A20EE1CF0D7511C
:1031DC00D926D851DA22DE6ADE6ADE6ADD6AD9C007
:1031EC0001F0DAC002F0D7C003F0D8C004F0A0ECB4
:1031FC0030F001C0CEF002C0CFF003C0D0F004C05C
:10320C00D1F0D7C001F0D8C002F0000E036E000E52
:10321C00046E000E056E000E066EB2EC32F000016C
:10322C0020EE04F0D951D926DA51DA22010EDF6EE4
:10323C00CE51CF11D011D111D8B427EF19F029EFFD
:10324C0019F0AAEF19F020EE2AF0D951D926DA514B
:10325C00DA22DECFD2F0DECFD3F0DECFD4F0DECF69
:10326C00D5F0D9C056F0DAC057F0CEC058F0CFC068
:10327C0059F0D0C05AF0D1C05BF07CEC25F00001C5
:10328C00D66FD651D8A44DEF19F04FEF19F0AAEF25
:10329C0019F0FF0ECE25BE6FFF0ECF21BF6FFF0EB4
:1032AC00D021C06FFF0ED121C16F20EE0AF0D95191
:1032BC00D926DA51DA22BEC0DEFFBFC0DEFFC0C0A5
:1032CC00DEFFC1C0DEFFD9C030F0DAC031F0D2C0B1
:1032DC0032F0D3C033F0D4C034F0D5C035F0F5ECB7
:1032EC002DF00001D66FAAEF19F0D651D8A481EFBA
:1032FC0019F083EF19F0AAEF19F020EE0BF0D7516B
:10330C00D926D851DA22DFA88EEF19F090EF19F0F8
:10331C0094EF19F0040ED66FAAEF19F0BDA399EF34
:10332C0019F09BEF19F0AAEF19F020EE0BF0D75122
:10333C00D926D851DA22DFA0A6EF19F0A8EF19F0A0
:10334C00AAEF19F0070ED66FD651D8A4B0EF19F02A
:10335C00B2EF19F0D8EF19F0BDA7B7EF19F0B9EF2C
:10336C0019F0BAEF19F0BD8B20EE2AF0D951D926FD
:10337C00DA51DA2210EE1AF0BA51E126BB51E222F0
:10338C00DECFE6FFDECFE6FFDECFE6FFDECFE6FFE9
:10339C0020EE1EF0BA51D926BB51DA22D7C0DEFF7F
:1033AC00D8C0DDFFD651D8A4DEEF19F0E0EF19F04C
:1033BC004CEF1AF020EE04F0BA51D926BB51DA22A8
:1033CC00BDC0DFFF20EE05F0BA51D926BB51DA2281
:1033DC00DF6AD9C001F0DAC002F0D7C003F0D8C060
:1033EC0004F0A0EC30F0000120EE0EF0BA51D9261A
:1033FC00BB51DA2201C0DEFF02C0DEFF03C0DEFFDC
:10340C0004C0DEFF20EE1CF0D751D926D851DA22A9
:10341C0010EE0AF0BA51E126BB51E222DECFE6FFF4
:10342C00DECFE6FFDECFE6FFDECFE6FF20EE06F0D6
:10343C00BA51D926BB51DA22DE6ADE6ADE6ADD6A4F
:10344C0020EE16F0BA51D926BB51DA22DE6ADE6ABA
:10345C00DE6ADD6ABAC0D9FFBBC0DAFFD9C0DEFFB5
:10346C00DAC0DDFFBAC0D9FFBBC0DAFF10EE06F040
:10347C00DE50E126DD50E22220EE02F0BA51D926D0
:10348C00BB51DA22E6CFDEFFE5CFDDFFD6511200CD
:10349C0040503F103E1009E1020E3D5CD8A059EFA0
:1034AC001AF05BEF1AF070EF1AF020EE12F03B50AE
:1034BC00D9263C50DA22DE503D5CDE503E58DE50C0
:1034CC003F58DE504058D8A06EEF1AF070EF1AF04B
:1034DC007AEF1AF0010E4B6E000E4C6E000E4D6E14
:1034EC00000E4E6E34EF1CF04B684C684D684E6805
:1034FC0021EF1CF03DC053F03EC054F0D890543036
:10350C00426E5330416E41505326425054223BC0C0
:10351C0030F03CC031F020EE1EF03B50D9263C5030
:10352C00DA22DECF41F0DECF42F0DECF43F0DECF49
:10353C0044F053C045F054C046F0090E476ED89085
:10354C0046324532472EA5EF1AF045504124326ED3
:10355C0046504220336E000E4320346E000E442041
:10356C00356EF5EC2DF00009D8B4BFEF1AF0C1EFB1
:10357C001AF0C3EF1AF034EF1CF0FF0E5314416E27
:10358C00010E5414426E41503B24436E42503C2079
:10359C00446E2E0E4324D96E000E4420DA6EDF509A
:1035AC00456E45504F6E506A534A542A3BC030F01A
:1035BC003CC031F020EE1EF03B50D9263C50DA22B4
:1035CC00DECF41F0DECF42F0DECF43F0DECF44F071
:1035DC0053C045F054C046F0090E476ED8904632A1
:1035EC004532472EF4EF1AF045504124326E4650C6
:1035FC004220336E000E4320346E000E4420356E94
:10360C00F5EC2DF00009D8B40EEF1BF010EF1BF009
:10361C0012EF1BF034EF1CF0FF0E5314416E010E31
:10362C005414426E41503B24436E42503C20446E35
:10363C002E0E4324D96E000E4420DA6EDF50456EF8
:10364C004550476E466A46504F12475050123DB097
:10365C0032EF1BF034EF1BF03CEF1BF0FF0E4F145E
:10366C00496E0F0E50144A6E4CEF1BF04FC041F0D8
:10367C0050C042F0040E436ED89042324132432E79
:10368C0042EF1BF041C049F042C04AF049C04BF038
:10369C004AC04CF04D6A4E6A34EF1CF03BC030F01F
:1036AC003CC031F020EE1EF03B50D9263C50DA22C3
:1036BC00DECF41F0DECF42F0DECF43F0DECF44F080
:1036CC003DC045F03EC046F03FC047F040C048F01A
:1036DC0046C045F047C046F048C047F0486A4150E4
:1036EC004524326E42504620336E43504720346E90
:1036FC0044504820356EF5EC2DF00009D8B489EF14
:10370C001BF08BEF1BF08DEF1BF034EF1CF03DC06A
:10371C0041F03EC042F0D89041364236FF0E411483
:10372C00436E010E4214446E43503B24456E44508C
:10373C003C20466E2E0E4524516E000E4620526ED5
:10374C0051C0D9FF52C0DAFFDECF41F0DDCF42F0DD
:10375C0041C04BF042C04CF04D6A4E6A34EF1CF045
:10376C003BC030F03CC031F020EE1EF03B50D9266F
:10377C003C50DA22DECF41F0DECF42F0DECF43F018
:10378C00DECF44F03DC045F03EC046F03FC047F0B0
:10379C0040C048F0080ED8EF1BF0D89048324732A2
:1037AC0046324532E82ED3EF1BF041504524326EA1
:1037BC0042504620336E43504720346E44504820CC
:1037CC00356EF5EC2DF00009D8B4EFEF1BF0F1EFEE
:1037DC001BF0F3EF1BF034EF1CF03DC041F03EC08A
:1037EC0042F0D89041364236D89041364236FF0EE0
:1037FC004114436E010E4214446E43503B24456EFB
:10380C0044503C20466E2E0E4524516E000E462030
:10381C00526E51C0D9FF52C0DAFFFF0EDE144B6E50
:10382C00FF0EDE144C6EFF0EDE144D6E0F0EDE140A
:10383C004E6E34EF1CF03BC0D9FF3CC0DAFFDF50BA
:10384C00010AD8B480EF1AF0030AD8B454EF1BF075
:10385C00010AD8B4B6EF1BF070EF1AF04BC03BF076
:10386C004CC03CF04DC03DF04EC03EF012005850E4
:10387C0059105A105B10D8A446EF1CF048EF1CF0FE
:10388C0080EF1CF020EE0AF05650D9265750DA2261
:10389C00DECF61F0DECF62F0DECF63F0DECF64F01E
:1038AC006150621063106410D8B45FEF1CF061EFCC
:1038BC001CF076EF1CF020EE12F05650D926575023
:1038CC00DA22DE50615CDE506258DE506358DE5006
:1038DC006458D8A074EF1CF076EF1CF0E4EF1CF0E9
:1038EC00010E616E000E626E000E636E000E646E51
:1038FC00E4EF1CF056C03BF057C03CF058C03DF014
:10390C0059C03EF05AC03FF05BC040F04EEC1AF08C
:10391C003BC069F03CC06AF03DC06BF03EC06CF03F
:10392C006C506B106A1007E1020E695CD8B0A1EF05
:10393C001CF0A3EF1CF0ADEF1CF0010E566E000E48
:10394C00576E000E586E000E596E16EF1EF0692859
:10395C000AE16A2808E16B2806E16C28D8A4B9EFC3
:10396C001CF0BBEF1CF0C5EF1CF069C056F06AC030
:10397C0057F06BC058F06CC059F016EF1EF020EEEB
:10398C0012F05650D9265750DA22DE50695CDE50C0
:10399C006A58DE506B58DE506C58D8B0D8EF1CF01B
:1039AC00DAEF1CF0DCEF1CF0BBEF1CF058C061F040
:1039BC0059C062F05AC063F05BC064F061C065F03E
:1039CC0062C066F063C067F064C068F0010E6526E3
:1039DC00000E66226722682220EE12F05650D9267D
:1039EC005750DA22DE50655CDE506658DE50675860
:1039FC00DE506858D8A005EF1DF007EF1DF026EF3C
:103A0C001DF0020E656E000E666E000E676E000EE7
:103A1C00686E64506310621007E1020E615CD8B0EE
:103A2C001AEF1DF01CEF1DF026EF1DF0000E566E68
:103A3C00000E576E000E586E000E596E16EF1EF0EB
:103A4C0056C03BF057C03CF065C03DF066C03EF040
:103A5C0067C03FF068C040F04EEC1AF03BC069F014
:103A6C003CC06AF03DC06BF03EC06CF069506A100F
:103A7C006B106C10D8A445EF1DF047EF1DF049EF0B
:103A8C001DF078EF1DF069280CE16A280AE16B281B
:103A9C0008E16C28D8B455EF1DF057EF1DF0BBEFC3
:103AAC001CF069046A106B106C10D8A460EF1DF048
:103ABC0062EF1DF064EF1DF0BBEF1CF06150651858
:103ACC000DE1625066180AE16350671807E1645013
:103ADC006818D8A474EF1DF076EF1DF0ECEF1CF015
:103AEC001CEF1DF056C03BF057C03CF065C03DF0DC
:103AFC0066C03EF067C03FF068C040F0FF0E416EFC
:103B0C00FF0E426EFF0E436E0F0E446E98EC13F0D8
:103B1C00606E6050D8A495EF1DF097EF1DF0B9EFD3
:103B2C001DF0585059105A105B10D8B4A0EF1DF06E
:103B3C00A2EF1DF0B9EF1DF056C03BF057C03CF0A2
:103B4C0058C03DF059C03EF05AC03FF05BC040F049
:103B5C0065C041F066C042F067C043F068C044F0F5
:103B6C0098EC13F0606E6050D8A4BFEF1DF0C1EF5D
:103B7C001DF0F8EF1DF020EE0AF05650D9265750E4
:103B8C00DA2265C0DEFF66C0DEFF67C0DEFF68C0FC
:103B9C00DEFF20EE0EF05650D9265750DA22DE28E2
:103BAC000CE1DE280AE1DE2808E1DE28D8B4E1EFDA
:103BBC001DF0E3EF1DF00EEF1EF020EE0EF0565050
:103BCC00D9265750DA22DE06000EDE5ADE5ADE5AAD
:103BDC0020EE05F05650D9265750DA22000EDB8025
:103BEC000EEF1EF06004D8B4FEEF1DF000EF1EF0D7
:103BFC000AEF1EF0010E656E000E666E000E676E0B
:103C0C00000E686E0EEF1EF065686668676868687F
:103C1C0065C056F066C057F067C058F068C059F0E0
:103C2C0012000A50D96EDA6ADF50156E1FEF1EF0C3
:103C3C00152A15C0F6FF060EF76E0800F5502F0A70
:103C4C00D8B42BEF1EF02DEF1EF01EEF1EF015C09A
:103C5C00F6FF060EF76E0800F5505C0AD8B439EF83
:103C6C001EF03BEF1EF01EEF1EF00950D96EDA6A03
:103C7C00140ED926DF50186E18C001F0026A000E1F
:103C8C00046E200E036E000E066E0B0E056E61ECBC
:103C9C0032F0000E116E11C016F0176A16C00FF03C
:103CAC0017C010F0000E136E080E126E15500F2474
:103CBC000B6E0BC0F6FF060EF76E0800F5CF19F071
:103CCC000F4A102A200E19646EEF1EF070EF1EF0D2
:103CDC0079EF1FF02F0E1918D8B477EF1EF079EF8B
:103CEC001EF079EF1FF05C0E1918D8A480EF1EF0AF
:103CFC0082EF1EF084EF1EF079EF1FF02E0E1918D4
:103D0C00D8B48BEF1EF08DEF1EF098EF1EF0125012
:103D1C00165C13501758D8A096EF1EF098EF1EF0B3
:103D2C00BCEF1EF0080E12181310D8A4A0EF1EF052
:103D3C00A2EF1EF0ABEF1EF02E0E1918D8B4A9EF9F
:103D4C001EF0ABEF1EF0AEEF1EF0060EDBEF1FF019
:103D5C00000E176E080E166E000E136E0B0E126E02
:103D6C00D8901136D89011365CEF1EF07F0E196486
:103D7C00C2EF1EF0C4EF1EF0C6EF1EF0030E1112C0
:103D8C00800E1964CCEF1EF0CEEF1EF0D6EF1EF0B5
:103D9C009F0E1964D4EF1EF0D6EF1EF0E6EF1EF066
:103DAC00DF0E1964DCEF1EF0DEEF1EF037EF1FF0B4
:103DBC00FD0E1960E4EF1EF0E6EF1EF037EF1FF07A
:103DCC0015500F240B6E0BC0F6FF060EF76E080095
:103DDC00F5CF14F00F4A102A3F0E1464F8EF1EF0C2
:103DEC00FAEF1EF002EF1FF07E0E146400EF1FF0CE
:103DFC0002EF1FF012EF1FF07F0E146408EF1FF09C
:103E0C000AEF1FF0ABEF1EF0FD0E146010EF1FF069
:103E1C0012EF1FF0ABEF1EF0FF0E12240B6EFF0E15
:103E2C0013200C6E0B50165C0C501758D8A021EFB9
:103E3C001FF023EF1FF025EF1FF0ABEF1EF0185013
:103E4C001624D96EDA6A19C0DFFF164A172A1850E1
:103E5C001624D96EDA6A14C0DFFF164A172A5CEFF3
:103E6C001EF0110E016E19C002F0036A81EC31F0E4
:103E7C0001500210D8B445EF1FF047EF1FF049EF87
:103E8C001FF0ABEF1EF0400E19644FEF1FF051EF17
:103E9C001FF05CEF1FF05B0E196057EF1FF059EF2E
:103EAC001FF05CEF1FF011826FEF1FF0600E1964B2
:103EBC0062EF1FF064EF1FF06FEF1FF07B0E1960C5
:103ECC006AEF1FF06CEF1FF06FEF1FF01180200EE8
:103EDC00195E18501624D96EDA6A19C0DFFF164A1B
:103EEC00172A5CEF1EF00A50D96EDA6A15500F24AF
:103EFC00DF6E200E196485EF1FF087EF1FF08DEF3A
:103F0C001FF0000E0E6E000E0D6E91EF1FF0000EE6
:103F1C000E6E040E0D6E0DC019F016501710D8A4AD
:103F2C009AEF1FF09CEF1FF09EEF1FF0ABEF1EF00F
:103F3C001850D96EDA6AE50EDE18D8A4A8EF1FF077
:103F4C00AAEF1FF0AFEF1FF01850D96EDA6A050E0A
:103F5C00DF6E080E12181310D8A4B7EF1FF0B9EFCC
:103F6C001FF0BDEF1FF0D8901136D89011361150BC
:103F7C00030BE806D8A4C5EF1FF0C7EF1FF0C8EF7E
:103F8C001FF0198811500C0B040AD8A4D0EF1FF0A5
:103F9C00D2EF1FF0D3EF1FF019861850D96EDA6AE2
:103FAC000B0ED92619C0DFFF000E12005550D96E2A
:103FBC00DA6A040ED92656C0DEFF57C0DDFF555015
:103FCC00D96EDA6A060ED926DECF65F0DECF66F042
:103FDC00DECF67F0DECF68F06504661067106810FE
:103FEC00D8B4FBEF1FF0FDEF1FF015EF20F055508C
:103FFC00D96EDA6A10EE12F0DE50E126DD50E222C4
:10400C00E650655CE6506658E6506758E6506858CE
:10401C00D8A013EF20F015EF20F018EF20F0020ECF
:10402C006FEF21F06550661067106810D8A421EF6F
:10403C0020F023EF20F048EF20F05550D96EDA6ACB
:10404C00DECF58F0DDCF59F058C0D9FF59C0DAFF98
:10405C00030EDE18D8A435EF20F037EF20F048EF30
:10406C0020F05550D96EDA6A10EE22F0DE50E126BF
:10407C00DD50E222E6CF65F0E6CF66F0E6CF67F0E2
:10408C00E6CF68F06550661067106810D8A451EF41
:10409C0020F053EF20F07CEF20F05550D96EDA6A07
:1040AC0010EE08F0DE50E126DD50E222E650565CC0
:1040BC00E6505758D8A065EF20F067EF20F069EF75
:1040CC0020F015EF20F05550D96EDA6A10EE22F080
:1040DC00DE50E126DD50E222E6CF61F0E6CF62F061
:1040EC00E6CF63F0E6CF64F008EF21F05550D96EBF
:1040FC00DA6A10EE02F0DE50E126DD50E222E750E3
:10410C00586E5850100DF3CF5FF0F4CF60F0E4EF21
:10411C0020F05550D96EDA6ADECF3BF0DDCF3CF0A3
:10412C0065C03DF066C03EF067C03FF068C040F02F
:10413C004EEC1AF03BC065F03CC066F03DC067F039
:10414C003EC068F065280AE1662808E1672806E1A8
:10415C006828D8A4B4EF20F0B6EF20F0B9EF20F027
:10416C00010E6FEF21F068506710661009E1020E26
:10417C00655CD8A0C4EF20F0C6EF20F015EF20F05E
:10418C005550D96EDA6A10EE12F0DE50E126DD5091
:10419C00E222E650655CE6506658E6506758E650F9
:1041AC006858D8A0DCEF20F0DEEF20F0E0EF20F034
:1041BC0015EF20F05F50565E6050575A5F50565CBA
:1041CC0060505758D8B0EDEF20F0EFEF20F08FEFA4
:1041DC0020F05550D96EDA6ADECF0DF0DDCF0EF03F
:1041EC0065C00FF066C010F067C011F068C012F027
:1041FC0031EC2DF00DC061F00EC062F00FC063F019
:10420C0010C064F05550D96EDA6A0A0ED92665C012
:10421C00DEFF66C0DEFF67C0DEFF68C0DEFF6150F8
:10422C00621063106410D8A41EEF21F020EF21F06F
:10423C0022EF21F015EF20F056C058F057C059F07E
:10424C00040E5A6ED890593258325A2E28EF21F05B
:10425C00585061245B6E595062205C6E000E6320D6
:10426C005D6E000E64205E6E5550D96EDA6A0E0ECD
:10427C00D9265BC0DEFF5CC0DEFF5DC0DEFF5EC02A
:10428C00DEFF0F0E5614586E000E5714596E050EA5
:10429C00D89058365936E82E4EEF21F05550D96E3D
:1042AC00DA6ADECF5AF0DDCF5BF058505A245C6EE0
:1042BC0059505B205D6E2E0E5C26000E5D22555013
:1042CC00D96EDA6A120ED9265CC0DEFF5DC0DDFF46
:1042DC00000E1200126E1250D8B477EF21F079EF65
:1042EC0021F07CEF21F0010ED0EF22F00001FAA3B7
:1042FC0082EF21F084EF21F088EF21F00001FA51D8
:10430C00D0EF22F01FEC33F00A0E1D6E92EF21F06D
:10431C00FF0EFDEC32F01D061D50D8A498EF21F0D5
:10432C009AEF21F08EEF21F01A6A000E0B6E000E40
:10433C000C6E000E0D6E000E0E6E000EAFEC31F01A
:10434C00E806D8A4ACEF21F0AEEF21F0BEEF22F0DE
:10435C00AA0E0B6E010E0C6E000E0D6E000E0E6E84
:10436C00080EAFEC31F0E806D8A4BFEF21F0C1EF96
:10437C0021F055EF22F01D6A1D50130FD96EDA6A29
:10438C00FF0EFDEC32F0DF6E1D2A030E1D64D1EF23
:10439C0021F0D3EF21F0C2EF21F01504D8A4D9EF0E
:1043AC0021F0DBEF21F0BEEF22F0AA0E1618D8A4F4
:1043BC00E2EF21F0E4EF21F0BEEF22F0030E1C6ED1
:1043CC00E80E1B6E09EF22F0000E0B6E000E0C6E49
:1043DC00000E0D6E400E0E6EA90EAFEC31F0000902
:1043EC00D8A4FBEF21F0FDEF21F0FFEF21F012EF4D
:1043FC0022F0030E116E980EE82EFED7112EFCD76C
:10440C001B06D8A01C061B501C10D8A410EF22F0C1
:10441C0012EF22F0EAEF21F01B501C10D8B419EF68
:10442C0022F01BEF22F0BEEF22F0000E0B6E000EFE
:10443C000C6E000E0D6E000E0E6E3A0EAFEC31F0DF
:10444C000009D8A42CEF22F02EEF22F0BEEF22F0C0
:10445C001D6A1D50130FD96EDA6AFF0EFDEC32F097
:10446C00DF6E1D2A030E1D643EEF22F040EF22F09A
:10447C002FEF22F013BC45EF22F047EF22F04DEF67
:10448C0022F0000E186E040E176E51EF22F0000E83
:10449C00186E0C0E176E17C01AF0BEEF22F0000E3D
:1044AC000B6E000E0C6E000E0D6E000E0E6EA90E35
:1044BC00AFEC31F0116E020E116067EF22F069EF74
:1044CC0022F06FEF22F0020E1A6EA90E196E73EF26
:1044DC0022F0010E1A6E010E196E030E1C6EE80E00
:1044EC001B6E98EF22F0000E0B6E000E0C6E000E81
:1044FC000D6E000E0E6E1950AFEC31F00009D8A401
:10450C008AEF22F08CEF22F08EEF22F0A1EF22F056
:10451C00030E116E980EE82EFED7112EFCD71B063B
:10452C00D8A01C061B501C10D8A49FEF22F0A1EFA2
:10453C0022F079EF22F01B501C10D8B4A8EF22F017
:10454C00AAEF22F0BDEF22F0000E0B6E020E0C6EE5
:10455C00000E0D6E000E0E6E100EAFEC31F0000959
:10456C00D8B4BBEF22F0BDEF22F0BEEF22F01A6AF6
:10457C001AC0F9F02DEC33F01A50D8B4C8EF22F071
:10458C00CAEF22F084EF21F00001FA9117EC33F01E
:10459C0084EF21F0120039C01BF03AC01CF016EC6D
:1045AC0027F0436E4350D8A4DEEF22F0E0EF22F068
:1045BC00C2EF23F039C0D9FF3AC0DAFF030EDE1880
:1045CC00D8A4EBEF22F0EDEF22F0A9EF23F020EED0
:1045DC0005F03950D9263A50DA22DE04D8A4F9EF86
:1045EC0022F0FBEF22F0A9EF23F02E0E3924016EFE
:1045FC00000E3A20026E000E046E000E036E020EC8
:10460C00066E000E056E61EC32F022EE2CF0395085
:10461C00D9263A50DA22550EDE6EAA0EDD6E20EE49
:10462C002EF03950D9263A50DA22520EDE6E520E46
:10463C00DE6E610EDE6E410EDD6E22EE12F0395032
:10464C00D9263A50DA22720EDE6E720EDE6E410EF2
:10465C00DE6E610EDD6E20EE0EF03950D9263A502A
:10466C00DA2212EE16F03950E1263A50E222DECF71
:10467C00E6FFDECFE6FFDECFE6FFDECFE6FF20EE85
:10468C000AF03950D9263A50DA2212EE1AF0395083
:10469C00E1263A50E222DECFE6FFDECFE6FFDECFA8
:1046AC00E6FFDECFE6FF20EE1AF03950D9263A505D
:1046BC00DA22DECF3BF0DECF3CF0DECF3DF0DECFBA
:1046CC003EF0010E3B243F6E000E3C20406E000E6F
:1046DC003D20416E000E3E20426E20EE2AF03950F5
:1046EC00D9263A50DA223FC0DEFF40C0DEFF41C07F
:1046FC00DEFF42C0DEFF2E0E3924116E000E3A2072
:10470C00126E20EE2AF03950D9263A50DA22DECF3A
:10471C0013F0DECF14F0DECF15F0DECF16F0000E66
:10472C00186E010E176E20EE01F03950D9263A5052
:10473C00DA22DF50A7EC24F020EE05F03950D92610
:10474C003A50DA22DF6A000E116E000E126E000E65
:10475C00136E20EE01F03950D9263A50DA22DF5090
:10476C009FEC10F00009D8B4BEEF23F0C0EF23F09B
:10477C00C2EF23F0010E436E435012000C50D96E61
:10478C00DA6ADFCFF6FF060EF76E0800F550250A41
:10479C00D8A4D3EF23F0D5EF23F095EF24F00C50F1
:1047AC00D96EDA6ADF2A000E0001F16F000EF06F8D
:1047BC00F0C0F8F0F269F3690C50D96EDA6ADF5088
:1047CC00106E10C0F6FF060EF76E0800F550640A66
:1047DC00D8B4F3EF23F0F5EF23F003EF24F010C07F
:1047EC00F6FF060EF76E0800F550690AD8A401EF23
:1047FC0024F003EF24F08FEF24F00D50D96EDA6A19
:10480C00020EDF26DF5CD96EDA6ADECF11F0DECF66
:10481C0012F00C50D96EDA6A1028DF6E200E156E6D
:10482C0012BE1BEF24F01EEF24F0010E1FEF24F03C
:10483C00000E0F6E1506470E1524D96EDA6A010E9E
:10484C00DA2211C001F012C002F0000E046E0A0E42
:10485C00036E14EC2FF001C007F002C008F098ECC6
:10486C0032F00750300FDF6E11C001F012C002F0B1
:10487C00000E046E0A0E036E94EC2DF001C011F0C4
:10488C0002C012F011501210D8B44FEF24F051EFB7
:10489C0024F059EF24F01550D8A457EF24F059EF19
:1048AC0024F020EF24F01550D8B45FEF24F061EF22
:1048BC0024F084EF24F00F50D8B467EF24F069EFA4
:1048CC0024F084EF24F01506470E1524D96EDA6A0D
:1048DC00010EDA222D0EDF6E84EF24F0470E152424
:1048EC00D96EDA6A010EDA22DF500E6E0E50016EAE
:1048FC00026A0BC003F0B7EC2EF0152A200E151827
:10490C00D8A48BEF24F08DEF24F074EF24F0A6EFF5
:10491C0024F00C50D96EDA6ADF2AA6EF24F00C5082
:10492C00D96EDA6ADFCFF6FF060EF76E0800F55087
:10493C00016E026A0BC003F0B7EC2EF08FEF24F07F
:10494C0012001A6E1A50D8A4AEEF24F0B0EF24F077
:10495C00B9EF24F017501810D8A4B7EF24F0B9EF22
:10496C0024F0BCEF24F0040E7BEF25F00001FAA13B
:10497C00C2EF24F0C4EF24F0C7EF24F0030E7BEF5A
:10498C0025F0FAA5CCEF24F0CEEF24F0D1EF24F0F3
:10499C00020E7BEF25F0F9B7D6EF24F0D8EF24F018
:1049AC00E1EF24F0090ED89013361436153616366E
:1049BC00E82ED9EF24F017041810D8A4E8EF24F04F
:1049CC00EAEF24F013EF25F013C00BF014C00CF039
:1049DC0015C00DF016C00EF0180EAFEC31F000093A
:1049EC00D8A4FBEF24F0FDEF24F06EEF25F011C0FE
:1049FC0004F012C005F0FE0E066E56EC30F0000905
:104A0C00D8B40BEF25F00DEF25F06EEF25F0000E6E
:104A1C00186E000E176E6EEF25F0F9C019F0060E29
:104A2C001916D8B41CEF25F01EEF25F027EF25F052
:104A3C0017C00BF018C00CF00D6A0E6A970EAFEC95
:104A4C0031F013C00BF014C00CF015C00DF016C0F3
:104A5C000EF0190EAFEC31F00009D8A438EF25F0A8
:104A6C003AEF25F06EEF25F011C004F012C005F0FE
:104A7C00FC0E066E56EC30F00009D8A448EF25F079
:104A8C004AEF25F04CEF25F05AEF25F0020E1226D6
:104A9C001706D8A0180617501810D8A458EF25F0F0
:104AAC005AEF25F03AEF25F0000E046E000E056E5D
:104ABC00FD0E066E56EC30F00009D8A468EF25F018
:104ACC006AEF25F06EEF25F0000E186E010E176ED2
:104ADC002DEC33F017501810D8A477EF25F07AEF9F
:104AEC0025F0010E7BEF25F0000E12005B505A10E2
:104AFC00591009E1020E585CD8A087EF25F089EF18
:104B0C0025F09EEF25F020EE12F05650D926575086
:104B1C00DA22DE50585CDE505958DE505A58DE50BE
:104B2C005B58D8A09CEF25F09EEF25F0A2EF25F066
:104B3C00020E606E4CEF26F0606A37EF26F056C01E
:104B4C003BF057C03CF058C03DF059C03EF05AC045
:104B5C003FF05BC040F04EEC1AF03BC061F03CC043
:104B6C0062F03DC063F03EC064F0615062106310AF
:104B7C006410D8A4C4EF25F0C6EF25F0C8EF25F0DB
:104B8C004CEF26F06104621063106410D8A4D1EFCE
:104B9C0025F0D3EF25F0D5EF25F09EEF25F0612819
:104BAC000AE1622808E1632806E16428D8A4E1EF51
:104BBC0025F0E3EF25F0E7EF25F0010E606E4CEFEA
:104BCC0026F056C03BF057C03CF058C03DF059C0E1
:104BDC003EF05AC03FF05BC040F0000E416E000E3C
:104BEC00426E000E436E000E446E98EC13F0606E35
:104BFC006050D8B404EF26F006EF26F008EF26F04C
:104C0C004CEF26F020EE0EF05650D9265750DA22F3
:104C1C00DE280CE1DE280AE1DE2808E1DE28D8B423
:104C2C001AEF26F01CEF26F02FEF26F020EE0EF0F8
:104C3C005650D9265750DA22DE2A000EDE22DE220A
:104C4C00DE2220EE05F05650D9265750DA22000EFF
:104C5C00DB8061C058F062C059F063C05AF064C088
:104C6C005BF020EE12F05650D9265750DA22DE5067
:104C7C00585CDE505958DE505A58DE505B58D8A05C
:104C8C004AEF26F04CEF26F0A5EF25F0605012000D
:104C9C0086C0F6FF060EF76E0800F5502F0AD8B442
:104CAC005AEF26F05CEF26F06AEF26F086C0F6FF8E
:104CBC00060EF76E0800F5505C0AD8A468EF26F0D3
:104CCC006AEF26F06CEF26F00001862B000185516F
:104CDC00D96EDA6A060ED926DE6ADE6ADE6ADD6A0B
:104CEC0086C0F6FF060EF76E200E0800F56081EF09
:104CFC0026F083EF26F096EF26F085C055F0000ED7
:104D0C00576E000E566EDCEC1FF000018A6F855159
:104D1C00D96EDA6A120ED926DE6ADD6A14EF27F034
:104D2C0085C009F0860E0A6E17EC1EF000018A6F22
:104D3C008A51D8B4A4EF26F0A6EF26F0A8EF26F0FF
:104D4C0014EF27F085C080F058EC2AF000018A6F30
:104D5C008551D96EDA6A140ED926DF50D96EDA6A0B
:104D6C000B0ED926DF50896F8A51D8B4C0EF26F0CC
:104D7C00C2EF26F0D6EF26F0040E8A19D8A4C9EF9C
:104D8C0026F0CBEF26F014EF27F089B5D0EF26F004
:104D9C00D2EF26F014EF27F0050E8A6F14EF27F0F0
:104DAC0089A5DBEF26F0DDEF26F0DFEF26F014EF20
:104DBC0027F08551D96EDA6A120ED926DECF87F02C
:104DCC00DDCF88F020EE0BF08751D9268851DA22FE
:104DDC00DFB8F3EF26F0F5EF26F0F7EF26F0D2EF81
:104DEC0026F08551D96EDA6ADECF01F0DDCF02F004
:104DFC0087C003F088C004F0A0EC30F000018551AE
:104E0C00D96EDA6A060ED92601C0DEFF02C0DEFFBB
:104E1C0003C0DEFF04C0DEFF96EF26F08A511200BD
:104E2C00296A20EE04F01B50D9261C50DA22DF50E0
:104E3C00D8B423EF27F025EF27F0D6EF27F020EE9C
:104E4C002AF01B50D9261C50DA22DECF2CF0DECFF4
:104E5C002DF0DECF2EF0DECF2FF02E0E1B24116E98
:104E6C00000E1C20126E2CC013F02DC014F02EC09E
:104E7C0015F02FC016F0000E186E010E176E20EEF6
:104E8C0001F01B50D9261C50DA22DF50A7EC24F07D
:104E9C000009D8B454EF27F056EF27F05AEF27F05B
:104EAC00010E296ED6EF27F020EE04F01B50D92608
:104EBC001C50DA22DF6A20EE16F01B50D9261C504B
:104ECC00DA2210EE1EF01B50E1261C50E222E6CF37
:104EDC0021F0E6CF22F0E6CF23F0E6CF24F02150EC
:104EEC002C5C256E22502D58266E23502E58276E82
:104EFC0024502F58286EDE50255CDE502658DE508C
:104F0C002758DE502858D8B08EEF27F090EF27F0B6
:104F1C00D6EF27F020EE03F01B50D9261C50DA22D6
:104F2C00DF501D6E1D502A6E2B6A2B5007E1020EAE
:104F3C002A5CD8B0A4EF27F0A6EF27F0A8EF27F053
:104F4C00D6EF27F020EE16F01B50D9261C50DA2293
:104F5C00DE502C26DE502D22DE502E22DD502F224C
:104F6C002E0E1B24116E000E1C20126E2CC013F082
:104F7C002DC014F02EC015F02FC016F0000E186EB8
:104F8C00010E176E20EE01F01B50D9261C50DA22B0
:104F9C00DF50A7EC24F02A06D8A02B069BEF27F0B5
:104FAC002950120044C002F045C003F06AEC2CF00A
:104FBC00466E4650D8A4E5EF27F0E7EF27F084EFD4
:104FCC0028F020EE04F04450D9264550DA22DFAA0E
:104FDC00F2EF27F0F4EF27F084EF28F044C0D9FF6C
:104FEC0045C0DAFFDECF30F0DDCF31F020EE1AF025
:104FFC004450D9264550DA22DECF32F0DECF33F0E2
:10500C00DECF34F0DECF35F0F5EC2DF0466E4650A9
:10501C00D8A413EF28F015EF28F084EF28F020EE39
:10502C001EF04450D9264550DA22DECF47F0DDCFB2
:10503C0048F020EE0BF04750D9264850DA22000EEB
:10504C00DB8A20EE0AF04450D9264550DA2210EEC5
:10505C001CF04750E1264850E222DECFE6FFDECFBF
:10506C00E6FFDECFE6FFDECFE6FF47C001F048C02B
:10507C0002F020EE0EF04450D9264550DA22DECF55
:10508C0003F0DECF04F0DECF05F0DECF06F0B2EC9D
:10509C0032F020EE16F04750D9264850DA22000E96
:1050AC00DE6E000EDE6E210EDE6E460EDD6E20EE26
:1050BC0012F04750D9264850DA22DE6ADD6A20EE1B
:1050CC0004F04450D9264550DA22DF0EDF1644C0D6
:1050DC00D9FF45C0DAFF10EE04F0DE50E126DD50BA
:1050EC00E222010EE76E44C0D9FF45C0DAFFDECFE5
:1050FC0039F0DDCF3AF0D1EC22F0466E465012007A
:10510C0032EC33F08C9C959E8C9E870E506E010E6B
:10511C00516E100E526E010E536ECEEC2CF001013E
:10512C00406F19EF29F08C8EDCEC32F001C045F1A8
:10513C0002C046F1C20E0101455D010E4659D8A0D0
:10514C00AAEF28F0ACEF28F00BEF29F0670E000166
:10515C00BA6F010EBB6F200EBC6F130EBD6F25EC2A
:10516C0018F00009D8A4BDEF28F0BFEF28F00BEF22
:10517C0029F0959C8C8C0101715172117311741171
:10518C00D8B4CBEF28F0CDEF28F0DBEF28F0670E8A
:10519C006D6E010E6E6E71C16FF072C170F073C1E5
:1051AC0071F074C172F00CEC0DF0000E1A6E010E61
:1051BC001B6E010E1C6E45C11DF046C11EF043EC6A
:1051CC0032F0000E016E010E026E7DEC32F001C069
:1051DC0041F102C042F1670E6D6E010E6E6E000E53
:1051EC006F6E010E706E41C171F042C172F0430ED0
:1051FC00736E010E746EC8EC08F0670E496E010EEA
:10520C004A6EDBEC31F00CEF29F08C9C0B0E00019C
:10521C00EF6F260EEE6F5D0EE82EFED7EE2FFCD74D
:10522C00EF2FFAD700D001014051D8B420EF29F06C
:10523C0022EF29F099EF28F000EF00F0196E1950C9
:10524C00D8A42BEF29F02DEF29F036EF29F01750C9
:10525C001810D8A434EF29F036EF29F039EF29F0E3
:10526C00040EC1EF29F00001FAA13FEF29F041EF44
:10527C0029F044EF29F0030EC1EF29F0F9B749EFFB
:10528C0029F04BEF29F054EF29F0090ED890133682
:10529C00143615361636E82E4CEF29F0185007E167
:1052AC00020E175CD8B05DEF29F05FEF29F065EFC7
:1052BC0029F0000E1B6E110E1A6E69EF29F0000E0C
:1052CC001B6E120E1A6E1AC01CF013C00BF014C019
:1052DC000CF015C00DF016C00EF01C50AFEC31F0F8
:1052EC000009D8A47CEF29F07EEF29F0B4EF29F067
:1052FC0011C002F012C003F0020E056E000E046E17
:10530C00BDEC2FF00009D8A48EEF29F090EF29F016
:10531C0092EF29F0A0EF29F0020E12261706D8A062
:10532C00180617501810D8A49EEF29F0A0EF29F0FA
:10533C007EEF29F0120E1C18D8A4A7EF29F0A9EFC4
:10534C0029F0B4EF29F0000E0B6E000E0C6E000E5F
:10535C000D6E000E0E6E0C0EAFEC31F02DEC33F02A
:10536C0017501810D8A4BDEF29F0C0EF29F0010E8A
:10537C00C1EF29F0000E120080C055F0000E576EE0
:10538C00000E566EDCEC1FF00001886F8851D8A41B
:10539C00D2EF29F0D4EF29F04BEF2AF0000E876FF3
:1053AC00000E866F8051D96EDA6ADECF30F0DDCF19
:1053BC0031F08051D96EDA6A0E0ED926DECF32F07A
:1053CC00DECF33F0DECF34F0DECF35F0F5EC2DF060
:1053DC000001886F8851D8B4F6EF29F0F8EF29F066
:1053EC00FAEF29F04BEF2AF08051D96EDA6A120EDF
:1053FC00D926DECF83F0DDCF84F083C0D9FF84C003
:10540C00DAFFE50EDE18D8B40EEF2AF010EF2AF012
:10541C0025EF2AF08051D96EDA6A120ED926DECF2A
:10542C0083F0DDCF84F083C0D9FF84C0DAFFDF5076
:10543C00D8A423EF2AF025EF2AF035EF2AF0864B7B
:10544C00872B8151861907E182518719D8A431EF36
:10545C002AF033EF2AF039EF2AF04BEF2AF0000E46
:10546C00876F000E866F80C06DF0000E6F6E010EA0
:10547C006E6EE0EC15F00001886F8851D8B449EFDE
:10548C002AF04BEF2AF0D8EF29F0040E8819D8A493
:10549C0052EF2AF054EF2AF056EF2AF0070E886FDD
:1054AC008851120080C055F0000E576E000E566EDB
:1054BC00DCEC1FF00001846F8451D8B468EF2AF043
:1054CC006AEF2AF06EEF2AF000018451E8EF2AF01F
:1054DC008051D96EDA6ADECF30F0DDCF31F08051F9
:1054EC00D96EDA6A0E0ED926DECF32F0DECF33F06B
:1054FC00DECF34F0DECF35F0F5EC2DF00001846F0B
:10550C008451D8B48CEF2AF08EEF2AF090EF2AF069
:10551C006AEF2AF08051D96EDA6A120ED926DECFE4
:10552C0082F0DDCF83F082C0D9FF83C0DAFFDF5079
:10553C00816F8151D8A4A5EF2AF0A7EF2AF0ABEF29
:10554C002AF0040E846F6AEF2AF020EE0BF08251E1
:10555C00D9268351DA22DFB6B6EF2AF0B8EF2AF05B
:10556C00D4EF2AF082C001F083C002F08051D96ED2
:10557C00DA6A140ED926DF50036E000E056E0B0E80
:10558C00046EE4EC30F001500210D8A4D0EF2AF0F5
:10559C00D2EF2AF0D4EF2AF06AEF2AF080C06DF037
:1055AC00000E6F6E000E6E6EE0EC15F00001846F55
:1055BC008451D8B4E4EF2AF0E6EF2AF06EEF2AF02B
:1055CC006AEF2AF0120020EE04F03B50D9263C5032
:1055DC00DA22DF6A20EE2AF03B50D9263C50DA2240
:1055EC00FF0EDE6EFF0EDE6EFF0EDE6EFF0EDD6E4C
:1055FC003BC030F03CC031F03DC032F03EC033F027
:10560C003FC034F040C035F0F5EC2DF00009D8B4B3
:10561C0012EF2BF014EF2BF017EF2BF0030E76EFAD
:10562C002BF022EE2CF03B50D9263C50DA22550EB2
:10563C00DE1809E1AA0EDE18D8B427EF2BF029EFFB
:10564C002BF02CEF2BF0020E76EF2BF020EE64F00B
:10565C003B50D9263C50DA22FF0EDE14416EFF0E71
:10566C00DE14426EFF0EDE14436E000EDE14446E2A
:10567C00460E41180BE1410E421808E1540E431836
:10568C004410D8A44CEF2BF04EEF2BF051EF2BF035
:10569C00000E76EF2BF020EE80F03B50D9263C50DC
:1056AC00DA22FF0EDE14416EFF0EDE14426EFF0E88
:1056BC00DE14436E000EDE14446E460E41180BE1F0
:1056CC00410E421808E1540E43184410D8A471EF4F
:1056DC002BF073EF2BF075EF2BF04EEF2BF0010E40
:1056EC001200046805680150D96EDA6ADF50D8B42C
:1056FC0082EF2BF084EF2BF0EFEF2BF00150D96EF3
:10570C00DA6ADF50096E8CEF2BF0092A09C0F6FF1C
:10571C00060EF76E200E0800F56497EF2BF099EF4C
:10572C002BF0A7EF2BF009C0F6FF060EF76E080062
:10573C00F5503A0AD8A4A5EF2BF0A7EF2BF08BEF7E
:10574C002BF009C0F6FF060EF76E0800F5503A0A6A
:10575C00D8A4B3EF2BF0B5EF2BF0F5EF2BF00150F5
:10576C00D96EDA6ADF50066E06C0F6FF060EF76ECB
:10577C000800F5CF03F0D00E0324076E086AFF0E65
:10578C000822062A085007E10A0E075CD8B0D1EFB0
:10579C002BF0D3EF2BF0EFEF2BF009500618D8A419
:1057AC00DAEF2BF0DCEF2BF0EFEF2BF007500810BB
:1057BC00D8A4E3EF2BF0E5EF2BF0EFEF2BF007C0C5
:1057CC0004F008C005F0092A0150D96EDA6A09C044
:1057DC00DFFF04C001F005C002F0FBEF2BF0000E60
:1057EC00056E000E046EEFEF2BF0120089C080F0F6
:1057FC00000E0001826F010E816FC2EC29F00001D6
:10580C008B6F8B51D8A40DEF2CF00FEF2CF068EFB1
:10581C002CF08951D96EDA6ADECF30F0DDCF31F061
:10582C008951D96EDA6A0E0ED926DECF32F0DECF70
:10583C0033F0DECF34F0DECF35F0F5EC2DF0000197
:10584C008B6F8B51D8A42DEF2CF02FEF2CF068EF31
:10585C002CF08951D96EDA6A120ED926DECF01F0FE
:10586C00DDCF02F0000E046E000E036E000E066E0D
:10587C00200E056E61EC32F000018951D96EDA6AA6
:10588C00120ED926DECF01F0DDCF02F08951D96E90
:10589C00DA6A140ED926DF508A6F8AC003F0046AC4
:1058AC00000E066E0B0E056E0BEC30F000018951EC
:1058BC00D96EDA6A10EE04F0DE50E126DD50E222F9
:1058CC00010EE76E8B51120002C008F003C009F004
:1058DC0008500910D8B475EF2CF077EF2CF0C9EF05
:1058EC002CF008C0D9FF09C0DAFFDE50DE10D8B4A6
:1058FC0082EF2CF084EF2CF0C9EF2CF008C0D9FF0C
:10590C0009C0DAFFDECF04F0DDCF05F004C0D9FF0B
:10591C0005C0DAFFDF50D8B496EF2CF098EF2CF0DE
:10592C00C9EF2CF020EE02F00850D9260950DA22EB
:10593C0008C0E1FF09C0E2FF00EE06F0E650E926E0
:10594C00E550EA22DE50EE1807E1DE50EE18D8A43E
:10595C00B2EF2CF0B4EF2CF0C9EF2CF008C0D9FF4B
:10596C0009C0DAFF10EE01F0DE50E126DD50E22234
:10597C00E750EEEC32F0046E04A0C7EF2CF0C9EF48
:10598C002CF0CCEF2CF0090ECDEF2CF0000E120009
:10599C0052C057F0570E016E77EC2BF001C058F047
:1059AC0002C059F059BEDFEF2CF0DDEF2CF0E2EF26
:1059BC002CF00B0E30EF2DF05850020DF350F60F6B
:1059CC00D96EDA6ADECF55F0DDCF56F05550561051
:1059DC00D8B4F3EF2CF0F5EF2CF0FAEF2CF055C017
:1059EC00D9FF56C0DAFFDF6A50505110D8B401EF1E
:1059FC002DF003EF2DF008EF2DF050C0D9FF51C062
:105A0C00DAFFDF6A5850020DF350F60FD96EDA6ADE
:105A1C0050C0DEFF51C0DDFF50505110D8B419EF0B
:105A2C002DF01BEF2DF023EF2DF05304D8B421EF04
:105A3C002DF023EF2DF026EF2DF0000E30EF2DF092
:105A4C00500E456E520E466E000E476E16EC03F06D
:105A5C00546E54501200020E0F5E000E105A115A62
:105A6C00125A20EE12F00D50D9260E50DA22FE0EEC
:105A7C00DE24136EFF0EDE20146EFF0EDE20156E7C
:105A8C00FF0EDE20166E13500F5C1450105815507C
:105A9C00115816501258D8A056EF2DF058EF2DF083
:105AAC0062EF2DF0000E0D6E000E0E6E000E0F6EDE
:105ABC00000E106E93EF2DF020EE26F00D50D9262F
:105ACC000E50DA22DECF13F0DECF14F0DECF15F05D
:105ADC00DECF16F020EE02F00D50D9260E50DA2251
:105AEC00DF50176E1750016E026A036A046A0FC00A
:105AFC0005F010C006F011C007F012C008F01DEC44
:105B0C0031F0135001240D6E145002200E6E1550FE
:105B1C0003200F6E16500420106E1200066A04BE8D
:105B2C009CEF2DF09AEF2DF0A2EF2DF0036C041EDC
:105B3C00D8B0042A010E066E02BEA9EF2DF0A7EF15
:105B4C002DF0AFEF2DF0016C021ED8B0022A010E21
:105B5C00061A000E086E000E076E03500410D8B41F
:105B6C00BAEF2DF0BCEF2DF0E4EF2DF0010E056E29
:105B7C00C4EF2DF0D89003360436052A04AEC9EFD5
:105B8C002DF0CBEF2DF0C0EF2DF0D8900736083666
:105B9C000350015C04500258D8A0D7EF2DF0D9EF78
:105BAC002DF0DEEF2DF00350015E0450025A0780F9
:105BBC00D89004320332052ECBEF2DF00650D8B41A
:105BCC00EAEF2DF0ECEF2DF0F0EF2DF0076C081E46
:105BDC00D8B0082A07C001F008C002F012003A6AD7
:105BEC0020EE2AF03050D9263150DA223250DE180D
:105BFC000FE13350DE180CE13450DE1809E135505A
:105C0C00DE18D8B40CEF2EF00EEF2EF054EF2EF071
:105C1C0030C01BF031C01CF016EC27F03A6E3A5035
:105C2C00D8A41BEF2EF01DEF2EF054EF2EF02E0EFD
:105C3C003024116E000E3120126E32C013F033C0BE
:105C4C0014F034C015F035C016F0000E186E010EAD
:105C5C00176E20EE01F03050D9263150DA22DF5089
:105C6C0024EC29F00009D8B43EEF2EF040EF2EF0D2
:105C7C0046EF2EF03268336834683568010E3A6EA0
:105C8C0020EE2AF03050D9263150DA2232C0DEFF15
:105C9C0033C0DEFF34C0DEFF35C0DEFF3A501200E9
:105CAC000A6E0C0E0A18D8B45EEF2EF060EF2EF0D0
:105CBC006FEF2EF02DEC33F0C7EC32F00009D8A4C6
:105CCC006AEF2EF06CEF2EF06FEF2EF0FF0EB6EFAA
:105CDC002EF00A504009FDEC32F00750FDEC32F08A
:105CEC000650FDEC32F00550FDEC32F00450FDECAA
:105CFC0032F0010E096E0A50D8A487EF2EF089EF0E
:105D0C002EF08BEF2EF0950E096E080E0A18D8A403
:105D1C0092EF2EF094EF2EF096EF2EF0870E096E88
:105D2C000950FDEC32F00C0E0A18D8A4A0EF2EF09E
:105D3C00A2EF2EF0A5EF2EF0FF0EFDEC32F00A0EC6
:105D4C00096EFF0EFDEC32F0086E08AEB0EF2EF0CF
:105D5C00B2EF2EF0B5EF2EF0092EA7EF2EF0085073
:105D6C0012000350D8B4BDEF2EF0BFEF2EF0C7EFEA
:105D7C002EF00350D8A4C5EF2EF0C7EF2EF0CCEFC9
:105D8C002EF0015037EC33F013EF2FF00350D96E97
:105D9C00DA6A090ED926DE50DE10D8B4D8EF2EF010
:105DAC00DAEF2EF0F3EF2EF00350D96EDA6A090E0B
:105DBC00D9260350E16EE26A020EE126DE50E65C63
:105DCC00E650800A086EDE50800A0858D8B0F1EF11
:105DDC002EF0F3EF2EF013EF2FF00350D96EDA6A9A
:105DEC00020ED926DECF04F0DDCF05F00350D96EBC
:105DFC00DA6ADECF06F0DDCF07F004500624D96E48
:105E0C0005500720DA6E01C0DFFF0350D96EDA6A45
:105E1C00020ED926DE2A000EDD221200066A02BE10
:105E2C001CEF2FF01AEF2FF022EF2FF0016C021E57
:105E3C00D8B0022A010E066E04BE29EF2FF027EF10
:105E4C002FF02DEF2FF0036C041ED8B0042A035052
:105E5C000410D8B434EF2FF036EF2FF05AEF2FF0A8
:105E6C00010E056E3EEF2FF0D89003360436052A4E
:105E7C0004AE43EF2FF045EF2FF03AEF2FF0035025
:105E8C00015C04500258D8A04EEF2FF050EF2FF0C9
:105E9C0054EF2FF00350015E0450025AD890043294
:105EAC000332052E45EF2FF00650D8B460EF2FF0DB
:105EBC0062EF2FF066EF2FF0016C021ED8B0022AB1
:105ECC0001C001F002C002F01200000E096E000EBB
:105EDC000A6E000E0B6E000E0C6E055006100710AD
:105EEC000810D8B47CEF2FF07EEF2FF0B4EF2FF02A
:105EFC00010E0D6E88EF2FF0D8900536063607365A
:105F0C0008360D2A08AE8DEF2FF08FEF2FF082EFB1
:105F1C002FF0D89009360A360B360C360550015C3A
:105F2C00065002580750035808500458D8A0A1EF47
:105F3C002FF0A3EF2FF0ACEF2FF00550015E0650C1
:105F4C00025A0750035A0850045A0980D890083254
:105F5C000732063205320D2E8FEF2FF009C001F0FB
:105F6C000AC002F00BC003F00CC004F01200070EC4
:105F7C00076ED00E066ED8EF2FF0FF0EFDEC32F050
:105F8C00086E0828D8B4CDEF2FF0CFEF2FF0D1EF5B
:105F9C002FF0E1EF2FF0420EE82EFED700D00606D0
:105FAC00D8A0070606500710D8A4DFEF2FF0E1EFBA
:105FBC002FF0C3EF2FF0FE0E0818D8B4E8EF2FF037
:105FCC00EAEF2FF0EDEF2FF0000E0AEF30F0FF0E9E
:105FDC00FDEC32F002C0D9FF03C0DAFFDF6E024ADB
:105FEC00032A0406D8A0050604500510D8A401EF16
:105FFC0030F003EF30F0EDEF2FF0FF0EFDEC32F050
:10600C00FF0EFDEC32F0010E120001C007F002C0D1
:10601C0008F003C009F004C00AF02DEF30F009C0FD
:10602C00D9FF0AC0DAFF07C0E1FF08C0E2FFDECFEC
:10603C00E6FFDDCFE5FF020E0726000E0822020E5A
:10604C000926000E0A22020E055E000E065A0650A4
:10605C0007E1020E055CD8B036EF30F038EF30F0C7
:10606C0015EF30F048EF30F009C0D9FF0AC0DAFF65
:10607C0007C0E1FF08C0E2FFDFCFE7FF094A0A2AA9
:10608C00074A082A0506D8A00606052806E10628B0
:10609C00D8A453EF30F055EF30F03AEF30F0120057
:1060AC0052EC31F00009D8A45EEF30F060EF30F024
:1060BC0063EF30F0000E9FEF30F00650FDEC32F045
