:020000040000FA
:0400000053EF30F09A
:100600000048656C6C6F20736D6F6B65210D0A007F
:1006100048656C6C6F2077617465723F0D0A00222B
:100620002A2B2C3A3B3C3D3E3F5B5D7C7F0068655E
:090630006C6C6F2E7478740000EC
:10063A004550D96EDA6ADE6ADD6A46C001F0B6EC68
:10064A002AF001C0A0F002C0A1F00001A1BF32EF60
:10065A0003F030EF03F035EF03F00B0ECEEF08F0A6
:10066A00A051020DF350FA0FD96EDA6ADECFB8F054
:10067A00DDCFB9F0B851B911D8A446EF03F048EF6D
:10068A0003F04BEF03F00C0ECEEF08F04550D96E95
:10069A00DA6AB8C0DEFFB9C0DDFFB8C0D9FFB9C099
:1006AA00DAFFDF50D8B45CEF03F05EEF03F085EFBA
:1006BA0003F020EE01F0B851D926B951DA22DF5001
:1006CA00CFEC30F00001AC6FACB16EEF03F070EF1D
:1006DA0003F085EF03F04750D8B476EF03F078EFD4
:1006EA0003F082EF03F0ACA57DEF03F07FEF03F098
:1006FA0082EF03F00A0ECEEF08F0000ECEEF08F0FC
:10070A00B8C0D9FFB9C0DAFFDF6A20EE01F0B851EC
:10071A00D926B951DA22A0C0DFFF20EE01F0B85184
:10072A00D926B951DA22DF505AEC21F00001AC6F18
:10073A00ACA1A2EF03F0A4EF03F0A7EF03F0030EBE
:10074A00CEEF08F04750D8B4ADEF03F0AFEF03F0A7
:10075A00B8EF03F0ACA5B4EF03F0B6EF03F0B8EFCF
:10076A0003F07FEF03F0000EB16F000EB26F000EC0
:10077A00B36F000EB46FB8C03BF0B9C03CF0000EC6
:10078A003D6E000E3E6E000E3F6E000E406E28EC6F
:10079A002AF00001B76FB705D8B4D6EF03F0D8EF47
:1007AA0003F0DAEF03F095EF04F0000EB66F000ED7
:1007BA00B56FB65109E1040EB55DD8A0E7EF03F0B5
:1007CA00E9EF03F0EBEF03F03CEF04F0B5C048F0BB
:1007DA00B6C049F0483A493AF00E491648500F0B4C
:1007EA004912F00E48164850B8254A6E4950B921A8
:1007FA004B6EEC0E4A249A6F010E4B209B6F20EE33
:10080A0004F09A51D9269B51DA22DF50D8A410EF6E
:10081A0004F012EF04F01CEF04F0000E906F000ECB
:10082A00916F000E926F000E936F2AEF04F020EE84
:10083A0008F09A51D9269B51DA22DECF90F0DECF0A
:10084A0091F0DECF92F0DECF93F0B551040DF35064
:10085A00800FD96EDA6A90C0DEFF91C0DEFF92C0C7
:10086A00DEFF93C0DEFFB54BB62BDEEF03F0000EC2
:10087A00B66F000EB56FB551B611D8B447EF04F094
:10088A0049EF04F04CEF04F0B507D8A0B607B5510C
:10089A00040DF350800FD96EDA6ADECFB1F0DECFE5
:1008AA00B2F0DECFB3F0DECFB4F0B151B211B31172
:1008BA00B411D8A463EF04F065EF04F06BEF04F011
:1008CA00000E956F020E946F7EEF04F0B8C03BF0F5
:1008DA00B9C03CF0B1C03DF0B2C03EF0B3C03FF089
:1008EA00B4C040F028EC2AF0486E48500001946FDA
:1008FA00956B94C0B7F0B751D8B486EF04F088EF7F
:10090A0004F095EF04F0B54BB62BB65109E1040E8D
:10091A00B55DD8A093EF04F095EF04F04CEF04F026
:10092A00030EB719D8A49CEF04F09EEF04F0A1EFD0
:10093A0004F0010ECEEF08F0B751D8B4A7EF04F0D7
:10094A00A9EF04F0ACEF04F00D0ECEEF08F020EEA4
:10095A0039F0B851D926B951DA22DE5009E1020E2E
:10096A00DE18D8B4BBEF04F0BDEF04F0BFEF04F01B
:10097A00A9EF04F020EE44F0B851D926B951DA2291
:10098A00DECF48F0DDCF49F048C0ADF049C0AEF047
:10099A00AF6BB06BAD51AE11AF11B011D8A4D8EF97
:1009AA0004F0DAEF04F0E8EF04F020EE52F0B85168
:1009BA00D926B951DA22DECFADF0DECFAEF0DECFE6
:1009CA00AFF0DECFB0F020EE16F0B851D926B9510B
:1009DA00DA22ADC0DEFFAEC0DEFFAFC0DEFFB0C0C0
:1009EA00DEFF20EE3EF0B851D926B951DA2210EED8
:1009FA0003F0B851E126B951E222DFCFE7FF20EE3A
:100A0A0003F0B851D926B951DA22DE04D8B410EF6E
:100A1A0005F012EF05F023EF05F020EE03F0B851D0
:100A2A00D926B951DA22020EDE18D8B41FEF05F022
:100A3A0021EF05F023EF05F0A9EF04F0ADC001F0B6
:100A4A00AEC002F0AFC003F0B0C004F020EE03F075
:100A5A00B851D926B951DA22DF50486E4850056E8E
:100A6A00066A076A086A70EC2FF001C0ADF002C08E
:100A7A00AEF003C0AFF004C0B0F0000120EE3BF0CE
:100A8A00B851D926B951DA2210EE02F0B851E1264E
:100A9A00B951E222DFCFE7FF20EE02F0B851D926A2
:100AAA00B951DA22DF50D8B45DEF05F05FEF05F0F7
:100ABA00A9EF04F020EE02F0B851D926B951DA2292
:100ACA00DF50486EFF0E4824496E4A6AFF0E4A22DA
:100ADA0020EE02F0B851D926B951DA22DF504B6E16
:100AEA004B504916000E4A1649504A10D8B480EFA6
:100AFA0005F082EF05F084EF05F0A9EF04F020EE8F
:100B0A003FF0B851D926B951DA2210EE08F0B8519F
:100B1A00E126B951E222DECFE6FFDDCFE5FF20EE86
:100B2A0008F0B851D926B951DA22DECF48F0DDCF24
:100B3A0049F00F0E4816000E491648504910D8B40D
:100B4A00A9EF05F0ABEF05F0ADEF05F0A9EF04F062
:100B5A0020EE41F0B851D926B951DA22DECF48F059
:100B6A00DDCF49F048C0A4F049C0A5F0A66BA76B39
:100B7A00A451A511A611A711D8A4C6EF05F0C8EF74
:100B8A0005F0D6EF05F020EE4EF0B851D926B9514E
:100B9A00DA22DECFA4F0DECFA5F0DECFA6F0DECFDC
:100BAA00A7F020EE3CF0B851D926B951DA22DECFAF
:100BBA00A2F0DDCFA3F0A251A311D8A4E7EF05F06C
:100BCA00E9EF05F0EBEF05F0A9EF04F020EE08F0ED
:100BDA00B851D926B951DA22DECF48F0DDCF49F033
:100BEA00040E4A6ED890493248324A2EF7EF05F081
:100BFA00A25148244B6EA35149204C6E4D6AD8B07D
:100C0A004D2A4E6AAD514B249C6FAE514C209D6FBC
:100C1A00AF514D209E6FB0514E209F6F9C51A45DE5
:100C2A009D51A5599E51A6599F51A759D8B020EF59
:100C3A0006F022EF06F024EF06F0A9EF04F09C512B
:100C4A00A45D016E9D51A559026E9E51A659036E6F
:100C5A009F51A759046E20EE02F0B851D926B95116
:100C6A00DA22DF50486E4850056E066A076A086A3B
:100C7A0053EC2EF001C0A8F002C0A9F003C0AAF0FC
:100C8A0004C0ABF00001A851A911AA11AB11D8A454
:100C9A0051EF06F053EF06F055EF06F0A9EF04F016
:100CAA00010EB76FAB51AA110BE1F60EA85D0F0E3C
:100CBA00A959D8A063EF06F065EF06F067EF06F0D2
:100CCA00020EB76FAB51AA110BE1F60EA85DFF0E2B
:100CDA00A959D8A073EF06F075EF06F077EF06F082
:100CEA00030EB76F020EA825486E000EA921496EA1
:100CFA00000EAA214A6E000EAB214B6E20EE12F0B6
:100D0A00B851D926B951DA2248C0DEFF49C0DEFF00
:100D1A004AC0DEFF4BC0DEFF20EE1AF0B851D926DA
:100D2A00B951DA22B1C0DEFFB2C0DEFFB3C0DEFFC6
:100D3A00B4C0DEFFA251B125486EA351B221496E5B
:100D4A00000EB3214A6E000EB4214B6E20EE1EF047
:100D5A00B851D926B951DA2248C0DEFF49C0DEFFB0
:100D6A004AC0DEFF4BC0DEFF9C51B125486E9D5143
:100D7A00B221496E9E51B3214A6E9F51B4214B6EE6
:100D8A0020EE26F0B851D926B951DA2248C0DEFF42
:100D9A0049C0DEFF4AC0DEFF4BC0DEFF030EB719B3
:100DAA00D8A4DAEF06F0DCEF06F022EF07F020EE27
:100DBA0008F0B851D926B951DA22DE50DE10D8B47B
:100DCA00E9EF06F0EBEF06F0EDEF06F0A9EF04F01D
:100DDA0020EE5AF0B851D926B951DA2210EE22F093
:100DEA00B851E126B951E222DECFE6FFDECFE6FFB7
:100DFA00DECFE6FFDECFE6FF20EE12F0B851D926AD
:100E0A00B951DA22DECF48F0DECF49F0DECF4AF020
:100E1A00DECF4BF0020ED890483649364A364B366A
:100E2A00E82E10EF07F048C096F049C097F04AC084
:100E3A0098F04BC099F0C1EF07F020EE08F0B851D6
:100E4A00D926B951DA22DE50DE10D8A42FEF07F0E6
:100E5A0031EF07F033EF07F0A9EF04F020EE1EF0B0
:100E6A00B851D926B951DA22DECF48F0DECF49F09F
:100E7A00DECF4AF0DECF4BF0AD5148244C6EAE5176
:100E8A0049204D6EAF514A204E6EB0514B204F6EE5
:100E9A0020EE22F0B851D926B951DA224CC0DEFF31
:100EAA004DC0DEFF4EC0DEFF4FC0DEFF020EB71997
:100EBA00D8B462EF07F064EF07F0AAEF07F020EE6C
:100ECA0012F0B851D926B951DA22DECF48F0DECF76
:100EDA0049F0DECF4AF0DECF4BF0010E48144C6EDB
:100EEA00000E49144D6E000E4A144E6E000E4B143D
:100EFA004F6E20EE12F0B851D926B951DA22DECF60
:100F0A0001F0DECF02F0DECF03F0DECF04F0030EF5
:100F1A00056E000E066E000E076E000E086E70EC6F
:100F2A002FF0D89004320332023201324C5001249D
:100F3A000001966F4D500220976F4E500320986F14
:100F4A004F500420996FC1EF07F020EE12F0B8510C
:100F5A00D926B951DA22DECF48F0DECF49F0DECF0A
:100F6A004AF0DECF4BF0D8904834966F4934976FE9
:100F7A004A34986F4B34996FFF0E9625486E010ECE
:100F8A009721496E000E98214A6E000E99214B6EE8
:100F9A000A0ED5EF07F0D8904B324A32493248321E
:100FAA00E82ED0EF07F020EE16F0B851D926B95145
:100FBA00DA224850DE5C4950DE584A50DE584B501F
:100FCA00DE58D8B0EBEF07F0EDEF07F0EFEF07F0E0
:100FDA00A9EF04F020EE0EF0B851D926B951DA2261
:100FEA00FF0EDE6EFF0EDE6EFF0EDE6EFF0EDD6E94
:100FFA00DD52DD5210EE0AF0B851E126B951E22273
:10100A00DECFE6FFDECFE6FFDECFE6FFDECFE6FF8E
:10101A0020EE05F0B851D926B951DA22800EDF6EDA
:10102A00030EB719D8A41CEF08F01EEF08F0B9EFA9
:10103A0008F020EE5EF0B851D926B951DA22DE0462
:10104A00DE10D8A42BEF08F02DEF08F0B9EF08F066
:10105A00B8C030F0B9C031F0010EB125326E000EC1
:10106A00B221336E000EB321346E000EB421356EF8
:10107A003CEC2DF00009D8A445EF08F047EF08F042
:10108A00B9EF08F0000120EE05F0B851D926B951A0
:10109A00DA22DF6A22EE2CF0B851D926B951DA22C7
:1010AA00550EDE1807E1AA0EDE18D8A45FEF08F085
:1010BA0061EF08F0B9EF08F020EE2EF0B851D9260A
:1010CA00B951DA22520EDE180DE1520EDE180AE18B
:1010DA00610EDE1807E1410EDE18D8A477EF08F09A
:1010EA0079EF08F0B9EF08F022EE12F0B851D926DC
:1010FA00B951DA22720EDE180DE1720EDE180AE11B
:10110A00410EDE1807E1610EDE18D8A48FEF08F051
:10111A0091EF08F0B9EF08F022EE16F0B851D9268F
:10112A00B951DA2210EE0EF0B851E126B951E22295
:10113A00DECFE6FFDECFE6FFDECFE6FFDECFE6FF5D
:10114A0022EE1AF0B851D926B951DA2210EE0AF075
:10115A00B851E126B951E222DECFE6FFDECFE6FF43
:10116A00DECFE6FFDECFE6FFB8C0D9FFB9C0DAFFAF
:10117A00B7C0DFFF0001F84BF92B20EE06F0B8519B
:10118A00D926B951DA22F8C0DEFFF9C0DDFF82EFB5
:10119A0003F012006FC081F07250D96EDA6ADE6A0B
:1011AA00DD6A6DC002F06EC003F012EC2CF0000193
:1011BA00806F8051D8B4E4EF08F0E6EF08F0E8EF6A
:1011CA0008F0F5EF0CF020EE05F06D50D9266E50C0
:1011DA00DA22DF50D8B4F4EF08F0F6EF08F0F8EFAF
:1011EA0008F0F5EF0CF020EE04F06D50D9266E50A1
:1011FA00DA22DFB203EF09F005EF09F007EF09F091
:10120A00F5EF0CF020EE06F06D50D9266E50DA227A
:10121A0010EE06F06D50E1266E50E222E6CF77F02E
:10122A00E6CF78F0E6CF79F0E6CF7AF070507724FF
:10123A007B6E715078207C6E000E79207D6E000ED8
:10124A007A207E6EDE507B5CDE507C58DE507D5804
:10125A00DE507E58D8B034EF09F036EF09F0B5EF1A
:10126A000CF0000E716E000E706EB5EF0CF020EEF1
:10127A0006F06D50D9266E50DA22FF0EDE14736E18
:10128A00010EDE14746E000EDE14756E000EDE148E
:10129A00766E7350741075107610D8A457EF09F053
:1012AA0059EF09F00CEF0CF020EE06F06D50D9263C
:1012BA006E50DA22DECF73F0DECF74F0DECF75F037
:1012CA00DECF76F00A0E6FEF09F0D89076327532DB
:1012DA0074327332E82E6AEF09F06DC0D9FF6EC01E
:1012EA00DAFF10EE02F0DE50E126DD50E222E7508E
:1012FA00776E77047314826F8251D8A487EF09F04E
:10130A0089EF09F057EF0AF020EE06F06D50D92662
:10131A006E50DA22DE50DE10DE10DE10D8A498EF0E
:10132A0009F09AEF09F0CFEF09F020EE0EF06D50B8
:10133A00D9266E50DA22DECF89F0DECF8AF0DECFF0
:10134A008BF0DECF8CF089518A118B118C11D8A4C5
:10135A00B1EF09F0B3EF09F0EFEF09F06DC0D9FF73
:10136A006EC0DAFFDECF56F0DDCF57F0000E586EB2
:10137A00000E596E000E5A6E000E5B6E27EC1CF0C2
:10138A0056C089F057C08AF058C08BF059C08CF00B
:10139A00EFEF09F06DC0D9FF6EC0DAFFDECF56F06D
:1013AA00DDCF57F020EE12F06D50D9266E50DA22BA
:1013BA00DECF58F0DECF59F0DECF5AF0DECF5BF049
:1013CA0027EC1CF056C089F057C08AF058C08BF041
:1013DA0059C08CF0000189518A118B118C11D8A443
:1013EA00F9EF09F0FBEF09F0FDEF09F0BEEF0CF0A1
:1013FA0089058A118B118C11D8A406EF0AF008EF1F
:10140A000AF012EF0AF020EE05F06D50D9266E5060
:10141A00DA22020EDF6EF5EF0CF089290AE18A2939
:10142A0008E18B2906E18C29D8A41EEF0AF020EFE7
:10143A000AF02AEF0AF020EE05F06D50D9266E5018
:10144A00DA22010EDF6EF5EF0CF020EE12F06D508D
:10145A00D9266E50DA2289C0DEFF8AC0DEFF8BC031
:10146A00DEFF8CC0DEFF20EE0EF06D50D9266E50E6
:10147A00DA22DE50DE10DE10DE10D8A447EF0AF0C2
:10148A0049EF0AF057EF0AF020EE0EF06D50D92618
:10149A006E50DA2289C0DEFF8AC0DEFF8BC0DEFF13
:1014AA008CC0DEFF20EE16F06D50D9266E50DA227F
:1014BA006DC0E1FF6EC0E2FF00EE2AF0E650E926B9
:1014CA00E550EA22DE50EE180DE1DE50EE180AE190
:1014DA00DE50EE1807E1DE50EE18D8A477EF0AF0D6
:1014EA0079EF0AF095EF0AF06DC0D9FF6EC0DAFF06
:1014FA00DECF1BF0DDCF1CF0F3EC26F00009D8B4E8
:10150A0089EF0AF08BEF0AF095EF0AF020EE05F06A
:10151A006D50D9266E50DA22010EDF6EF5EF0CF00F
:10152A006DC0D9FF6EC0DAFFDECF0DF0DDCF0EF051
:10153A0020EE12F06D50D9266E50DA22DECF0FF06F
:10154A00DECF10F0DECF11F0DECF12F0D9EC2CF0A6
:10155A000DC083F00EC084F00FC085F010C086F075
:10156A0000018351841185118611D8A4BFEF0AF0B6
:10157A00C1EF0AF0CBEF0AF020EE05F06D50D92644
:10158A006E50DA22020EDF6EF5EF0CF082518327DD
:10159A00000E84238523862370C073F071C074F013
:1015AA00090E756ED89074327332752ED7EF0AF021
:1015BA0073C087F074C088F087518811D8B4E8EFF7
:1015CA000AF0EAEF0AF0B5EF0BF082518725736E45
:1015DA00000E8821746E6DC0D9FF6EC0DAFF10EE5E
:1015EA0002F0DE50E126DD50E222E750756E766A9F
:1015FA007350755C74507658D8B006EF0BF008EF4C
:10160A000BF01AEF0BF06DC0D9FF6EC0DAFF10EEC7
:10161A0002F0DE50E126DD50E222E750736E82517D
:10162A00735C876F886BD8A0880781C011F011504E
:10163A00D8A4060E126E83C013F084C014F085C0BD
:10164A0015F086C016F087C017F088C018F06DC074
:10165A00D9FF6EC0DAFF10EE01F0DE50E126DD5050
:10166A00E222E75084EC24F00009D8B43FEF0BF0F3
:10167A0041EF0BF04BEF0BF020EE05F06D50D92641
:10168A006E50DA22010EDF6EF5EF0CF00001875181
:10169A00736E8851746E756A766A6DC0D9FF6EC0B2
:1016AA00DAFF10EE2AF0DE50E126DD50E222E6CF24
:1016BA0077F0E6CF78F0E6CF79F0E6CF7AF083518B
:1016CA00775C7B6E845178587C6E855179587D6E33
:1016DA0086517A587E6E73507B5C74507C58755074
:1016EA007D5876507E58D8B07DEF0BF07FEF0BF027
:1016FA00A4EF0BF06DC0D9FF6EC0DAFFDECF73F036
:10170A00DDCF74F02E0E7324016E000E7420026E6B
:10171A0081C003F00350D8A4060E046E020E066EB2
:10172A00000E056EA9EC2BF06DC0D9FF6EC0DAFF72
:10173A0010EE04F0DE50E126DD50E222E76A87C0AF
:10174A0073F088C074F0090ED89073367436E82E98
:10175A00A9EF0BF073C08DF074C08EF09AEF0CF005
:10176A0020EE0AF06D50D9266E50DA2210EE06F0FD
:10177A006D50E1266E50E222DE50E65CDE50E658FD
:10178A00DE50E658DE50E658D8A0CEEF0BF0D0EF88
:10179A000BF0FEEF0BF06DC0D9FF6EC0DAFFDECFA3
:1017AA001BF0DDCF1CF0F3EC26F00009D8B4E0EF13
:1017BA000BF0E2EF0BF0ECEF0BF020EE05F06D50C2
:1017CA00D9266E50DA22010EDF6EF5EF0CF06DC0ED
:1017DA00D9FF6EC0DAFF10EE2AF0DE50E126DD50A6
:1017EA00E22283C0E6FF84C0E6FF85C0E6FF86C02A
:1017FA00E6FF20EE16F06D50D9266E50DA2283C02D
:10180A00DEFF84C0DEFF85C0DEFF86C0DEFF20EE7D
:10181A0006F06D50D9266E50DA22DECF73F0DDCF96
:10182A0074F0FF0E7314756E010E7414766E755093
:10183A00000800018D6F7650D8A0E82A02088E6F42
:10184A008D51705C8E517158D8B02EEF0CF030EF7C
:10185A000CF034EF0CF070C08DF071C08EF06DC0DA
:10186A00D9FF6EC0DAFFDECF30F0DDCF31F020EEE7
:10187A0016F06D50D9266E50DA22DECF32F0DECF66
:10188A0033F0DECF34F0DECF35F03CEC2DF000093A
:10189A00D8B452EF0CF054EF0CF05EEF0CF020EEDF
:1018AA0005F06D50D9266E50DA22010EDF6EF5EF83
:1018BA000CF020EE06F06D50D9266E50DA22DECFFB
:1018CA0073F0DDCF74F0FF0E7314756E010E74148D
:1018DA00766E6DC0D9FF6EC0DAFFDECF77F0DDCF4E
:1018EA0078F075507724796E765078207A6E2E0EBD
:1018FA007924016E000E7A20026E81C003F0035033
:10190A00D8A4060E046E8DC005F08EC006F0A9ECB0
:10191A002BF06DC0D9FF6EC0DAFF10EE04F0DE5076
:10192A00E126DD50E222010EE76E00018D5181278A
:10193A0020EE06F06D50D9266E50DA228D51DE2641
:10194A008E51DE22000EDE22DE227250D96EDA6A53
:10195A008D51DE268E51DD228D51705E8E51715A67
:10196A0070507110D8A4BCEF0CF0BEEF0CF03CEF35
:10197A0009F020EE06F06D50D9266E50DA2210EEEC
:10198A000AF06D50E1266E50E222DE50E65CDE502F
:10199A00E658DE50E658DE50E658D8B0D7EF0CF0DD
:1019AA00D9EF0CF0EDEF0CF020EE06F06D50D926D1
:1019BA006E50DA2210EE0AF06D50E1266E50E222E5
:1019CA00DECFE6FFDECFE6FFDECFE6FFDECFE6FFC5
:1019DA0020EE04F06D50D9266E50DA22000EDB8A12
:1019EA0012006DC002F06EC003F012EC2CF0000180
:1019FA00906F9051D8B404EF0DF006EF0DF008EF98
:101A0A000DF088EF10F020EE05F06D50D9266E50DB
:101A1A00DA22DF50D8B414EF0DF016EF0DF018EFFC
:101A2A000DF088EF10F020EE0AF06D50D9266E50B6
:101A3A00DA226F50DE5C7050DE587150DE587250F8
:101A4A00DE58D8B02BEF0DF02DEF0DF048EF0DF06A
:101A5A0020EE04F06D50D9266E50DA22DFB238EF4C
:101A6A000DF03AEF0DF048EF0DF020EE0AF06D5050
:101A7A00D9266E50DA22DECF6FF0DECF70F0DECFDD
:101A8A0071F0DECF72F020EE06F06D50D9266E505E
:101A9A00DA22DECF91F0DECF92F0DECF93F0DECF06
:101AAA0094F0000E956F000E966F000E976F000E61
:101ABA00986F20EE06F06D50D9266E50DA2295C046
:101ACA00DEFF96C0DEFF97C0DEFF98C0DEFF6F50D4
:101ADA00701071107210D8B475EF0DF077EF0DF029
:101AEA000EEF10F06DC0D9FF6EC0DAFF10EE02F0F3
:101AFA00DE50E126DD50E222E750806F80C081F09F
:101B0A00826B836B846B090ED89081378237833757
:101B1A008437E82E89EF0DF081C099F082C09AF0DF
:101B2A0083C09BF084C09CF091519211931194113F
:101B3A00D8B4A2EF0DF0A4EF0DF041EF0EF0FF0EB6
:101B4A006F24016EFF0E7020026EFF0E7120036E6D
:101B5A00FF0E7220046E99C005F09AC006F09BC071
:101B6A0007F09CC008F053EC2EF001C080F002C0D0
:101B7A0081F003C082F004C083F0FF0E00019125BA
:101B8A00016EFF0E9221026EFF0E9321036EFF0E6D
:101B9A009421046E99C005F09AC006F09BC007F024
:101BAA009CC008F053EC2EF001500001805D0250F9
:101BBA0081590350825904508359D8A0E7EF0DF098
:101BCA00E9EF0DF041EF0EF0FF0E9925806FFF0E41
:101BDA009A21816FFF0E9B21826FFF0E9C21836FDA
:101BEA00801D846F811D856F821D866F831D876F9F
:101BFA00FF0E9125886FFF0E9221896FFF0E9321A8
:101C0A008A6FFF0E94218B6F845188158C6F8551D2
:101C1A0089158D6F86518A158E6F87518B158F6F37
:101C2A0020EE06F06D50D9266E50DA228CC0DEFF07
:101C3A008DC0DEFF8EC0DEFF8FC0DEFF20EE06F015
:101C4A006D50D9266E50DA22DE506F5EDE50705A21
:101C5A00DE50715ADD50725A20EE12F06D50D926BC
:101C6A006E50DA22DECF9DF0DECF9EF0DECF9FF0FF
:101C7A00DECFA0F0BEEF0EF020EE0EF06D50D926AA
:101C8A006E50DA22DECF9DF0DECF9EF0DECF9FF0DF
:101C9A00DECFA0F09D519E119F11A011D8A458EF3C
:101CAA000EF05AEF0EF0B0EF0EF06DC0D9FF6EC015
:101CBA00DAFFDECF56F0DDCF57F0000E586E000E79
:101CCA00596E000E5A6E000E5B6E27EC1CF056C061
:101CDA009DF057C09EF058C09FF059C0A0F0000177
:101CEA009D059E119F11A011D8A47EEF0EF080EFE2
:101CFA000EF08AEF0EF020EE05F06D50D9266E50E8
:101D0A00DA22020EDF6E88EF10F09D290AE19E2981
:101D1A0008E19F2906E1A029D8A496EF0EF098EFD2
:101D2A000EF0A2EF0EF020EE05F06D50D9266E509F
:101D3A00DA22010EDF6E88EF10F020EE0EF06D5001
:101D4A00D9266E50DA229DC0DEFF9EC0DEFF9FC0FC
:101D5A00DEFFA0C0DEFF20EE12F06D50D9266E50D5
:101D6A00DA229DC0DEFF9EC0DEFF9FC0DEFFA0C05C
:101D7A00DEFF9D519E119F11A011D8B4C7EF0EF03E
:101D8A00C9EF0EF00EEF10F08FEF0FF020EE04F017
:101D9A006D50D9266E50DA22DFA2D6EF0EF0D8EFB8
:101DAA000EF008EF0FF06DC0D9FF6EC0DAFFDECF7C
:101DBA0056F0DDCF57F09DC058F09EC059F09FC035
:101DCA005AF0A0C05BF027EC1CF056C09DF057C03B
:101DDA009EF058C09FF059C0A0F000019D519E117D
:101DEA009F11A011D8A4FCEF0EF0FEEF0EF022EF27
:101DFA000FF099C06FF09AC070F09BC071F09CC050
:101E0A0072F09EEF0FF06DC0D9FF6EC0DAFFDECF21
:101E1A003BF0DDCF3CF09DC03DF09EC03EF09FC040
:101E2A003FF0A0C040F038EC1AF03BC09DF03CC037
:101E3A009EF03DC09FF03EC0A0F000019D290AE13E
:101E4A009E2908E19F2906E1A029D8A42FEF0FF0C7
:101E5A0031EF0FF03BEF0FF020EE05F06D50D92671
:101E6A006E50DA22010EDF6E88EF10F0A0519F113A
:101E7A009E1109E1020E9D5DD8A046EF0FF048EFD2
:101E8A000FF061EF0FF06DC0D9FF6EC0DAFF10EEF0
:101E9A0012F0DE50E126DD50E222E6509D5DE6506A
:101EAA009E59E6509F59E650A059D8A05FEF0FF00F
:101EBA0061EF0FF06BEF0FF020EE05F06D50D926B1
:101ECA006E50DA22020EDF6E88EF10F020EE12F06A
:101EDA006D50D9266E50DA229DC0DEFF9EC0DEFF0D
:101EEA009FC0DEFFA0C0DEFF20EE06F06D50D926AF
:101EFA006E50DA229951DE269A51DE229B51DE2259
:101F0A009C51DE2299516F5E9A51705A9B51715AB7
:101F1A009C51725A6F50995D70509A5971509B59E1
:101F2A0072509C59D8A09CEF0FF09EEF0FF0CBEFA8
:101F3A000EF020EE06F06D50D9266E50DA226F5060
:101F4A00DE267050DE227150DE227250DE22FF0E33
:101F5A006F14806F010E7014816F000E7114826FFE
:101F6A00000E7214836F8051811182118311D8B4CB
:101F7A00C1EF0FF0C3EF0FF00EEF10F06DC0D9FFF5
:101F8A006EC0DAFFDECF0DF0DDCF0EF09DC00FF090
:101F9A009EC010F09FC011F0A0C012F0D9EC2CF036
:101FAA000DC095F00EC096F00FC097F010C098F0D3
:101FBA0000019551961197119811D8A4E7EF0FF0E7
:101FCA00E9EF0FF0F3EF0FF020EE05F06D50D92690
:101FDA006E50DA22020EDF6E88EF10F06FC080F0CA
:101FEA0070C081F071C082F072C083F00A0E03EFF4
:101FFA0010F0D8908333823381338033E82EFEEF9A
:10200A000FF080519527815196238251972383514E
:10201A00982320EE06F06D50D9266E50DA22FF0E74
:10202A00DE14806F010EDE14816F000EDE14826FE3
:10203A00000EDE14836F8051811182118311D8B48E
:10204A0029EF10F02BEF10F051EF10F020EE16F000
:10205A006D50D9266E50DA229551DE180FE196514D
:10206A00DE180CE19751DE1809E19851DE18D8B450
:10207A0041EF10F043EF10F051EF10F020EE16F0A0
:10208A006D50D9266E50DA2295C0DEFF96C0DEFF6B
:10209A0097C0DEFF98C0DEFF20EE06F06D50D9260D
:1020AA006E50DA2210EE0AF06D50E1266E50E222EE
:1020BA00DE50E65CDE50E658DE50E658DE50E65862
:1020CA00D8B06AEF10F06CEF10F088EF10F020EE45
:1020DA0006F06D50D9266E50DA2210EE0AF06D50D5
:1020EA00E1266E50E222DECFE6FFDECFE6FFDECF4C
:1020FA00E6FFDECFE6FF20EE04F06D50D9266E50E3
:10210A00DA22000EDB8A1200306E12C037F013C0DA
:10211A0038F03050D8B494EF10F096EF10F099EFF1
:10212A0010F0040E81EF13F0010E356E0001FDA1CF
:10213A00A1EF10F0A3EF10F05BEF13F0030E81EFA5
:10214A0013F0A8EC30F00009D8B4AEEF10F0B0EFFD
:10215A0010F07EEF13F0356A7EEF13F0000E0B6E6F
:10216A00000E0C6E000E0D6E000E0E6E090E02ECC5
:10217A0030F00009D8A4C4EF10F0C6EF10F07EEFDB
:10218A0013F0200E026E036A000E056E100E046E26
:10219A00A5EC2EF00009D8B4D5EF10F0D7EF10F067
:1021AA007EEF13F02044E846030BE806D8A4E0EFDC
:1021BA0010F0E2EF10F02CEF11F027C014F03F0EF0
:1021CA00141614C015F0166A176A186A16C018F0A1
:1021DA0015C017F0166A156A28501A6E2950196E1A
:1021EA00195015241B6E1A5016201C6E000E17204B
:1021FA001D6E000E18201E6E010E1B24316E000E7D
:10220A001C20326E000E1D20336E000E1E20346E0E
:10221A0031C014F032C015F033C016F034C017F0D4
:10222A000A0ED8901436153616361736E82E16EFDB
:10223A0011F012C0D9FF13C0DAFF14C0DEFF15C0B7
:10224A00DEFF16C0DEFF17C0DEFFB0EF10F0146A23
:10225A002AAE01D0142A010E141625C015F00F0E4D
:10226A0015162950030B020DF35015241424020FDE
:10227A00366E2650030B146E156A0A0ED890143661
:10228A001536E82E43EF11F02750166E176AD890CC
:10229A0016361736D8901636173628C018F0060E96
:1022AA00196ED8901832192E56EF11F018501624BC
:1022BA001A6E000E17201B6E14501A241C6E15502D
:1022CA001B201D6E010E1C26000E1D221CC031F0A3
:1022DA001DC032F0336A346A36C014F0F70E142681
:1022EA0031C015F032C016F033C017F034C018F000
:1022FA00142A85EF11F0D890153616361736183687
:10230A00142E80EF11F012C0D9FF13C0DAFF15C0E6
:10231A00DEFF16C0DEFF17C0DEFF18C0DEFFB0EF1B
:10232A0010F0FCA59BEF11F09DEF11F0F7EF11F003
:10233A00000E0B6E000E0C6E000E0D6E000E0E6E71
:10234A008D0E02EC30F00009D8A4AEEF11F0B0EF18
:10235A0011F07EEF13F0FF0EEDEC30F0200E026E5E
:10236A00036A000E056E100E046EA5EC2EF000092D
:10237A00D8B4C2EF11F0C4EF11F07EEF13F0300EB3
:10238A00366ECCEF11F0FF0EEDEC30F0360636501B
:10239A00D8A4D2EF11F0D4EF11F0C8EF11F02AC08F
:1023AA0014F0143A0F0E1416100E156E166A176AE8
:1023BA00186A142AE6EF11F0D89015361636173631
:1023CA001836142EE1EF11F012C0D9FF13C0DAFF4C
:1023DA0015C0DEFF16C0DEFF17C0DEFF18C0DEFF25
:1023EA00B0EF10F0000E0B6E000E0C6E000E0D6EAC
:1023FA00000E0E6E090E02EC30F00009D8A408EFA8
:10240A0012F00AEF12F07EEF13F0200E026E036A4A
:10241A00000E056E100E046EA5EC2EF00009D8B45D
:10242A0019EF12F01BEF12F07EEF13F00001FCA37C
:10243A0021EF12F023EF12F060EF12F02DC014F02A
:10244A00060E156ED8901432152E27EF12F0FF0ED5
:10245A0014262A503F0B166E176AD890163617366E
:10246A00186A2BAE01D0182A010E18161850162613
:10247A00000E1722010E1626000E1722142A49EF03
:10248A0012F0D89016361736142E46EF12F0165060
:10249A00196E17501A6E1B6A1C6A12C0D9FF13C034
:1024AA00DAFF19C0DEFF1AC0DEFF1BC0DEFF1CC048
:1024BA00DEFFB0EF10F02B50030B146E156AD890A4
:1024CA0014361536D89014361536D8901436153673
:1024DA002BC016F0050E176ED8901632172E71EF14
:1024EA0012F0070E161616501426000E1522010EAB
:1024FA001426000E15222A40E8423F0B1F0B186EC5
:10250A00196A010E1826000E192214501802F3CF68
:10251A001AF0F4CF1BF01902F3501B2615501802BB
:10252A00F3501B261A501C6E1B501D6E1E6A1F6A22
:10253A0012C0D9FF13C0DAFF1CC0DEFF1DC0DEFFC8
:10254A001EC0DEFF1FC0DEFFB0EF10F037C0D9FF9C
:10255A0038C0DAFFFCC0DFFFB0EF10F0000E0B6EE0
:10256A00000E0C6E000E0D6E000E0E6E090E02ECC1
:10257A0030F00009D8A4C4EF12F0C6EF12F07EEFD3
:10258A0013F037C002F038C003F0000E056E100ECB
:10259A00046EA5EC2EF00009D8B4D6EF12F0D8EFED
:1025AA0012F07EEF13F0B0EF10F0000E0B6E000E7B
:1025BA000C6E000E0D6E000E0E6E0A0E02EC30F05E
:1025CA000009D8A4EBEF12F0EDEF12F07EEF13F052
:1025DA0037C002F038C003F0000E056E100E046E0C
:1025EA00A5EC2EF00009D8B4FDEF12F0FFEF12F0BF
:1025FA007EEF13F0B0EF10F0000E0B6E000E0C6EB3
:10260A00000E0D6E000E0E6E3A0E02EC30F000094E
:10261A00D8A412EF13F014EF13F07EEF13F0040EA8
:10262A00366E23EF13F0FF0EEDEC30F037C0D9FF12
:10263A0038C0DAFFDF6E374A382A36063650D8A451
:10264A0029EF13F02BEF13F018EF13F0B0EF10F09F
:10265A00000E0B6E000E0C6E000E0D6E000E0E6E4E
:10266A008D0E02EC30F00009D8A43EEF13F040EFD3
:10267A0013F07EEF13F0FF0EEDEC30F037C002F0EE
:10268A0038C003F0000E056E400E046EA5EC2EF065
:10269A000009D8B453EF13F055EF13F07EEF13F09F
:1026AA00B0EF10F0040E356E7EEF13F01150000AF1
:1026BA00D8B4A6EF10F0010AD8B4B3EF10F0020AAA
:1026CA00D8B496EF11F0090AD8B4ABEF12F0010AA8
:1026DA00D8B4B3EF12F0070AD8B4DAEF12F0010A4D
:1026EA00D8B401EF13F0030AD8B42DEF13F057EF63
:1026FA0013F010EC31F03550120040503F103E10EC
:10270A0009E1020E3D5CD8A08DEF13F08FEF13F0B4
:10271A00A4EF13F020EE12F03B50D9263C50DA22F7
:10272A00DE503D5CDE503E58DE503F58DE50405889
:10273A00D8A0A2EF13F0A4EF13F0B5EF15F0020E34
:10274A00536EC8EF15F03DC051F03EC052F0D8901C
:10275A005230466E5130456E4550512646505222EF
:10276A003BC030F03CC031F020EE1EF03B50D92681
:10277A003C50DA22DECF45F0DECF46F0DECF47F01E
:10278A00DECF48F051C049F052C04AF0090E4B6EF4
:10279A00D8904A3249324B2ECDEF13F04950452496
:1027AA00326E4A504620336E000E4720346E000EB9
:1027BA004820356E3CEC2DF0536E5350D8B4E8EFF8
:1027CA0013F0EAEF13F0ECEF13F0C8EF15F0FF0E79
:1027DA005114456E010E5214466E45503B24476E05
:1027EA0046503C20486E2E0E4724546E000E482058
:1027FA00556E514A522A3DB005EF14F007EF14F016
:10280A000CEF14F041C04DF04E6A26EF14F041501F
:10281A00456E466A453A463AF00E461645500F0B43
:10282A004612F00E451654C0D9FF55C0DAFFDF50E4
:10283A000F0B476E486A455047104D6E4650481078
:10284A004E6E54C0D9FF55C0DAFF4DC0DFFF20EEEF
:10285A0004F03B50D9263C50DA22010EDF6E3BC011
:10286A0030F03CC031F020EE1EF03B50D9263C50EF
:10287A00DA22DECF45F0DECF46F0DECF47F0DECFFC
:10288A0048F051C049F052C04AF0090E4B6ED89038
:10289A004A3249324B2E4CEF14F049504524326EDD
:1028AA004A504620336E000E4720346E000E4820F0
:1028BA00356E3CEC2DF0536E5350D8B467EF14F0DC
:1028CA0069EF14F06BEF14F0C8EF15F0FF0E511416
:1028DA00456E010E5214466E45503B24476E4650D3
:1028EA003C20486E2E0E4724546E000E4820556E2A
:1028FA003DB082EF14F084EF14F0A2EF14F041C05F
:10290A0045F042C046F043C047F044C048F046C0D4
:10291A0045F047C046F048C047F0486A0F0E4516D2
:10292A0054C0D9FF55C0DAFFDF50F00B4510496E8D
:10293A0049504F6E506AB8EF14F041C045F042C09A
:10294A0046F043C047F044C048F0050EB2EF14F019
:10295A00D8904832473246324532E82EADEF14F06D
:10296A0045504F6E506A54C0D9FF55C0DAFF4FC068
:10297A00DFFF20EE04F03B50D9263C50DA22010E4C
:10298A00DF6EC8EF15F03BC030F03CC031F020EEEE
:10299A001EF03B50D9263C50DA22DECF45F0DECF7E
:1029AA0046F0DECF47F0DECF48F03DC049F03EC0EA
:1029BA004AF03FC04BF040C04CF04AC049F04BC00F
:1029CA004AF04CC04BF04C6A45504924326E46508E
:1029DA004A20336E47504B20346E48504C20356E97
:1029EA003CEC2DF0536E5350D8B4FEEF14F000EFC8
:1029FA0015F002EF15F0C8EF15F03DC045F03EC0E6
:102A0A0046F0D89045364636FF0E4514476E010EFD
:102A1A004614486E47503B24496E48503C204A6E43
:102A2A002E0E4924546E000E4A20556E54C0D9FF0A
:102A3A0055C0DAFF41C0DEFF42C0DDFF20EE04F0E0
:102A4A003B50D9263C50DA22010EDF6EC8EF15F052
:102A5A003BC030F03CC031F020EE1EF03B50D9268E
:102A6A003C50DA22DECF45F0DECF46F0DECF47F02B
:102A7A00DECF48F03DC049F03EC04AF03FC04BF0BF
:102A8A0040C04CF0080E4FEF15F0D8904C324B3244
:102A9A004A324932E82E4AEF15F045504924326E3F
:102AAA0046504A20336E47504B20346E48504C20D3
:102ABA00356E3CEC2DF0536E5350D8B467EF15F0D9
:102ACA0069EF15F06BEF15F0C8EF15F03DC045F052
:102ADA003EC046F0D89045364636D89045364636FA
:102AEA00FF0E4514476E010E4614486E47503B24AC
:102AFA00496E48503C204A6E2E0E4924546E000EF0
:102B0A004A20556E54C0D9FF55C0DAFF000EDE14B4
:102B1A00456E000EDE14466E000EDE14476EF00E91
:102B2A00DE14486E45504112465042124750431235
:102B3A004850441254C0D9FF55C0DAFF41C0DEFFE5
:102B4A0042C0DEFF43C0DEFF44C0DEFF20EE04F0D9
:102B5A003B50D9263C50DA22010EDF6EC8EF15F041
:102B6A003BC0D9FF3CC0DAFFDF50010AD8B4A8EF56
:102B7A0013F0030AD8B4C8EF14F0010AD8B42DEF41
:102B8A0015F0A4EF13F0535012006D50D96EDA6AA3
:102B9A00040ED926DECF70F0DDCF71F0010E70245D
:102BAA007A6E000E71207B6E7A507B10D8B4E0EFFB
:102BBA0015F0E2EF15F0F2EF15F06D50D96EDA6A02
:102BCA000E0ED926DE50DE10DE10DE10D8A4F0EF8D
:102BDA0015F0F2EF15F0F5EF15F0040E0EEF18F000
:102BEA000F0E7A14706E000E7B14716E7050711095
:102BFA00D8A402EF16F004EF16F0DDEF17F06D50CF
:102C0A00D96EDA6A0E0ED926DE2A000EDE22DE22FE
:102C1A00DE226D50D96EDA6A0A0ED926DE50DE102F
:102C2A00DE10DE10D8A41CEF16F01EEF16F034EFFB
:102C3A0016F06D50D96EDA6A10EE08F0DE50E12611
:102C4A00DD50E222E6507A5CE6507B58D8A030EF9D
:102C5A0016F032EF16F0DDEF17F0F2EF15F07AC04A
:102C6A0070F07BC071F0040E726ED89071327032BF
:102C7A00722E3AEF16F06D50D96EDA6A10EE02F043
:102C8A00DE50E126DD50E222E750736EFF0E732418
:102C9A00746E756AFF0E752270507414766E7150D8
:102CAA007514776E76507710D8A45EEF16F060EF41
:102CBA0016F0DDEF17F06D50D96EDA6ADECF3BF011
:102CCA00DDCF3CF06D50D96EDA6A0A0ED926DECF16
:102CDA003DF0DECF3EF0DECF3FF0DECF40F038EC05
:102CEA001AF03BC07CF03CC07DF03DC07EF03EC097
:102CFA007FF07F507E107D1007E1020E7C5CD8B019
:102D0A0089EF16F08BEF16F08EEF16F0020E0EEF2B
:102D1A0018F07C280AE17D2808E17E2806E17F2850
:102D2A00D8A49AEF16F09CEF16F09FEF16F0010E5A
:102D3A000EEF18F06D50D96EDA6A10EE12F0DE500E
:102D4A00E126DD50E222E6507C5CE6507D58E650F2
:102D5A007E58E6507F58D8A0B5EF16F0B7EF16F0B8
:102D6A00B2EF17F06E506F10D8A4BEEF16F0C0EF96
:102D7A0016F0C2EF16F0F2EF15F06D50D96EDA6A5E
:102D8A00DECF56F0DDCF57F06D50D96EDA6A0A0EF3
:102D9A00D926DECF58F0DECF59F0DECF5AF0DECF9B
:102DAA005BF027EC1CF056C07CF057C07DF058C091
:102DBA007EF059C07FF07C507D107E107F10D8A421
:102DCA00E9EF16F0EBEF16F0EEEF16F0070E0EEF46
:102DDA0018F07C047D107E107F10D8A4F7EF16F04F
:102DEA00F9EF16F0FBEF16F08BEF16F07C280AE1EC
:102DFA007D2808E17E2806E17F28D8A407EF17F08E
:102E0A0009EF17F00BEF17F09CEF16F06D50D96E23
:102E1A00DA6ADECF1BF0DDCF1CF0F3EC26F00009F6
:102E2A00D8B41AEF17F01CEF17F01EEF17F09CEF4B
:102E3A0016F06D50D96EDA6ADECF70F0DDCF71F020
:102E4A002E0E7024016E000E7120026E000E046EAA
:102E5A00000E036E020E066E000E056E77EC30F061
:102E6A006D50D96EDA6ADECF0DF0DDCF0EF07CC080
:102E7A000FF07DC010F07EC011F07FC012F0D9ECC7
:102E8A002CF06D50D96EDA6A10EE2AF0DE50E12687
:102E9A00DD50E2220DC0E6FF0EC0E6FF0FC0E6FFDE
:102EAA0010C0E6FF000E796E000E786E8BEF17F0F9
:102EBA006D50D96EDA6A10EE04F0DE50E126DD506C
:102ECA00E222010EE76E6D50D96EDA6ADECF1BF090
:102EDA00DDCF1CF0F3EC26F00009D8B477EF17F039
:102EEA0079EF17F07BEF17F09CEF16F06D50D96E63
:102EFA00DA6A10EE2AF0DE50E126DD50E222E62AF6
:102F0A00000EE622E622E622784A792A6D50D96E28
:102F1A00DA6A10EE02F0DE50E126DD50E222E750D6
:102F2A00706E716A7050785C71507958D8A0A0EFB1
:102F3A0017F0A2EF17F05DEF17F06D50D96EDA6A4D
:102F4A0010EE2AF0DE50E126DD50E2227850E65EED
:102F5A007950E65A000EE65AE65A6D50D96EDA6A88
:102F6A000A0ED9267CC0DEFF7DC0DEFF7EC0DEFFF2
:102F7A007FC0DEFF6D50D96EDA6ADECF0DF0DDCF8D
:102F8A000EF07CC00FF07DC010F07EC011F07FC043
:102F9A0012F0D9EC2CF06D50D96EDA6A0E0ED926E1
:102FAA000DC0DEFF0EC0DEFF0FC0DEFF10C0DEFF69
:102FBA006D50D96EDA6A040ED9267AC0DEFF7BC05C
:102FCA00DDFF0F0E7A14706E000E7B14716E050E03
:102FDA00D89070367136E82EEDEF17F06D50D96E35
:102FEA00DA6ADECF72F0DDCF73F070507224746E3D
:102FFA0071507320756E2E0E7426000E75226D5058
:10300A00D96EDA6A120ED92674C0DEFF75C0DDFFEA
:10301A00000E12000001BA51BB11D8A417EF18F024
:10302A0019EF18F01CEF18F0090E37EF1AF0BAC0B2
:10303A00D9FFBBC0DAFFDE6ADD6AFAC0D9F0FBC08D
:10304A00DAF01F0EBD17D90E456EBC0E466EBD5185
:10305A00FE0B476E1DEC03F00001D66FD651D8A4C3
:10306A0039EF18F03BEF18F036EF1AF0C20EED6F99
:10307A00D90E856FBCC086F02BEC26F00001D66F06
:10308A00EBC0D7F0ECC0D8F0D651D8A44FEF18F067
:10309A0051EF18F05CEF18F0D751D811D8A458EFB7
:1030AA0018F05AEF18F05CEF18F0060ED66FBDC094
:1030BA00BEF01C0EBE17D8B465EF18F067EF18F013
:1030CA0065EF19F0D651D8B46DEF18F06FEF18F01C
:1030DA0085EF18F0040ED619D8A476EF18F078EF19
:1030EA0018F07EEF18F0D90E896F3BEC2BF0000137
:1030FA00D66FBD87EBC0D7F0ECC0D8F0A3EF18F0BD
:10310A0020EE0BF0D751D926D851DA22DF50BE6F04
:10311A00110EBE17D8B494EF18F096EF18F09AEF84
:10312A0018F0070ED66FA3EF18F0BDA59FEF18F0A1
:10313A00A1EF18F0A3EF18F0080ED66FD651D8A455
:10314A00A9EF18F0ABEF18F094EF19F0BDA7B0EFA4
:10315A0018F0B2EF18F094EF19F020EE0EF0D751F4
:10316A00D926D851DA22000EDE6E000EDE6E210E4E
:10317A00DE6E460EDD6E20EE16F0D751D926D851F6
:10318A00DA22000EDE6E000EDE6E210EDE6E460EB6
:10319A00DD6E20EE0BF0D751D926D851DA22DF6A3C
:1031AA0020EE1CF0D751D926D851DA22DE6ADE6A1F
:1031BA00DE6ADD6AD9C001F0DAC002F0D7C003F0D6
:1031CA00D8C004F0F3EC2EF001C0CEF002C0CFF06C
:1031DA0003C0D0F004C0D1F0D7C001F0D8C002F0CB
:1031EA00000E036E000E046E000E056E000E066ED3
:1031FA0093EC30F0000120EE04F0D951D926DA51CF
:10320A00DA22010EDF6ECE51CF11D011D111D8B40E
:10321A0011EF19F013EF19F094EF19F020EE2AF0DC
:10322A00D951D926DA51DA22DECFD2F0DECFD3F065
:10323A00DECFD4F0DECFD5F0D9C056F0DAC057F0E1
:10324A00CEC058F0CFC059F0D0C05AF0D1C05BF010
:10325A0059EC25F00001D66FD651D8A437EF19F0F2
:10326A0039EF19F094EF19F0FF0ECE25BE6FFF0E5D
:10327A00CF21BF6FFF0ED021C06FFF0ED121C16FCA
:10328A0020EE0AF0D951D926DA51DA22BEC0DEFF81
:10329A00BFC0DEFFC0C0DEFFC1C0DEFFD9C030F054
:1032AA00DAC031F0D2C032F0D3C033F0D4C034F037
:1032BA00D5C035F03CEC2DF00001D66F94EF19F033
:1032CA00D651D8A46BEF19F06DEF19F094EF19F0FD
:1032DA0020EE0BF0D751D926D851DA22DFA878EFA1
:1032EA0019F07AEF19F07EEF19F0040ED66F94EF09
:1032FA0019F0BDA383EF19F085EF19F094EF19F0D7
:10330A0020EE0BF0D751D926D851DA22DFA090EF60
:10331A0019F092EF19F094EF19F0070ED66FD65103
:10332A00D8A49AEF19F09CEF19F0C2EF19F0BDA7D3
:10333A00A1EF19F0A3EF19F0A4EF19F0BD8B20EE5D
:10334A002AF0D951D926DA51DA2210EE1AF0BA51F6
:10335A00E126BB51E222DECFE6FFDECFE6FFDECF7B
:10336A00E6FFDECFE6FF20EE1EF0BA51D926BB51AA
:10337A00DA22D7C0DEFFD8C0DDFFD651D8A4C8EF05
:10338A0019F0CAEF19F036EF1AF020EE04F0BA512C
:10339A00D926BB51DA22BDC0DFFF20EE05F0BA51B3
:1033AA00D926BB51DA22DF6AD9C001F0DAC002F0AD
:1033BA00D7C003F0D8C004F0F3EC2EF0000120EEE1
:1033CA000EF0BA51D926BB51DA2201C0DEFF02C083
:1033DA00DEFF03C0DEFF04C0DEFF20EE1CF0D75183
:1033EA00D926D851DA2210EE0AF0BA51E126BB5199
:1033FA00E222DECFE6FFDECFE6FFDECFE6FFDECF5C
:10340A00E6FF20EE06F0BA51D926BB51DA22DE6A6F
:10341A00DE6ADE6ADD6A20EE16F0BA51D926BB51A1
:10342A00DA22DE6ADE6ADE6ADD6ABAC0D9FFBBC0AA
:10343A00DAFFD9C0DEFFDAC0DDFFBAC0D9FFBBC0F0
:10344A00DAFF10EE06F0DE50E126DD50E22220EE31
:10345A0002F0BA51D926BB51DA22E6CFDEFFE5CF18
:10346A00DDFFD651120040503F103E1009E1020E16
:10347A003D5CD8A043EF1AF045EF1AF05AEF1AF064
:10348A0020EE12F03B50D9263C50DA22DE503D5C49
:10349A00DE503E58DE503F58DE504058D8A058EF14
:1034AA001AF05AEF1AF064EF1AF0010E4B6E000E82
:1034BA004C6E000E4D6E000E4E6E1EEF1CF04B68E9
:1034CA004C684D684E680BEF1CF03DC053F03EC08F
:1034DA0054F0D8905430426E5330416E41505326C6
:1034EA00425054223BC030F03CC031F020EE1EF076
:1034FA003B50D9263C50DA22DECF41F0DECF42F0F3
:10350A00DECF43F0DECF44F053C045F054C046F05E
:10351A00090E476ED89046324532472E8FEF1AF081
:10352A0045504124326E46504220336E000E4320ED
:10353A00346E000E4420356E3CEC2DF00009D8B4F0
:10354A00A9EF1AF0ABEF1AF0ADEF1AF01EEF1CF06C
:10355A00FF0E5314416E010E5414426E41503B2427
:10356A00436E42503C20446E2E0E4324D96E000E08
:10357A004420DA6EDF50456E45504F6E506A534A0A
:10358A00542A3BC030F03CC031F020EE1EF03B50D4
:10359A00D9263C50DA22DECF41F0DECF42F0DECF30
:1035AA0043F0DECF44F053C045F054C046F0090E54
:1035BA00476ED89046324532472EDEEF1AF0455014
:1035CA004124326E46504220336E000E4320346E40
:1035DA00000E4420356E3CEC2DF00009D8B4F8EF0B
:1035EA001AF0FAEF1AF0FCEF1AF01EEF1CF0FF0EB9
:1035FA005314416E010E5414426E41503B24436EE3
:10360A0042503C20446E2E0E4324D96E000E4420B4
:10361A00DA6EDF50456E4550476E466A46504F1285
:10362A00475050123DB01CEF1BF01EEF1BF026EF67
:10363A001BF0FF0E4F14496E0F0E50144A6E36EFF0
:10364A001BF04FC041F050C042F0040E436ED890B8
:10365A0042324132432E2CEF1BF041C049F042C0A6
:10366A004AF049C04BF04AC04CF04D6A4E6A1EEF10
:10367A001CF03BC030F03CC031F020EE1EF03B5055
:10368A00D9263C50DA22DECF41F0DECF42F0DECF3F
:10369A0043F0DECF44F03DC045F03EC046F03FC0A7
:1036AA0047F040C048F046C045F047C046F048C021
:1036BA0047F0486A41504524326E42504620336EE4
:1036CA0043504720346E44504820356E3CEC2DF070
:1036DA000009D8B473EF1BF075EF1BF077EF1BF0FE
:1036EA001EEF1CF03DC041F03EC042F0D89041367A
:1036FA004236FF0E4114436E010E4214446E43508B
:10370A003B24456E44503C20466E2E0E4524516E95
:10371A00000E4620526E51C0D9FF52C0DAFFDECFEA
:10372A0041F0DDCF42F041C04BF042C04CF04D6A4F
:10373A004E6A1EEF1CF03BC030F03CC031F020EE68
:10374A001EF03B50D9263C50DA22DECF41F0DECFC4
:10375A0042F0DECF43F0DECF44F03DC045F03EC03C
:10376A0046F03FC047F040C048F0080EC2EF1BF0D9
:10377A00D8904832473246324532E82EBDEF1BF028
:10378A0041504524326E42504620336E4350472002
:10379A00346E44504820356E3CEC2DF00009D8B404
:1037AA00D9EF1BF0DBEF1BF0DDEF1BF01EEF1CF077
:1037BA003DC041F03EC042F0D89041364236D890E2
:1037CA0041364236FF0E4114436E010E4214446ED6
:1037DA0043503B24456E44503C20466E2E0E4524F1
:1037EA00516E000E4620526E51C0D9FF52C0DAFF08
:1037FA00FF0EDE144B6EFF0EDE144C6EFF0EDE144F
:10380A004D6E0F0EDE144E6E1EEF1CF03BC0D9FF3C
:10381A003CC0DAFFDF50010AD8B46AEF1AF0030A93
:10382A00D8B43EEF1BF0010AD8B4A0EF1BF05AEF50
:10383A001AF04BC03BF04CC03CF04DC03DF04EC0BE
:10384A003EF01200585059105A105B10D8A430EFAD
:10385A001CF032EF1CF06AEF1CF020EE0AF0565012
:10386A00D9265750DA22DECF61F0DECF62F0DECF02
:10387A0063F0DECF64F06150621063106410D8B454
:10388A0049EF1CF04BEF1CF060EF1CF020EE12F039
:10389A005650D9265750DA22DE50615CDE50625803
:1038AA00DE506358DE506458D8A05EEF1CF060EF1B
:1038BA001CF0CEEF1CF0010E616E000E626E000E5F
:1038CA00636E000E646ECEEF1CF056C03BF057C01C
:1038DA003CF058C03DF059C03EF05AC03FF05BC0C2
:1038EA0040F038EC1AF03BC069F03CC06AF03DC0C9
:1038FA006BF03EC06CF06C506B106A1007E1020E60
:10390A00695CD8B08BEF1CF08DEF1CF097EF1CF0C0
:10391A00010E566E000E576E000E586E000E596E4E
:10392A0000EF1EF069280AE16A2808E16B2806E11F
:10393A006C28D8A4A3EF1CF0A5EF1CF0AFEF1CF085
:10394A0069C056F06AC057F06BC058F06CC059F0A5
:10395A0000EF1EF020EE12F05650D9265750DA2208
:10396A00DE50695CDE506A58DE506B58DE506C5887
:10397A00D8B0C2EF1CF0C4EF1CF0C6EF1CF0A5EFE4
:10398A001CF058C061F059C062F05AC063F05BC0C5
:10399A0064F061C065F062C066F063C067F064C03D
:1039AA0068F0010E6526000E66226722682220EE64
:1039BA0012F05650D9265750DA22DE50655CDE5096
:1039CA006658DE506758DE506858D8A0EFEF1CF0F2
:1039DA00F1EF1CF010EF1DF0020E656E000E666E20
:1039EA00000E676E000E686E64506310621007E185
:1039FA00020E615CD8B004EF1DF006EF1DF010EF67
:103A0A001DF0000E566E000E576E000E586E000E18
:103A1A00596E00EF1EF056C03BF057C03CF065C02F
:103A2A003DF066C03EF067C03FF068C040F038EC39
:103A3A001AF03BC069F03CC06AF03DC06BF03EC072
:103A4A006CF069506A106B106C10D8A42FEF1DF03F
:103A5A0031EF1DF033EF1DF062EF1DF069280CE124
:103A6A006A280AE16B2808E16C28D8B43FEF1DF0F8
:103A7A0041EF1DF0A5EF1CF069046A106B106C1081
:103A8A00D8A44AEF1DF04CEF1DF04EEF1DF0A5EF44
:103A9A001CF0615065180DE1625066180AE1635026
:103AAA00671807E164506818D8A45EEF1DF060EF4C
:103ABA001DF0D6EF1CF006EF1DF056C03BF057C0C4
:103ACA003CF065C03DF066C03EF067C03FF068C09C
:103ADA0040F0FF0E416EFF0E426EFF0E436E0F0E58
:103AEA00446E82EC13F0606E6050D8A47FEF1DF034
:103AFA0081EF1DF0A3EF1DF0585059105A105B10BA
:103B0A00D8B48AEF1DF08CEF1DF0A3EF1DF056C05C
:103B1A003BF057C03CF058C03DF059C03EF05AC087
:103B2A003FF05BC040F065C041F066C042F067C03C
:103B3A0043F068C044F082EC13F0606E6050D8A481
:103B4A00A9EF1DF0ABEF1DF0E2EF1DF020EE0AF039
:103B5A005650D9265750DA2265C0DEFF66C0DEFF0E
:103B6A0067C0DEFF68C0DEFF20EE0EF05650D92691
:103B7A005750DA22DE280CE1DE280AE1DE2808E1C5
:103B8A00DE28D8B4CBEF1DF0CDEF1DF0F8EF1DF015
:103B9A0020EE0EF05650D9265750DA22DE06000ED5
:103BAA00DE5ADE5ADE5A20EE05F05650D926575014
:103BBA00DA22000EDB80F8EF1DF06004D8B4E8EFDB
:103BCA001DF0EAEF1DF0F4EF1DF0010E656E000E18
:103BDA00666E000E676E000E686EF8EF1DF065687F
:103BEA0066686768686865C056F066C057F067C05F
:103BFA0058F068C059F012000A50D96EDA6ADF50DC
:103C0A00156E09EF1EF0152A15C0F6FF060EF76E9F
:103C1A000800F5502F0AD8B415EF1EF017EF1EF062
:103C2A0008EF1EF015C0F6FF060EF76E0800F550F5
:103C3A005C0AD8B423EF1EF025EF1EF008EF1EF041
:103C4A000950D96EDA6A140ED926DF50186E18C0D8
:103C5A0001F0026A000E046E200E036E000E066E5C
:103C6A000B0E056E77EC30F0000E116E11C016F0D7
:103C7A00176A16C00FF017C010F0000E136E080E68
:103C8A00126E15500F240B6E0BC0F6FF060EF76E60
:103C9A000800F5CF19F00F4A102A200E196458EFC0
:103CAA001EF05AEF1EF063EF1FF02F0E1918D8B44A
:103CBA0061EF1EF063EF1EF063EF1FF05C0E191840
:103CCA00D8A46AEF1EF06CEF1EF06EEF1EF063EFE1
:103CDA001FF02E0E1918D8B475EF1EF077EF1EF0EC
:103CEA0082EF1EF01250165C13501758D8A080EFBE
:103CFA001EF082EF1EF0A6EF1EF0080E1218131027
:103D0A00D8A48AEF1EF08CEF1EF095EF1EF02E0E4F
:103D1A001918D8B493EF1EF095EF1EF098EF1EF025
:103D2A00060EC5EF1FF0000E176E080E166E000E77
:103D3A00136E0B0E126ED8901136D890113646EFCC
:103D4A001EF07F0E1964ACEF1EF0AEEF1EF0B0EF5E
:103D5A001EF0030E1112800E1964B6EF1EF0B8EFB2
:103D6A001EF0C0EF1EF09F0E1964BEEF1EF0C0EFEA
:103D7A001EF0D0EF1EF0DF0E1964C6EF1EF0C8EF7A
:103D8A001EF021EF1FF0FD0E1960CEEF1EF0D0EFEE
:103D9A001EF021EF1FF015500F240B6E0BC0F6FF1B
:103DAA00060EF76E0800F5CF14F00F4A102A3F0EE0
:103DBA001464E2EF1EF0E4EF1EF0ECEF1EF07E0E4C
:103DCA001464EAEF1EF0ECEF1EF0FCEF1EF07F0E1B
:103DDA001464F2EF1EF0F4EF1EF095EF1EF0FD0EE4
:103DEA001460FAEF1EF0FCEF1EF095EF1EF0FF0EC6
:103DFA0012240B6EFF0E13200C6E0B50165C0C5027
:103E0A001758D8A00BEF1FF00DEF1FF00FEF1FF0A0
:103E1A0095EF1EF018501624D96EDA6A19C0DFFF22
:103E2A00164A172A18501624D96EDA6A14C0DFFF08
:103E3A00164A172A46EF1EF01F0E016E19C002F02D
:103E4A00036AD4EC2FF001500210D8B42FEF1FF000
:103E5A0031EF1FF033EF1FF095EF1EF0400E19649B
:103E6A0039EF1FF03BEF1FF046EF1FF05B0E1960B2
:103E7A0041EF1FF043EF1FF046EF1FF0118259EF99
:103E8A001FF0600E19644CEF1FF04EEF1FF059EF50
:103E9A001FF07B0E196054EF1FF056EF1FF059EF19
:103EAA001FF01180200E195E18501624D96EDA6A96
:103EBA0019C0DFFF164A172A46EF1EF00A50D96EBC
:103ECA00DA6A15500F24DF6E200E19646FEF1FF0A7
:103EDA0071EF1FF077EF1FF0000E0E6E000E0D6EE1
:103EEA007BEF1FF0000E0E6E040E0D6E0DC019F062
:103EFA0016501710D8A484EF1FF086EF1FF088EF32
:103F0A001FF095EF1EF01850D96EDA6AE50EDE182A
:103F1A00D8A492EF1FF094EF1FF099EF1FF01850FA
:103F2A00D96EDA6A050EDF6E080E12181310D8A4BD
:103F3A00A1EF1FF0A3EF1FF0A7EF1FF0D8901136E3
:103F4A00D89011361150030BE806D8A4AFEF1FF032
:103F5A00B1EF1FF0B2EF1FF0198811500C0B040AD1
:103F6A00D8A4BAEF1FF0BCEF1FF0BDEF1FF01986FF
:103F7A001850D96EDA6A0B0ED92619C0DFFF000E67
:103F8A0012005550D96EDA6A040ED92656C0DEFFE1
:103F9A0057C0DDFF5550D96EDA6A060ED926DECF34
:103FAA0065F0DECF66F0DECF67F0DECF68F065043D
:103FBA00661067106810D8B4E5EF1FF0E7EF1FF03E
:103FCA00FFEF1FF05550D96EDA6A10EE12F0DE508C
:103FDA00E126DD50E222E650655CE6506658E6507E
:103FEA006758E6506858D8A0FDEF1FF0FFEF1FF0A2
:103FFA0002EF20F0020E59EF21F0655066106710AB
:10400A006810D8A40BEF20F00DEF20F032EF20F06B
:10401A005550D96EDA6ADECF58F0DDCF59F058C064
:10402A00D9FF59C0DAFF030EDE18D8A41FEF20F01B
:10403A0021EF20F032EF20F05550D96EDA6A10EEF7
:10404A0022F0DE50E126DD50E222E6CF65F0E6CF2F
:10405A0066F0E6CF67F0E6CF68F065506610671045
:10406A006810D8A43BEF20F03DEF20F066EF20F077
:10407A005550D96EDA6A10EE08F0DE50E126DD50AE
:10408A00E222E650565CE6505758D8A04FEF20F08F
:10409A0051EF20F053EF20F0FFEF1FF05550D96E8B
:1040AA00DA6A10EE22F0DE50E126DD50E222E6CF97
:1040BA0061F0E6CF62F0E6CF63F0E6CF64F0F2EFAC
:1040CA0020F05550D96EDA6A10EE02F0DE50E12681
:1040DA00DD50E222E750586E5850100DF3CF5FF0D2
:1040EA00F4CF60F0CEEF20F05550D96EDA6ADECF09
:1040FA003BF0DDCF3CF065C03DF066C03EF067C0E6
:10410A003FF068C040F038EC1AF03BC065F03CC0A4
:10411A0066F03DC067F03EC068F065280AE166288F
:10412A0008E1672806E16828D8A49EEF20F0A0EFEE
:10413A0020F0A3EF20F0010E59EF21F0685067102C
:10414A00661009E1020E655CD8A0AEEF20F0B0EF70
:10415A0020F0FFEF1FF05550D96EDA6A10EE12F018
:10416A00DE50E126DD50E222E650655CE6506658F4
:10417A00E6506758E6506858D8A0C6EF20F0C8EF56
:10418A0020F0CAEF20F0FFEF1FF05F50565E60503C
:10419A00575A5F50565C60505758D8B0D7EF20F046
:1041AA00D9EF20F079EF20F05550D96EDA6ADECFD8
:1041BA000DF0DDCF0EF065C00FF066C010F067C0DD
:1041CA0011F068C012F0D9EC2CF00DC061F00EC0ED
:1041DA0062F00FC063F010C064F05550D96EDA6A0D
:1041EA000A0ED92665C0DEFF66C0DEFF67C0DEFFA5
:1041FA0068C0DEFF6150621063106410D8A408EF33
:10420A0021F00AEF21F00CEF21F0FFEF1FF056C06A
:10421A0058F057C059F0040E5A6ED8905932583295
:10422A005A2E12EF21F0585061245B6E59506220C9
:10423A005C6E000E63205D6E000E64205E6E55504B
:10424A00D96EDA6A0E0ED9265BC0DEFF5CC0DEFFCD
:10425A005DC0DEFF5EC0DEFF0F0E5614586E000E04
:10426A005714596E050ED89058365936E82E38EF3D
:10427A0021F05550D96EDA6ADECF5AF0DDCF5BF005
:10428A0058505A245C6E59505B205D6E2E0E5C2687
:10429A00000E5D225550D96EDA6A120ED9265CC01C
:1042AA00DEFF5DC0DDFF000E1200126E1250D8B4A0
:1042BA0061EF21F063EF21F066EF21F0010EBAEF12
:1042CA0022F00001FDA36CEF21F06EEF21F072EFF6
:1042DA0021F00001FD51BAEF22F002EC31F00A0E92
:1042EA001D6E7CEF21F0FF0EEDEC30F01D061D5027
:1042FA00D8A482EF21F084EF21F078EF21F01A6A36
:10430A00000E0B6E000E0C6E000E0D6E000E0E6E81
:10431A00000E02EC30F0E806D8A496EF21F098EFF0
:10432A0021F0A8EF22F0AA0E0B6E010E0C6E000E01
:10433A000D6E000E0E6E080E02EC30F0E806D8A4E0
:10434A00A9EF21F0ABEF21F03FEF22F01D6A1D50DB
:10435A00130FD96EDA6AFF0EEDEC30F0DF6E1D2A0C
:10436A00030E1D64BBEF21F0BDEF21F0ACEF21F08D
:10437A001504D8A4C3EF21F0C5EF21F0A8EF22F06D
:10438A00AA0E1618D8A4CCEF21F0CEEF21F0A8EF90
:10439A0022F0030E1C6EE80E1B6EF3EF21F0000EE6
:1043AA000B6E000E0C6E000E0D6E400E0E6EA90EF8
:1043BA0002EC30F00009D8A4E5EF21F0E7EF21F094
:1043CA00E9EF21F0FCEF21F0030E116E980EE82EB2
:1043DA00FED7112EFCD71B06D8A01C061B501C109A
:1043EA00D8A4FAEF21F0FCEF21F0D4EF21F01B5012
:1043FA001C10D8B403EF22F005EF22F0A8EF22F048
:10440A00000E0B6E000E0C6E000E0D6E000E0E6E80
:10441A003A0E02EC30F00009D8A416EF22F018EF99
:10442A0022F0A8EF22F01D6A1D50130FD96EDA6A26
:10443A00FF0EEDEC30F0DF6E1D2A030E1D6428EF2F
:10444A0022F02AEF22F019EF22F013BC2FEF22F00C
:10445A0031EF22F037EF22F0000E186E040E176EBD
:10446A003BEF22F0000E186E0C0E176E17C01AF0F2
:10447A00A8EF22F0000E0B6E000E0C6E000E0D6EF1
:10448A00000E0E6EA90E02EC30F0116E020E1160D3
:10449A0051EF22F053EF22F059EF22F0020E1A6E7A
:1044AA00A90E196E5DEF22F0010E1A6E010E196E39
:1044BA00030E1C6EE80E1B6E82EF22F0000E0B6ECE
:1044CA00000E0C6E000E0D6E000E0E6E195002ECF0
:1044DA0030F00009D8A474EF22F076EF22F078EFDA
:1044EA0022F08BEF22F0030E116E980EE82EFED703
:1044FA00112EFCD71B06D8A01C061B501C10D8A4D2
:10450A0089EF22F08BEF22F063EF22F01B501C1090
:10451A00D8B492EF22F094EF22F0A7EF22F0000E27
:10452A000B6E020E0C6E000E0D6E000E0E6E100E4D
:10453A0002EC30F00009D8B4A5EF22F0A7EF22F080
:10454A00A8EF22F01A6A1AC0FCF010EC31F01A50E7
:10455A00D8B4B2EF22F0B4EF22F06EEF21F00001EE
:10456A00FD91FAEC30F06EEF21F0120039C01BF029
:10457A003AC01CF0F3EC26F0436E4350D8A4C8EFBF
:10458A0022F0CAEF22F0ACEF23F039C0D9FF3AC0CB
:10459A00DAFF030EDE18D8A4D5EF22F0D7EF22F007
:1045AA0093EF23F020EE05F03950D9263A50DA225B
:1045BA00DE04D8A4E3EF22F0E5EF22F093EF23F034
:1045CA002E0E3924016E000E3A20026E000E046E81
:1045DA00000E036E020E066E000E056E77EC30F0CA
:1045EA0022EE2CF03950D9263A50DA22550EDE6ED8
:1045FA00AA0EDD6E20EE2EF03950D9263A50DA2274
:10460A00520EDE6E520EDE6E610EDE6E410EDD6EF3
:10461A0022EE12F03950D9263A50DA22720EDE6EA4
:10462A00720EDE6E410EDE6E610EDD6E20EE0EF053
:10463A003950D9263A50DA2212EE16F03950E126CC
:10464A003A50E222DECFE6FFDECFE6FFDECFE6FF1C
:10465A00DECFE6FF20EE0AF03950D9263A50DA22A8
:10466A0012EE1AF03950E1263A50E222DECFE6FF86
:10467A00DECFE6FFDECFE6FFDECFE6FF20EE1AF062
:10468A003950D9263A50DA22DECF3BF0DECF3CF061
:10469A00DECF3DF0DECF3EF0010E3B243F6E000E32
:1046AA003C20406E000E3D20416E000E3E20426EC0
:1046BA0020EE2AF03950D9263A50DA223FC0DEFFDE
:1046CA0040C0DEFF41C0DEFF42C0DEFF2E0E3924AD
:1046DA00116E000E3A20126E20EE2AF03950D926B9
:1046EA003A50DA22DECF13F0DECF14F0DECF15F027
:1046FA00DECF16F0000E186E010E176E20EE01F0D6
:10470A003950D9263A50DA22DF5084EC24F020EED0
:10471A0005F03950D9263A50DA22DF6A000E116EB6
:10472A00000E126E000E136E20EE01F03950D926DB
:10473A003A50DA22DF5089EC10F00009D8B4A8EF19
:10474A0023F0AAEF23F0ACEF23F0010E436E43509F
:10475A00120015EC31F0200E506E010E516E0F0E44
:10476A00526E010E536E76EC2CF00001F26F79EF67
:10477A0024F0BDEC30F001C0F0F002C0F1F000010D
:10478A00F46BF56BF40EF05D010EF159D8A0D0EF81
:10479A0023F0D2EF23F0D7EF23F08D80010EF46FD0
:1047AA00D8EF23F08D9083B4DDEF23F0DFEF23F011
:1047BA00E4EF23F08D82010EF56FE5EF23F08D9281
:1047CA00000EBA6F010EBB6F2E0EBC6F120EBD6FBC
:1047DA000FEC18F00001F36FF351D8A4F7EF23F0B0
:1047EA00F9EF23F06CEF24F0F451D8B4FFEF23F083
:1047FA0001EF24F02FEF24F001010A510B110C11E3
:10480A000D11D8B40BEF24F00DEF24F01BEF24F0B8
:10481A00000E6D6E010E6E6E0AC16FF00BC170F064
:10482A000CC171F00DC172F0F6EC0CF0000E6D6E59
:10483A00010E6E6E010E6F6E000E716E0E0E706EB0
:10484A00F60E726ECFEC08F0000E446E010E456E45
:10485A00B5EC27F00001F551D8B436EF24F038EF63
:10486A0024F066EF24F001010A510B110C110D110D
:10487A00D8B442EF24F044EF24F052EF24F0000EB3
:10488A006D6E010E6E6E0AC16FF00BC170F00CC135
:10489A0071F00DC172F0F6EC0CF0000E6D6E010EA7
:1048AA006E6E100E6F6E000E716E0E0E706EF60E3C
:1048BA00726ECFEC08F0000E446E010E456EB5EC38
:1048CA0027F0000E496E010E4A6E2EEC30F0020EF1
:1048DA000001EF6F040EEE6FBA0EE82EFED7EE2F30
:1048EA00FCD7EF2FFAD700000001F251D8B480EFBD
:1048FA0024F082EF24F0BEEF23F000EF00F01A6EEE
:10490A001A50D8A48BEF24F08DEF24F096EF24F000
:10491A0017501810D8A494EF24F096EF24F099EFCA
:10492A0024F0040E58EF25F00001FDA19FEF24F0BA
:10493A00A1EF24F0A4EF24F0030E58EF25F0FDA513
:10494A00A9EF24F0ABEF24F0AEEF24F0020E58EFFB
:10495A0025F0FCB7B3EF24F0B5EF24F0BEEF24F056
:10496A00090ED8901336143615361636E82EB6EFD9
:10497A0024F017041810D8A4C5EF24F0C7EF24F0C8
:10498A00F0EF24F013C00BF014C00CF015C00DF0BA
:10499A0016C00EF0180E02EC30F00009D8A4D8EFB9
:1049AA0024F0DAEF24F04BEF25F011C004F012C026
:1049BA0005F0FE0E066EFEEC2DF00009D8B4E8EF05
:1049CA0024F0EAEF24F04BEF25F0000E186E000EEB
:1049DA00176E4BEF25F0FCC019F0060E1916D8B465
:1049EA00F9EF24F0FBEF24F004EF25F017C00BF0E9
:1049FA0018C00CF00D6A0E6A970E02EC30F013C064
:104A0A000BF014C00CF015C00DF016C00EF0190E04
:104A1A0002EC30F00009D8A415EF25F017EF25F0C5
:104A2A004BEF25F011C004F012C005F0FC0E066E23
:104A3A00FEEC2DF00009D8A425EF25F027EF25F08C
:104A4A0029EF25F037EF25F0020E12261706D8A017
:104A5A00180617501810D8A435EF25F037EF25F0AF
:104A6A0017EF25F0000E046E000E056EFD0E066EA1
:104A7A00FEEC2DF00009D8A445EF25F047EF25F00C
:104A8A004BEF25F0000E186E010E176E10EC31F088
:104A9A0017501810D8A454EF25F057EF25F0010E3F
:104AAA0058EF25F0000E12005B505A10591009E118
:104ABA00020E585CD8A064EF25F066EF25F07BEF74
:104ACA0025F020EE12F05650D9265750DA22DE5041
:104ADA00585CDE505958DE505A58DE505B58D8A000
:104AEA0079EF25F07BEF25F07FEF25F0020E606E5F
:104AFA0029EF26F0606A14EF26F056C03BF057C043
:104B0A003CF058C03DF059C03EF05AC03FF05BC07F
:104B1A0040F038EC1AF03BC061F03CC062F03DC096
:104B2A0063F03EC064F06150621063106410D8A450
:104B3A00A1EF25F0A3EF25F0A5EF25F029EF26F048
:104B4A006104621063106410D8A4AEEF25F0B0EFD0
:104B5A0025F0B2EF25F07BEF25F061280AE1622803
:104B6A0008E1632806E16428D8A4BEEF25F0C0EF67
:104B7A0025F0C4EF25F0010E606E29EF26F056C02D
:104B8A003BF057C03CF058C03DF059C03EF05AC007
:104B9A003FF05BC040F0000E416E000E426E000E08
:104BAA00436E000E446E82EC13F0606E6050D8B40F
:104BBA00E1EF25F0E3EF25F0E5EF25F029EF26F008
:104BCA0020EE0EF05650D9265750DA22DE280CE194
:104BDA00DE280AE1DE2808E1DE28D8B4F7EF25F05E
:104BEA00F9EF25F00CEF26F020EE0EF05650D926FC
:104BFA005750DA22DE2A000EDE22DE22DE2220EEE4
:104C0A0005F05650D9265750DA22000EDB8061C0D3
:104C1A0058F062C059F063C05AF064C05BF020EEED
:104C2A0012F05650D9265750DA22DE50585CDE5020
:104C3A005958DE505A58DE505B58D8A027EF26F054
:104C4A0029EF26F082EF25F06050120086C0F6FFA9
:104C5A00060EF76E0800F5502F0AD8B437EF26F083
:104C6A0039EF26F047EF26F086C0F6FF060EF76EFC
:104C7A000800F5505C0AD8A445EF26F047EF26F065
:104C8A0049EF26F00001862B00018551D96EDA6AB8
:104C9A00060ED926DE6ADE6ADE6ADD6A86C0F6FF9D
:104CAA00060EF76E200E0800F5605EEF26F060EF44
:104CBA0026F073EF26F085C055F0000E576E000EF1
:104CCA00566EC6EC1FF000018A6F8551D96EDA6AFA
:104CDA00120ED926DE6ADD6AF1EF26F085C009F0E8
:104CEA00860E0A6E01EC1EF000018A6F8A51D8B452
:104CFA0081EF26F083EF26F085EF26F0F1EF26F01C
:104D0A0085C080F097EC29F000018A6F8551D96E31
:104D1A00DA6A140ED926DF50D96EDA6A0B0ED92652
:104D2A00DF50896F8A51D8B49DEF26F09FEF26F0A5
:104D3A00B3EF26F0040E8A19D8A4A6EF26F0A8EF3E
:104D4A0026F0F1EF26F089B5ADEF26F0AFEF26F0A9
:104D5A00F1EF26F0050E8A6FF1EF26F089A5B8EF7C
:104D6A0026F0BAEF26F0BCEF26F0F1EF26F08551D7
:104D7A00D96EDA6A120ED926DECF87F0DDCF88F037
:104D8A0020EE0BF08751D9268851DA22DFB8D0EF0E
:104D9A0026F0D2EF26F0D4EF26F0AFEF26F08551B9
:104DAA00D96EDA6ADECF01F0DDCF02F087C003F0F8
:104DBA0088C004F0F3EC2EF000018551D96EDA6A4E
:104DCA00060ED92601C0DEFF02C0DEFF03C0DEFFE9
:104DDA0004C0DEFF73EF26F08A511200296A20EE22
:104DEA0004F01B50D9261C50DA22DF50D8B400EF49
:104DFA0027F002EF27F0B3EF27F020EE2AF01B503E
:104E0A00D9261C50DA22DECF2CF0DECF2DF0DECFF1
:104E1A002EF0DECF2FF02E0E1B24116E000E1C205A
:104E2A00126E2CC013F02DC014F02EC015F02FC036
:104E3A0016F0000E186E010E176E20EE01F01B50D0
:104E4A00D9261C50DA22DF5084EC24F00009D8B4A9
:104E5A0031EF27F033EF27F037EF27F0010E296EF5
:104E6A00B3EF27F020EE04F01B50D9261C50DA22AB
:104E7A00DF6A20EE16F01B50D9261C50DA2210EEFB
:104E8A001EF01B50E1261C50E222E6CF21F0E6CFAD
:104E9A0022F0E6CF23F0E6CF24F021502C5C256ED9
:104EAA0022502D58266E23502E58276E24502F58E4
:104EBA00286EDE50255CDE502658DE502758DE501C
:104ECA002858D8B06BEF27F06DEF27F0B3EF27F033
:104EDA0020EE03F01B50D9261C50DA22DF501D6E3B
:104EEA001D502A6E2B6A2B5007E1020E2A5CD8B09D
:104EFA0081EF27F083EF27F085EF27F0B3EF27F054
:104F0A0020EE16F01B50D9261C50DA22DE502C2631
:104F1A00DE502D22DE502E22DD502F222E0E1B2493
:104F2A00116E000E1C20126E2CC013F02DC014F04E
:104F3A002EC015F02FC016F0000E186E010E176E57
:104F4A0020EE01F01B50D9261C50DA22DF5084ECE7
:104F5A0024F02A06D8A02B0678EF27F02950120051
:104F6A0044C002F045C003F012EC2CF0466E4650E5
:104F7A00D8A4C2EF27F0C4EF27F061EF28F020EEA3
:104F8A0004F04450D9264550DA22DFAACFEF27F0A1
:104F9A00D1EF27F061EF28F044C0D9FF45C0DAFF0E
:104FAA00DECF30F0DDCF31F020EE1AF04450D926B2
:104FBA004550DA22DECF32F0DECF33F0DECF34F0E6
:104FCA00DECF35F03CEC2DF0466E4650D8A4F0EF1B
:104FDA0027F0F2EF27F061EF28F020EE1EF04450A0
:104FEA00D9264550DA22DECF47F0DDCF48F020EE51
:104FFA000BF04750D9264850DA22000EDB8A20EE01
:10500A000AF04450D9264550DA2210EE1CF04750D7
:10501A00E1264850E222DECFE6FFDECFE6FFDECF12
:10502A00E6FFDECFE6FF47C001F048C002F020EEFF
:10503A000EF04450D9264550DA22DECF03F0DECFF7
:10504A0004F0DECF05F0DECF06F093EC30F020EE70
:10505A0016F04750D9264850DA22000EDE6E000EAE
:10506A00DE6E210EDE6E460EDD6E20EE12F0475029
:10507A00D9264850DA22DE6ADD6A20EE04F044506E
:10508A00D9264550DA22DF0EDF1644C0D9FF45C0C3
:10509A00DAFF10EE04F0DE50E126DD50E222010EC6
:1050AA00E76E44C0D9FF45C0DAFFDECF39F0DDCF65
:1050BA003AF0BBEC22F0466E46501200196E1950B7
:1050CA00D8A46AEF28F06CEF28F075EF28F0175093
:1050DA001810D8A473EF28F075EF28F078EF28F0AD
:1050EA00040E00EF29F00001FDA17EEF28F080EF09
:1050FA0028F083EF28F0030E00EF29F0FCB788EFC1
:10510A0028F08AEF28F093EF28F0090ED89013368A
:10511A00143615361636E82E8BEF28F0185007E1AC
:10512A00020E175CD8B09CEF28F09EEF28F0A4EF8F
:10513A0028F0000E1B6E110E1A6EA8EF28F0000E52
:10514A001B6E120E1A6E1AC01CF013C00BF014C09C
:10515A000CF015C00DF016C00EF01C5002EC30F029
:10516A000009D8A4BBEF28F0BDEF28F0F3EF28F030
:10517A0011C002F012C003F0020E056E000E046E9A
:10518A00A5EC2EF00009D8A4CDEF28F0CFEF28F037
:10519A00D1EF28F0DFEF28F0020E12261706D8A06A
:1051AA00180617501810D8A4DDEF28F0DFEF28F002
:1051BA00BDEF28F0120E1C18D8A4E6EF28F0E8EF8D
:1051CA0028F0F3EF28F0000E0B6E000E0C6E000EA6
:1051DA000D6E000E0E6E0C0E02EC30F010EC31F07B
:1051EA0017501810D8A4FCEF28F0FFEF28F0010E92
:1051FA0000EF29F0000E120080C055F0000E576E25
:10520A00000E566EC6EC1FF00001886F8851D8A4B4
:10521A0011EF29F013EF29F08AEF29F0000E876FBA
:10522A00000E866F8051D96EDA6ADECF30F0DDCF9C
:10523A0031F08051D96EDA6A0E0ED926DECF32F0FD
:10524A00DECF33F0DECF34F0DECF35F03CEC2DF09C
:10525A000001886F8851D8B435EF29F037EF29F06B
:10526A0039EF29F08AEF29F08051D96EDA6A120EE5
:10527A00D926DECF83F0DDCF84F083C0D9FF84C086
:10528A00DAFFE50EDE18D8B44DEF29F04FEF29F01A
:10529A0064EF29F08051D96EDA6A120ED926DECF70
:1052AA0083F0DDCF84F083C0D9FF84C0DAFFDF50FA
:1052BA00D8A462EF29F064EF29F074EF29F0864B45
:1052CA00872B8151861907E182518719D8A470EF7B
:1052DA0029F072EF29F078EF29F08AEF29F0000E11
:1052EA00876F000E866F80C06DF0000E6F6E010E24
:1052FA006E6ECAEC15F00001886F8851D8B488EF39
:10530A0029F08AEF29F017EF29F0040E8819D8A49A
:10531A0091EF29F093EF29F095EF29F0070E886FA6
:10532A008851120080C055F0000E576E000E566E5E
:10533A00C6EC1FF00001846F8451D8B4A7EF29F09E
:10534A00A9EF29F0ADEF29F00001845127EF2AF0E7
:10535A008051D96EDA6ADECF30F0DDCF31F080517C
:10536A00D96EDA6A0E0ED926DECF32F0DECF33F0EE
:10537A00DECF34F0DECF35F03CEC2DF00001846F47
:10538A008451D8B4CBEF29F0CDEF29F0CFEF29F033
:10539A00A9EF29F08051D96EDA6A120ED926DECF2A
:1053AA0082F0DDCF83F082C0D9FF83C0DAFFDF50FD
:1053BA00816F8151D8A4E4EF29F0E6EF29F0EAEFF2
:1053CA0029F0040E846FA9EF29F020EE0BF0825128
:1053DA00D9268351DA22DFB6F5EF29F0F7EF29F063
:1053EA0013EF2AF082C001F083C002F08051D96E17
:1053FA00DA6A140ED926DF50036E000E056E0B0E04
:10540A00046E37EC2FF001500210D8A40FEF2AF0E7
:10541A0011EF2AF013EF2AF0A9EF29F080C06DF0FE
:10542A00000E6F6E000E6E6ECAEC15F00001846FEE
:10543A008451D8B423EF2AF025EF2AF0ADEF29F0F2
:10544A00A9EF29F0120020EE04F03B50D9263C5077
:10545A00DA22DF6A20EE2AF03B50D9263C50DA22C3
:10546A00FF0EDE6EFF0EDE6EFF0EDE6EFF0EDD6ECF
:10547A003BC030F03CC031F03DC032F03EC033F0AA
:10548A003FC034F040C035F03CEC2DF00009D8B4F0
:10549A0051EF2AF053EF2AF056EF2AF0030EB5EF38
:1054AA002AF022EE2CF03B50D9263C50DA22550E37
:1054BA00DE1809E1AA0EDE18D8B466EF2AF068EF02
:1054CA002AF06BEF2AF0020EB5EF2AF020EE64F014
:1054DA003B50D9263C50DA22FF0EDE14416EFF0EF5
:1054EA00DE14426EFF0EDE14436E000EDE14446EAE
:1054FA00460E41180BE1410E421808E1540E4318BA
:10550A004410D8A48BEF2AF08DEF2AF090EF2AF0FE
:10551A00000EB5EF2AF020EE80F03B50D9263C5021
:10552A00DA22FF0EDE14416EFF0EDE14426EFF0E0B
:10553A00DE14436E000EDE14446E460E41180BE173
:10554A00410E421808E1540E43184410D8A4B0EF93
:10555A002AF0B2EF2AF0B4EF2AF08DEF2AF0010E0A
:10556A001200046805680150D96EDA6ADF50D8B4AF
:10557A00C1EF2AF0C3EF2AF02EEF2BF00150D96EBB
:10558A00DA6ADF50096ECBEF2AF0092A09C0F6FF62
:10559A00060EF76E200E0800F564D6EF2AF0D8EF53
:1055AA002AF0E6EF2AF009C0F6FF060EF76E0800A9
:1055BA00F5503A0AD8A4E4EF2AF0E6EF2AF0CAEF47
:1055CA002AF009C0F6FF060EF76E0800F5503A0AEF
:1055DA00D8A4F2EF2AF0F4EF2AF034EF2BF00150BE
:1055EA00D96EDA6ADF50066E06C0F6FF060EF76E4F
:1055FA000800F5CF03F0D00E0324076E086AFF0EE9
:10560A000822062A085007E10A0E075CD8B010EFF4
:10561A002BF012EF2BF02EEF2BF009500618D8A41E
:10562A0019EF2BF01BEF2BF02EEF2BF00750081081
:10563A00D8A422EF2BF024EF2BF02EEF2BF007C08B
:10564A0004F008C005F0092A0150D96EDA6A09C0C7
:10565A00DFFF04C001F005C002F03AEF2BF0000EA4
:10566A00056E000E046E2EEF2BF0120089C080F03A
:10567A00000E0001826F010E816F01EC29F000011A
:10568A008B6F8B51D8A44CEF2BF04EEF2BF0A7EF7A
:10569A002BF08951D96EDA6ADECF30F0DDCF31F0E6
:1056AA008951D96EDA6A0E0ED926DECF32F0DECFF4
:1056BA0033F0DECF34F0DECF35F03CEC2DF00001D4
:1056CA008B6F8B51D8A46CEF2BF06EEF2BF0A7EFFA
:1056DA002BF08951D96EDA6A120ED926DECF01F083
:1056EA00DDCF02F0000E046E000E036E000E066E91
:1056FA00200E056E77EC30F000018951D96EDA6A16
:10570A00120ED926DECF01F0DDCF02F08951D96E13
:10571A00DA6A140ED926DF508A6F8AC003F0046A47
:10572A00000E066E0B0E056EA9EC2BF000018951D6
:10573A00D96EDA6A10EE04F0DE50E126DD50E2227C
:10574A00010EE76E8B51120001C009F002C00AF087
:10575A0003C00BF004C00CF0DEEF2BF00BC0F6FF19
:10576A000CC0F7FFF86A050EF76407D00900F5CFF9
:10577A0007F00900F5CF08F008D0F6CFE9FFF7CF18
:10578A00EAFFEECF07F0EECF08F009C0D9FF0AC052
:10579A00DAFF07C0DEFF08C0DDFF020E0926000E91
:1057AA000A22020E0B26000E0C22020E055E000EC5
:1057BA00065A065007E1020E055CD8B0E7EF2BF057
:1057CA00E9EF2BF0B3EF2BF004EF2CF00BC0F6FF50
:1057DA000CC0F7FFF86A09C0D9FF0AC0DAFF050E44
:1057EA00F76403D00800F55005D0F6CFE9FFF7CFEC
:1057FA00EAFFEF50DF6E0B4A0C2A094A0A2A05060D
:10580A00D8A00606052806E10628D8A40FEF2CF032
:10581A0011EF2CF0EBEF2BF0120002C008F003C0DE
:10582A0009F008500910D8B41DEF2CF01FEF2CF026
:10583A0071EF2CF008C0D9FF09C0DAFFDE50DE1084
:10584A00D8B42AEF2CF02CEF2CF071EF2CF008C012
:10585A00D9FF09C0DAFFDECF04F0DDCF05F004C0BE
:10586A00D9FF05C0DAFFDF50D8B43EEF2CF040EF85
:10587A002CF071EF2CF020EE02F00850D9260950D6
:10588A00DA2208C0E1FF09C0E2FF00EE06F0E650A6
:10589A00E926E550EA22DE50EE1807E1DE50EE185E
:1058AA00D8A45AEF2CF05CEF2CF071EF2CF008C062
:1058BA00D9FF09C0DAFF10EE01F0DE50E126DD5013
:1058CA00E222E750CFEC30F0046E04A06FEF2CF028
:1058DA0071EF2CF074EF2CF0090E75EF2CF0000E1E
:1058EA00120052C057F0570E016EB6EC2AF001C0F2
:1058FA0058F002C059F059BE87EF2CF085EF2CF012
:10590A008AEF2CF00B0ED8EF2CF05850020DF35002
:10591A00FA0FD96EDA6ADECF55F0DDCF56F0555060
:10592A005610D8B49BEF2CF09DEF2CF0A2EF2CF080
:10593A0055C0D9FF56C0DAFFDF6A50505110D8B4AB
:10594A00A9EF2CF0ABEF2CF0B0EF2CF050C0D9FF40
:10595A0051C0DAFFDF6A5850020DF350FA0FD96EC0
:10596A00DA6A50C0DEFF51C0DDFF50505110D8B482
:10597A00C1EF2CF0C3EF2CF0CBEF2CF05304D8B4CA
:10598A00C9EF2CF0CBEF2CF0CEEF2CF0000ED8EFB5
:10599A002CF0500E456E520E466E000E476E1DECF0
:1059AA0003F0546E54501200020E0F5E000E105A8D
:1059BA00115A125A20EE12F00D50D9260E50DA2240
:1059CA00FE0EDE24136EFF0EDE20146EFF0EDE20A6
:1059DA00156EFF0EDE20166E13500F5C1450105811
:1059EA001550115816501258D8A0FEEF2CF000EF9F
:1059FA002DF00AEF2DF0000E0D6E000E0E6E000E49
:105A0A000F6E000E106E3BEF2DF020EE26F00D50BB
:105A1A00D9260E50DA22DECF13F0DECF14F0DECF15
:105A2A0015F0DECF16F020EE02F00D50D9260E50FA
:105A3A00DA22DF50176E1750016E026A036A046A8F
:105A4A000FC005F010C006F011C007F012C008F030
:105A5A0070EC2FF0135001240D6E145002200E6EBC
:105A6A00155003200F6E16500420106E12003A6A69
:105A7A0020EE2AF03050D9263150DA223250DE1880
:105A8A000FE13350DE180CE13450DE1809E13550CD
:105A9A00DE18D8B453EF2DF055EF2DF09BEF2DF013
:105AAA0030C01BF031C01CF0F3EC26F03A6E3A50CD
:105ABA00D8A462EF2DF064EF2DF09BEF2DF02E0E9F
:105ACA003024116E000E3120126E32C013F033C032
:105ADA0014F034C015F035C016F0000E186E010E21
:105AEA00176E20EE01F03050D9263150DA22DF50FD
:105AFA0063EC28F00009D8B485EF2DF087EF2DF07C
:105B0A008DEF2DF03268336834683568010E3A6ECD
:105B1A0020EE2AF03050D9263150DA2232C0DEFF88
:105B2A0033C0DEFF34C0DEFF35C0DEFF3A5012005C
:105B3A000A6E0C0E0A18D8B4A5EF2DF0A7EF2DF0B7
:105B4A00B6EF2DF010EC31F0A8EC30F00009D8A433
:105B5A00B1EF2DF0B3EF2DF0B6EF2DF0FF0EFDEF04
:105B6A002DF00A504009EDEC30F00750EDEC30F022
:105B7A000650EDEC30F00550EDEC30F00450EDEC51
:105B8A0030F0010E096E0A50D8A4CEEF2DF0D0EFF6
:105B9A002DF0D2EF2DF0950E096E080E0A18D8A432
:105BAA00D9EF2DF0DBEF2DF0DDEF2DF0870E096E2A
:105BBA000950EDEC30F00C0E0A18D8A4E7EF2DF0DE
:105BCA00E9EF2DF0ECEF2DF0FF0EEDEC30F00A0EC0
:105BDA00096EFF0EEDEC30F0086E08AEF7EF2DF00F
:105BEA00F9EF2DF0FCEF2DF0092EEEEF2DF0085015
:105BFA001200A5EC2FF00009D8A406EF2EF008EF4A
:105C0A002EF00BEF2EF0000E52EF2EF00650EDECB8
:105C1A0030F0FD0E0618D8B415EF2EF017EF2EF05F
:105C2A0051EF2EF0020E086E000E076E04C0F6FF4A
:105C3A0005C0F7FFF86A050EF76403D00800F550AF
:105C4A0005D0F6CFE9FFF7CFEAFFEF50EDEC30F0E1
:105C5A00044A052A0706D8A0080607500810D8A43F
:105C6A0039EF2EF03BEF2EF01BEF2EF0FF0EEDEC8E
:105C7A0030F0FF0EEDEC30F0FF0EEDEC30F0096E77
:105C8A0009501F0B050AD8B44DEF2EF04FEF2EF036
:105C9A0051EF2EF008EF2EF0010E1200000E096EE1
:105CAA00000E0A6E000E0B6E000E0C6E05500610EA
:105CBA0007100810D8B464EF2EF066EF2EF09CEFB0
:105CCA002EF0010E0D6E70EF2EF0D89005360636C6
:105CDA00073608360D2A08AE75EF2EF077EF2EF04C
:105CEA006AEF2EF0D89009360A360B360C36055074
:105CFA00015C065002580750035808500458D8A0AF
:105D0A0089EF2EF08BEF2EF094EF2EF00550015E06
:105D1A000650025A0750035A0850045A0980D8906C
:105D2A0008320732063205320D2E77EF2EF009C0FF
:105D3A0001F00AC002F00BC003F00CC004F012001C
:105D4A00070E076ED00E066EC0EF2EF0FF0EEDECBA
:105D5A0030F0086E0828D8B4B5EF2EF0B7EF2EF061
:105D6A00B9EF2EF0C9EF2EF0420EE82EFED700D082
:105D7A000606D8A0070606500710D8A4C7EF2EF0CB
:105D8A00C9EF2EF0ABEF2EF0FE0E0818D8B4D0EF04
:105D9A002EF0D2EF2EF0D5EF2EF0000EF2EF2EF00D
:105DAA00FF0EEDEC30F002C0D9FF03C0DAFFDF6E60
:105DBA00024A032A0406D8A0050604500510D8A4EE
:105DCA00E9EF2EF0EBEF2EF0D5EF2EF0FF0EEDEC13
:105DDA0030F0FF0EEDEC30F0010E12001A0E032423
:105DEA00D96E000E0420DA6EDECF05F0DDCF06F0A4
:105DFA0005C00BF006C00CF00D6A0E6A01C0D9FF8F
:105E0A0002C0DAFF030EDE18D8A40EEF2FF010EF4F
:105E1A002FF02EEF2FF0140E0324D96E000E04205B
:105E2A00DA6EDECF05F0DDCF06F00550076E0650BC
:105E3A00086E096A0A6A08C00AF007C009F0086A07
:105E4A00076A07500B1208500C1209500D120A501B
:105E5A000E120BC001F00CC002F00DC003F00EC010
:105E6A0004F0120001C008F002C009F003C00CF0EF
:105E7A00000E0B6E000E0A6E0406D8A00506042852
:105E8A0008E10528D8B44CEF2FF04EEF2FF06BEF56
:105E9A002FF008C0D9FF09C0DAFF084A092ADF50E3
:105EAA00066E0C2A0C04D96EDA6ADF50076E0750A8
:105EBA00065C0A6E0B6AD8A00B060A500B10D8B4FF
:105ECA0069EF2FF06BEF2FF041EF2FF00AC001F0CE
:105EDA000BC002F01200000E096E000E0A6E000ED0
:105EEA000B6E000E0C6E01A07DEF2FF07FEF2FF0EE
:105EFA0087EF2FF00550092606500A2207500B2279
:105F0A0008500C22D8900536063607360836D8903F
:105F1A00043203320232013201500210031004101B
:105F2A00D8A49AEF2FF09CEF2FF078EF2FF009C04A
:105F3A0001F00AC002F00BC003F00CC004F012001A
:105F4A00130E036E880E026EBFEF2FF0FF0EEDECFC
:105F5A0030F0FF0AD8A4B4EF2FF0B6EF2FF0B8EF65
:105F6A002FF0C8EF2FF0420EE82EFED700D002061F
:105F7A00D8A0030602500310D8A4C6EF2FF0C8EF2A
:105F8A002FF0ABEF2FF002500310D8A4CFEF2FF071
:105F9A00D2EF2FF0010ED3EF2FF0000E1200D7EF41
:105FAA002FF0012A01C0F6FF060EF76E0800F55021
:105FBA000009D8B4E3EF2FF0E5EF2FF0F9EF2FF057
:105FCA0001C0F6FF060EF76E0800F550046E056A6A
:105FDA000250041807E103500518D8A4F7EF2FF070
:105FEA00F9EF2FF0D6EF2FF001C0F6FF060EF76E8D
:105FFA000800F550016E026A12000F6E0FAE08EF2C
:10600A0030F00AEF30F022EF30F00F9E000E046EEF
:10601A00000E056E000E066E000E076E370E9DEC22
:10602A002DF0106E010E10641DEF30F01FEF30F0EE
:10603A0022EF30F010502DEF30F00BC004F00CC0FE
:10604A0005F00DC006F00EC007F00F509DEC2DF0C4
:10605A00120049C044F04AC045F0B5EC27F04B6E37
:10606A004B50D8A43BEF30F03DEF30F052EF30F018
:10607A0049C002F04AC003F012EC2CF04B6E4B50B0
:10608A00D8A44AEF30F04CEF30F052EF30F049C06C
:10609A00D9FF4AC0DAFFDE6ADD6A1200340EF66EF4
:1060AA00620EF76E000EF86E0900F5CFFDF001EEF4
:1060BA0020F012EE2EF0EE6AE550E150FCE1E250DB
:1060CA00FAE101EE00F0200EEE6AE806FDE10001B9
