:020000040000FA
:0400000046EF00F0D7
:100018005F80D8CF51F0E8CF52F0E0CF53F0D9CF7E
:1000280054F0DACF55F09EAA1CEF00F01EEF00F056
:100038003AEF00F0ABA223EF00F025EF00F028EF35
:1000480000F0AB980000AB882ABE34EF00F02A50CD
:1000580009E1140E295CD8A034EF00F036EF00F067
:1000680038EF00F0CAEC03F001EC03F055C0DAFFFA
:1000780054C0D9FF53C0E0FF52C0E8FF51C0D8FFB9
:080088005F901000B3EF03F0DC
:100600000000AECF4CF0080E4C18D8B40AEF03F03F
:100610000CEF03F015EF03F07F0E4C18D8A413EF86
:1006200003F015EF03F02CEF03F02ABE20EF03F0E8
:100630002A5008E12904D8A020EF03F022EF03F0AC
:100640002CEF03F02906D8A02A062950370FD96EBF
:10065000DA6ADF6A34EF03F02950370FD96EDA6AAD
:100660004CC0DFFF294A2A2A0D0E4C18D8A43BEFB4
:1006700003F03DEF03F041EF03F0000E2C6E010E8E
:100680002B6E4C50F1EC03F0120004EC04F0000E61
:10069000576E000E566E7CEC03F056C05BF057C0F0
:1006A0005CF05CBE5FEF03F05C5007E1FA0E5B5C50
:1006B000D8B05DEF03F05FEF03F063EF03F08C80E1
:1006C0008C8265EF03F08C908C9283B46AEF03F018
:1006D0006CEF03F06FEF03F08C8C70EF03F08C9CE9
:1006E000290E5A6E940EE82EFED75A2EFCD700D053
:1006F00047EF03F046EF00F056C058F00F0E5816C3
:1007000058465846C2505818C30B5818C26EC28279
:10071000C2B28DEF03F08FEF03F088EF03F0C35008
:10072000C4CF58F0596A58C059F0586A5810566EDC
:100730005950576E12004BC050F0A5EF03F05050C7
:10074000D96EDA6A4CC0DFFF502A4E06D8A04F0699
:100750004E2806E14F28D8A4B0EF03F0B2EF03F023
:100760009FEF03F01200220EF66E080EF76E000ED9
:10077000F86E0900F5CF5DF00900F5CF5EF000EEF0
:1007800001F04A0EEE6AE806FDE15F905F9200011B
:1007900045EF03F0370E4B6E000E4D6E000E4C6EA3
:1007A000000E4F6E140E4E6E9BEC03F0000E2C6E7E
:1007B000000E2B6E000E2A6E000E296E1200928023
:1007C000C280C198C19AC150F00B0E09C16EF80EDB
:1007D000C016C050C70B0809C06EC08EC46AC36A79
:1007E00012004B6EACA2F7EF03F0F9EF03F0F2EF5B
:1007F00003F04BC0ADFF1200959095928C908C92B7
:100800009584959C8C9C12000BEC04F0FCEC03F09E
:10081000DFEC03F01200D3508F0B1009D36ED06AB7
:040820001200320090
:020000040020DA
:08000000FFFFFFFFFFFFFFFF00
:020000040030CA
:0E000000FF881F1EFF8381FF0FC00FE00F401F
:00000001FF
